:100000000C94291A0C945A1A0C945A1A0C945A1AD1
:100010000C945A1A0C945A1A0C945A1A0C945A1A90
:100020000C945A1A0C945A1A0C945A1A0C945A1A80
:100030000C945A1A0C945A1A0C945A1A0C945A1A70
:100040000C945A1A0C9419950C945A1A0C945A1A26
:100050000C945A1A0C945A1A0C94598C0C94F2F36E
:100060000C945A1A0C94807D0C94767D0C945A1A38
:100070000C945A1A0C945A1A0C945A1A0C945A1A30
:100080000C945A1A0C945A1A0C945A1A0C945A1A20
:100090000C945A1A0C945A1A0C945A1A0C945A1A10
:1000A0000C945A1A0C945A1A0C945A1A0C945A1A00
:1000B0000C945A1A0C945A1A0C945A1A0C945A1AF0
:1000C0000C945A1A0C945A1A0C945A1A0C945A1AE0
:1000D0000C945A1A0C945A1A0C945A1A0C945A1AD0
:1000E0000C945A1A084AD73B3BCE016E84BCBFFD24
:1000F000C12F3D6C74319ABD56833DDA3D00C77FF8
:1001000011BED9E4BB4C3E916BAAAABE0000008090
:100110003F05A84CCDB2D44EB93836A9020C50B91F
:10012000918688083CA6AAAA2ABE000000803F004B
:100130000D9481090D949F094E414E494E495459E1
:10014000494E46CDCCCC3D0AD7233C17B7D13877A2
:10015000CC2B329595E6241FB14F0A0000204100B8
:1001600000C84200401C4620BCBE4CCA1B0E5AAE02
:10017000C59D7400407A10F35A00A0724E18090011
:1001800010A5D4E80000E87648170000E40B5402FC
:100190000000CA9A3B000000E1F505000080969837
:1001A00000000040420F000000A086010000001087
:1001B0002700000000E803000000006400000000C9
:1001C000000A00000000000100000000002C76D8AA
:1001D00088DC674F0823DFC1DFAE59E1B1B796E590
:1001E000E3E453C63AE651997696E8E6C28426EBF4
:1001F000898C9B62ED407C6FFCEFBC9C9F40F2BA07
:10020000A56FA5F490055A2AF75C936B6CF9676D9E
:10021000C11BFCE0E40D47FEF520E6B500D0ED90F3
:100220002E0300943577050080841E080000204EC0
:100230000A000000C80C333333330F986E12831159
:1002400041EF8D2114893BE65516CFFEE6DB18D130
:10025000844B381BF77C1D901DA4BBE42420328402
:10026000725E228100C9F124ECA1E53D27434F4D88
:100270004D554E49434154494F4E004452595255F1
:100280004E004552524F525300494E464F0045438F
:10029000484F004572726F722077726974696E6799
:1002A00020746F20454550524F4D210A0025301DC6
:1002B0000C282924311C0B4527232F1B0A444321DA
:1002C0002A193F40222B1A414203380906360308F7
:1002D00002060001627573793A2070617573656476
:1002E00020666F7220696E7075740A00627573798A
:1002F0003A2070617573656420666F72207573654E
:10030000720A00627573793A2070726F6365737355
:10031000696E670A0053544F505045442E200050D8
:1003200072696E7465722073746F70706564206496
:10033000756520746F206572726F72732E20466926
:100340007820746865206572726F7220616E642017
:10035000757365204D39393920746F207265737457
:100360006172742E202854656D70657261747572A7
:10037000652069732072657365742E20536574203F
:100380006974206166746572207265737461727439
:10039000696E67290A004E6F20436865636B737549
:1003A0006D2077697468206C696E65206E756D626A
:1003B00065722C204C617374204C696E653A200084
:1003C0004E6F20436865636B73756D207769746841
:1003D000206C696E65206E756D6265722C204C61B3
:1003E0007374204C696E653A2000636865636B73B3
:1003F000756D206D69736D617463682C204C617339
:1004000074204C696E653A20004C696E65204E750B
:100410006D626572206973206E6F74204C61737415
:10042000204C696E65204E756D6265722B312C20F3
:100430004C617374204C696E653A20004D31313047
:10044000004D313137004D33310053442072656126
:1004500064206572726F720A00446F6E652070725C
:10046000696E74696E672066696C650A004B494C59
:100470004C20636175736564206279204B494C4C54
:1004800020627574746F6E2F70696E0A004B494C50
:100490004C2063617573656420627920746F6F20EE
:1004A0006D75636820696E6163746976652074692F
:1004B0006D65202D2063757272656E7420636F6D9B
:1004C0006D616E643A2000506C6561736520526501
:1004D000736574005052494E5445522048414C5463
:1004E00045440025533A202553004B494C4C454484
:1004F0002E20005072696E7465722068616C74659C
:10050000642E206B696C6C28292063616C6C6564B7
:10051000210A006563686F3A004572726F723A0093
:100520000A4D6561737572656420706F696E7473CE
:100530003A0A00357835206D6573682E205A206F91
:1005400066667365743A20004C6F6164002D2D2D32
:100550000A00494E56414C494420444154410A0046
:100560007072696E745F6A6F625F656C61707365EB
:10057000643A20007364706F733A200073645F669E
:10058000696C656E616D653A20000A20666164657C
:100590003A20006C6576656C696E673A200066618A
:1005A0006E5F73706565643A20007461726765748C
:1005B0005F74656D70657261747572655F626564A4
:1005C0003A20007461726765745F74656D7065725E
:1005D00061747572653A2000666565647261746560
:1005E0003A2000706F736974696F6E5F7368696633
:1005F000743A2000686F6D655F6F66667365743A64
:10060000200063757272656E745F706F73697469D0
:100610006F6E3A20002076616C69645F666F6F745C
:100620003A00204A6F62205265636F7665727920C6
:10063000496E666F2E2E2E0A76616C69645F68655E
:1006400061643A00506F7765722D6C6F737320662A
:10065000696C6520636C6F7365206661696C6564A5
:100660002E0A00506F7765722D6C6F737320666968
:100670006C65207772697465206661696C65642EAB
:100680000A00577269746500473236204865617404
:10069000696E67204E6F7A7A6C6500473236204863
:1006A000656174696E6720426564005761697469A9
:1006B0006E6720666F72206865617475702E0A001F
:1006C0004669786564204C656E677468205072696D
:1006D0006D6500446F6E65205072696D696E6700CC
:1006E0004D616E75616C207072696D696E672E2E3A
:1006F0002E004732362043616E63656C6564004CA2
:10070000656176696E6720473236003F53706563D6
:10071000696669656420582C5920636F6F7264693B
:100720006E617465206F7574206F6620626F756EE0
:1007300064732E0A003F2852296570656174207623
:10074000616C7565206E6F7420706C617573696281
:100750006C653B206D757374206265206174206C3C
:100760006561737420312E0A003F537065636966BA
:10077000696564206E6F7A7A6C652074656D70654A
:10078000726174757265206E6F7420706C61757320
:1007900069626C652E0A003F53706563696669651E
:1007A000642066696C616D656E742073697A65207A
:1007B0006E6F7420706C61757369626C652E0A00CF
:1007C0003F537065636966696564207072696D6521
:1007D000206C656E677468206E6F7420706C617534
:1007E0007369626C652E0A003F53706563696669C0
:1007F0006564206E6F7A7A6C652073697A65206E05
:100800006F7420706C61757369626C652E0A003FAD
:1008100052657472616374696F6E204D756C746992
:10082000706C696572206D757374206265207370D9
:10083000656369666965642E0A003F537065636984
:10084000666965642052657472616374696F6E20B5
:100850004D756C7469706C696572206E6F74207070
:100860006C61757369626C652E0A003F5370656335
:100870006966696564206C6179657220686569677D
:100880006874206E6F7420706C61757369626C653A
:100890002E0A0043292E0A003F537065636966697A
:1008A0006564206265642074656D7065726174753D
:1008B0007265206E6F7420706C61757369626C650F
:1008C000202834302D0047323620737461727469E9
:1008D0006E672E2E2E0A004F46460A00466164655A
:1008E000204865696768742000426564204C65761D
:1008F000656C696E6720004661696C656420746F81
:1009000020656E61626C6520426564204C65766589
:100910006C696E670A004D65736820426564204CFF
:100920006576656C20646174613A0A00496E76618F
:100930006C6964206D6573682E0A00206E6F7420E8
:10094000656E74657265642E0A00206F6620004D26
:10095000424C2047323920706F696E742000290A9A
:10096000004A206F7574206F662072616E67652083
:1009700028302D00290A0049206F7574206F6620E9
:1009800072616E67652028302D004D657368207098
:10099000726F62696E6720646F6E652E0A00537411
:1009A000617274206D6573682070726F62696E6722
:1009B000207769746820224732392053312220661B
:1009C000697273742E0A004732380A47323920534D
:1009D0003200686173206E6F20646174612E0A00BA
:1009E0004D65736820426564204C6576656C696E60
:1009F00067200053206F7574206F662072616E67E8
:100A0000652028302D35292E0A004D657368207029
:100A10006F696E742063616E6E6F74206265207200
:100A200065736F6C7665640A004D34323120696EEF
:100A3000636F727265637420706172616D65746555
:100A4000722075736167650A004D32342053256C3E
:100A5000642054256C64004739322E3920452573B3
:100A600000473120462564004739322E39205A2567
:100A700073004731205A3020463230300047312051
:100A800058257320592573204633303030004D34BB
:100A9000323020532569205A2573004D31303620DD
:100AA00050256920532569004D313039205325697F
:100AB000004D31393020532569004D32303020440B
:100AC0002573004739322E392045305A300A4731D4
:100AD0005A320A47323852305859004D3432302099
:100AE0005330205A300020506F7765722D4C6F7351
:100AF00073205265636F7665727920446174610A70
:100B000000496E76616C6964004E6F0020496E7614
:100B1000616C696420657874727564657220004741
:100B2000322F47332062616420706172616D657499
:100B30006572730A00536C6565702E2E2E004D652C
:100B4000736820706F696E742063616E6E6F7420BD
:100B50006265207265736F6C7665640A00436C6928
:100B6000636B20746F20526573756D652E2E2E0099
:100B70004E6F204D6F76652E00456E642066696C61
:100B800065206C6973740A00426567696E20666946
:100B90006C65206C6973740A00286E6F2066696C3E
:100BA00065290043757272656E742066696C653ADA
:100BB00020005344207072696E74696E67206279F8
:100BC000746520004E6F74205344207072696E74F7
:100BD000696E670A005072696E742074696D653AB7
:100BE00020000A53746174733A2046696C616D6524
:100BF0006E7420757365643A20002C204C6F6E670C
:100C0000657374206A6F623A2000546F74616C20BF
:100C100074696D653A200053746174733A20002C36
:100C2000204661696C65643A20002C2046696E6933
:100C3000736865643A20005072696E74733A2000DC
:100C400053746174733A2000436F6F6C696E672E42
:100C50002E2E0048656174696E672E2E2E00452089
:100C60002553006F6B006F6666008E028902820258
:100C70007B026D0244454255473A004D31313220E6
:100C800053687574646F776E004D313133205300B3
:100C900042656420436F6F6C696E672E2E2E004292
:100CA00065642048656174696E672E2E2E0044616C
:100CB0006E2773205468696E6B6572205632202847
:100CC000302E3129204F46462E004348414D4245A3
:100CD000525F54454D5045524154555245004D4F79
:100CE00054494F4E5F4D4F44455300544845524D73
:100CF000414C5F50524F54454354494F4E0041556B
:100D0000544F5245504F52545F53445F53544154D3
:100D100055530050524F4D50545F535550504F5201
:100D20005400454D455247454E43595F504152533B
:100D3000455200434153455F4C494748545F425236
:100D4000494748544E45535300544F47474C455F1D
:100D50004C494748545300534F4654574152455FFE
:100D6000504F574552004255494C445F50455243FD
:100D7000454E54004C4556454C494E475F444154FE
:100D800041005A5F50524F4245004155544F4C4527
:100D900056454C005052494E545F4A4F4200505203
:100DA0004F4752455353004155544F5245504F52AF
:100DB000545F54454D5000564F4C554D4554524983
:100DC0004300454550524F4D0042494E4152595FF4
:100DD00046494C455F5452414E5346455200534597
:100DE0005249414C5F584F4E5F584F464600464966
:100DF000524D574152455F4E414D453A4D61726CDF
:100E0000696E20322E302E7820284769744875622A
:100E10002920534F555243455F434F44455F555238
:100E20004C3A68747470733A2F2F676974687562EE
:100E30002E636F6D2F4D61726C696E4669726D77AE
:100E40006172652F4D61726C696E2050524F544F24
:100E5000434F4C5F56455253494F4E3A312E302046
:100E60004D414348494E455F545950453A44616E9F
:100E70002773205468696E6B6572205632202830C3
:100E80002E31292045585452554445525F434F5501
:100E90004E543A3120555549443A63656465326190
:100EA00032662D343161322D343734382D39623188
:100EB000322D6335356336326633363766660A005F
:100EC0002F2F20004D31343520533C696E646578F6
:100ED0003E206F7574206F662072616E67652028F2
:100EE000302D31290A0020540020520041636365EF
:100EF0006C65726174696F6E3A2050005741524EB2
:100F0000494E4721204C6F77205A204A65726B204A
:100F10006D6179206C65616420746F20756E7761F6
:100F20006E746564207061757365732E0A004F4698
:100F300046004F4E0020204D61783A2000200020CE
:100F4000204D696E3A2000536F667420656E64739D
:100F5000746F70733A200020466C6F773A2000500F
:100F6000726F7465637465642050696E0A004D4247
:100F70004C2041646A757374205A0020643A002042
:100F8000693A0020703A00496E76616C69642065A8
:100F9000787472756465720A0020643A0020693AB8
:100FA0000020703A0064697300656E0043290A00EE
:100FB00061626C656420286D696E2074656D7020B7
:100FC00000436F6C6420657874727564657320618A
:100FD000726520004F666673657473204170706C93
:100FE000696564004572723A20546F6F20666172C1
:100FF0002100546F6F206661722066726F6D2072DF
:1010000065666572656E636520706F696E740A004F
:10101000454550524F4D204F4B0A00496E76616C4A
:1010200069640A0056616C69640A004E6F20504C76
:10103000520A00504C52204578697374730A00506C
:101040006F7765722D6C6F7373207265636F766551
:10105000727920004361703A00220A00656E717552
:10106000657565696E672022006F6B005265736558
:101070006E643A20002569730025696D2025697327
:10108000002569682025696D20256973002569643C
:10109000202569682025696D2025697300256979F7
:1010A00020256964202569682025696D20256973DC
:1010B0000023646566696E652044454641554C547D
:1010C0005F00626564004B6420004B6920004B7038
:1010D0002000504944204175746F74756E65206618
:1010E000696E697368656421205075742074686541
:1010F000206C617374204B702C204B6920616E64EE
:10110000204B6420636F6E7374616E74732066721B
:101110006F6D2062656C6F7720696E746F20436F0E
:101120006E66696775726174696F6E2E680A005029
:101130004944204175746F74756E65206661696CF1
:101140006564212074696D656F75740A0054686563
:10115000726D616C2052756E6177617900486561CE
:1011600074696E67206661696C656400504944204B
:101170004175746F74756E65206661696C65642174
:101180002054656D706572617475726520746F6F3F
:1011900020686967680A00204B643A2000204B6988
:1011A0003A2000204B703A20000A20436C61737390
:1011B000696320504944200A00204B643A200020F3
:1011C0004B693A2000204B703A20000A204E6F20D5
:1011D0006F76657273686F6F740A002054753A20D9
:1011E00000204B753A2000206D61783A2000206D78
:1011F000696E3A200020643A200020626961733AE7
:101200002000504944204175746F74756E652073D9
:10121000746172740A00504944204175746F74758A
:101220006E65206661696C6564212054656D70652A
:1012300072617475726520746F6F20686967680ADF
:1012400000504944204175746F74756E6520666165
:10125000696C6564212042616420657874727564EC
:101260006572206E756D6265720A004572723A2071
:101270007574663820666F6E74206E6F7420696EA8
:10128000697469616C697A65642E004572723A20EE
:101290007574663820666F6E74206E6F7420696E88
:1012A000697469616C697A65642E004572723A20CE
:1012B0007574663820666F6E74206E6F7420696E68
:1012C000697469616C697A65642E0046696C2E20C8
:1012D0004469612E004520696E206D6DC2B3002007
:1012E000082046616374002008204D6178002008C2
:1012F000204D696E004F6666004F6E004175746F39
:1013000074656D70005654726176204D696E00569A
:101310006D696E00566D6178204500566D617820CC
:101320005A00566D6178205900566D61782058003A
:10133000416D6178204500416D6178205A00416D12
:101340006178205900416D6178205800412D547218
:101350006176656C00412D52657472616374004161
:101360006363656C0056652D4A65726B00565A2D95
:101370004A65726B0056592D4A65726B0056582D9E
:101380004A65726B004573746570732F6D6D005AFA
:1013900073746570732F6D6D005973746570732F5E
:1013A0006D6D005873746570732F6D6D00416476B8
:1013B000616E6365642053657474696E6773003F82
:1013C0000043616E63656C00496E6974004D343290
:1013D0003800496E697469616C697A6520454550C9
:1013E000524F4D0046696C616D656E740054656DB9
:1013F00070657261747572650053746570732F6DDA
:101400006D004A65726B00416363656C657261745F
:10141000696F6E0056656C6F63697479005365740B
:1014200020486F6D65204F66667365747300436F67
:101430006E66696775726174696F6E004C6576657A
:101440006C696E6720446F6E6521004D6F76652074
:101450005A00473239205332004E65787420506F5D
:10146000696E74002569202F2025750047323920C8
:1014700053310047323920533200436C69636B208B
:10148000746F20426567696E00486F6D696E6720F2
:1014900058595A0053746F72652053657474696E9D
:1014A0006773004C6F61642053657474696E677371
:1014B00000426564205A004661646520486569679A
:1014C0006874004F6666004F6E00426564204C658C
:1014D00076656C696E67004C6576656C2042656464
:1014E000004D6F74696F6E00426564004E6F7A7ACA
:1014F0006C650046616E20537065656400436F6ED5
:1015000066696775726174696F6E00000C0D00FE8C
:1015100007022603BC017FFE08FE08FE0508080638
:10152000000040F0C8888898781005080806000078
:10153000C0F88888888888F80505050600012030ED
:10154000F830200508080600002070F82020202030
:10155000E00509090600FF2070A8A8B88888702057
:10156000050606060001E08CEA8C8A0A05090906D0
:1015700000FFF8A88888888888A8F8050A0A060065
:10158000FE205050505088A8A8887003030306001E
:101590000340A040FFFFFFFFFFFFFFFFFFFFFFFF34
:1015A000FFFFFFFFFFFFFFFFFFFF0000000605FF3B
:1015B000010707060200808080808000800303030B
:1015C000060105A0A0A005060606000050F8505030
:1015D000F8500509090600FF2070A8A07028A8701F
:1015E00020050707060000C8C81020409898050786
:1015F0000706000040A0A040A8906801030306026F
:10160000058080800309090601FF2040408080801A
:101610004040200309090601FF804040202020406F
:10162000408005070706000020A8702070A820054C
:1016300005050600012020F820200203030601FF13
:10164000C04080050101060003F802020206010005
:10165000C0C00507070600000810102040408005A4
:101660000707060000708898A8C888700307070657
:10167000010040C040404040E00507070600007000
:101680008808102040F8050707060000F808103009
:1016900008887005070706000010305090F81010F9
:1016A000050707060000F880F0080888700507079E
:1016B000060000304080F0888870050707060000AB
:1016C000F808101020202005070706000070888801
:1016D00070888870050707060000708888780810F1
:1016E00060020505060100C0C000C0C00206060673
:1016F00001FFC0C000C04080030505060101204075
:10170000804020050303060002F800F803050506E3
:101710000101804020408005070706000070881006
:10172000202000200507070600007088B8A8B880B0
:1017300070050707060000708888F8888888050704
:1017400007060000F04848704848F0050707060003
:101750000070888080808870050707060000F048C8
:1017600048484848F0050707060000F88080F080E8
:1017700080F8050707060000F88080F0808080056B
:1017800007070600007088808098887005070706A4
:101790000000888888F8888888030707060100E029
:1017A0004040404040E00507070600003810101098
:1017B0001090600507070600008890A0C0A09088E0
:1017C000050707060000808080808080F8050707F5
:1017D00006000088D8A888888888050707060000C2
:1017E0008888C8A898888805070706000070888838
:1017F00088888870050707060000F08888F08080D8
:101800008005070706000070888888A8906805078B
:1018100007060000F08888F0A090880507070600FA
:101820000070888070088870050707060000F8209F
:101830002020202020050707060000888888888847
:1018400088700507070600008888888850502005A2
:10185000070706000088888888A8A850050707069B
:1018600000008888502050888805070706000088F7
:10187000885020202020050707060000F8081020C7
:101880004080F80309090601FFE0808080808080A5
:1018900080E0050707060000804040201010080384
:1018A00009090601FFE020202020202020E0050378
:1018B000030600052050880501010600FEF8030319
:1018C0000306010580402005050506000070087824
:1018D00088780507070600008080F0888888F00572
:1018E0000505060000708080887005070706000067
:1018F000080878888888780505050600007088F053
:101900008070050707060000304840E04040400571
:1019100007070600FE7088888878087005070706A4
:1019200000008080F088888888030707060100404F
:1019300000C0404040E00409090601FE10003010DC
:10194000101010906005070706000080808890E066
:101950009088030707060100C04040404040E00572
:101960000505060000D0A8A8A8A8050505060000E2
:10197000B0C88888880505050600007088888870CA
:101980000507070600FEF0888888F08080050707B5
:101990000600FE7888888878080805050506000096
:1019A000B0C880808005050506000078807008F0CA
:1019B0000507070600002020F8202020180505054F
:1019C0000600008888889868050505060000888854
:1019D0008850200505050600008888A8A850050540
:1019E0000506000088502050880507070600FE887D
:1019F000888850204080050505060000F81020402A
:101A0000F80309090601FF20404040804040402083
:101A10000109090602FF8080808080808080800329
:101A200009090601FF8040404020404040800503F6
:101A30000306000248A890FF5072696E742050613E
:101A400075736564004C6F61642053657474696ECE
:101A5000677300526573746F7265206661696C7399
:101A60006166650053746F72652053657474696EA6
:101A7000677300507265686561742041425320436A
:101A80006F6E66005072656865617420504C41202D
:101A9000436F6E66004F6666004F6E004F7574614F
:101AA0006765205265636F7665727900416476617F
:101AB0006E6365642053657474696E6773004D616D
:101AC000696E004D313030300053746F70205072A9
:101AD000696E7400526573756D65205072696E741D
:101AE000004F7574616765205265636F7665727922
:101AF000003F004261636B0053746F700050726965
:101B00006E742066726F6D204D65646961004D32A0
:101B100031004368616E6765204D6564696100430B
:101B20006F6E66696775726174696F6E0054656D7A
:101B30007065726174757265004D6F74696F6E00C7
:101B4000526573756D65205072696E74004E6F201A
:101B50004D656469610054756E650053746F702043
:101B60005072696E74005061757365205072696EB1
:101B70007400496E666F2053637265656E003F00A6
:101B80005374617274205072696E740043616E63A5
:101B9000656C005072696E740043616E6E6F7420E4
:101BA000656E746572207375626469723A20000212
:101BB0002E2E004D61696E004D6F74696F6E004D81
:101BC00038340044697361626C65205374657070C9
:101BD00065727300426564204C6576656C696E675A
:101BE00000473238205A00486F6D65205A0047324E
:101BF00038205900486F6D65205900473238205809
:101C000000486F6D65205800473238004175746F89
:101C100020486F6D65004D61696E005072656865A2
:101C2000617420504C4120456E64005072656865B7
:101C3000617420504C4120426564005072656865B3
:101C400061742041425320456E640050726568659E
:101C5000617420414253204265640054656D706593
:101C600072617475726500436F6F6C646F776E009C
:101C70005072656865617420414253005072656816
:101C800065617420504C410046616E20537065655B
:101C900064203D00426564004E6F7A7A6C65004DA9
:101CA00061696E004261627973746570205A004602
:101CB0006C6F770046616E205370656564203D004F
:101CC000426564004E6F7A7A6C6500426564205A02
:101CD000005370656564004D61696E002568753A52
:101CE00025303268750025303268753A2530326803
:101CF0007500256875642025303268753A253032C4
:101D00006875002020202020202000202020200096
:101D10001FE0201020102010102010202010201074
:101D200030300840048003001FE03FF03FF03FF0F8
:101D30001FE01FE03FF03FF03FF00FC007800300BF
:101D40003FFFF038007030FC3020FC10207810206D
:101D500030102C00D02E31D02F7BD02F7BD02E31C5
:101D6000D02C00D020301020781020FC1030FC3017
:101D70003800703FFFF03FFFF038007031863023AD
:101D800087102787902F87D02F03D02030102078FE
:101D9000102078102030102F03D02F87D027879065
:101DA0002387103186303800703FFFF01FFFF81F87
:101DB000FFF8041040020820020820041040082008
:101DC00080104100104100082080041040000000F5
:101DD0001FFFF81FFFF84D656469612052656D6F44
:101DE000766564004D6564696120496E736572743F
:101DF00065640044616E2773205468696E6B657278
:101E00002056322028302E31292052656164792EE7
:101E1000005072696E74696E672E2E2E00507269C2
:101E20006E742041626F72746564004D32350050EB
:101E300061757365205072696E74000000964300EE
:101E40000096430000C843000000000000000000AE
:101E5000000000290A002062797465733B206372D8
:101E600063200053657474696E67732053746F72D6
:101E70006564202800454550524F4D2064617461CF
:101E800073697A65206572726F722E0A00290A00E2
:101E90002062797465733B20637263200020737441
:101EA0006F7265642073657474696E677320726500
:101EB00074726965766564202800202863616C630C
:101EC000756C6174656429210A0020213D2000455C
:101ED0004550524F4D20435243206D69736D6174DC
:101EE0006368202D202873746F7265642920002098
:101EF00053697A653A2000496E6465783A2000207B
:101F00004D61726C696E3D563734290A0045455063
:101F1000524F4D2076657273696F6E206D69736DD7
:101F2000617463682028454550524F4D3D0048611B
:101F30007264636F6465642044656661756C7420C7
:101F400053657474696E6773204C6F616465640ACD
:101F50000000009643000096430000A0400000C827
:101F6000410000A0420000A0420000C8430000BAA7
:101F700042DC050000DC05000032000000DC05004A
:101F80000020204D343133205300506F7765722D7F
:101F90004C6F7373205265636F766572793A0A00ED
:101FA00020440020490020204D33303420500020B0
:101FB000440020490020204D33303120500050494A
:101FC000442073657474696E67733A0A0020460092
:101FD00020420020480020204D3134352053004D50
:101FE0006174657269616C206865617475702070D8
:101FF0006172616D65746572733A0A002020473220
:102000003920533320580020204D343230205300E3
:102010004D65736820426564204C6576656C696E19
:10202000673A0A0020204D323036205800486F6D44
:1020300065206F66667365743A0A00205800205464
:102040000020530020204D32303520420020453CF6
:102050006D61785F655F6A65726B3E0020583C6D0C
:1020600061785F785F6A65726B3E20593C6D61787C
:102070005F795F6A65726B3E205A3C6D61785F7A6A
:102080005F6A65726B3E00416476616E6365643AB7
:1020900020423C6D696E5F7365676D656E745F7439
:1020A000696D655F75733E20533C6D696E5F666553
:1020B0006564726174653E20543C6D696E5F747234
:1020C0006176656C5F66656564726174653E00206B
:1020D000540020520020204D323034205000416303
:1020E00063656C65726174696F6E2028756E6974C2
:1020F000732F7332293A20503C7072696E745F619D
:102100006363656C3E20523C726574726163745FF8
:10211000616363656C3E20543C74726176656C5FEC
:10212000616363656C3E0A0020204D3230312058D7
:10213000004D6178696D756D20416363656C6572F2
:102140006174696F6E2028756E6974732F733229FC
:102150003A0A0020204D3230332058004D61786912
:102160006D756D2066656564726174657320287590
:102170006E6974732F73293A0A0053746570732063
:1021800070657220756E69743A0A0020204D3230F5
:10219000302044300A0020204D32303020440020CE
:1021A00044697361626C65640A0046696C616D65BF
:1021B0006E742073657474696E67733A0020204DE5
:1021C0003134392043203B20556E69747320696E89
:1021D0002043656C736975730A0020286D6D2900B2
:1021E0002020473231202020203B20556E69747317
:1021F00020696E206D6D006F70656E005452494706
:102200004745524544003A20007A5F6D696E007977
:102210005F6D696E00785F6D696E005265706F72F8
:1022200074696E6720656E6473746F702073746177
:102230007475730A00205A3A0020593A0020436FFF
:10224000756E7420583A0020453A00205A3A002012
:10225000593A00583A0020746F6F206C6F6E6720F7
:10226000657874727573696F6E2070726576656ECD
:102270007465640A0020636F6C64206578747275FD
:1022800073696F6E2070726576656E7465640A009E
:10229000486F6D696E67204661696C656400000077
:1022A00000000000000000000000000048420000A4
:1022B0004842000080405761726E696E673A20485C
:1022C0006F6D696E672042756D7020446976697321
:1022D0006F72203C20310A000202040000A040007E
:1022E00000A040000000400000964300009643001C
:1022F00000C843FFFFFF24F4D43050C38E20C2A295
:102300004017828B7011127A910D816CD90AA861E5
:10231000E108C7586607615143061E4B5D05C1457C
:10232000A7041A411104093D98037139310340365D
:10233000DB0265339102D4305402802E1D02632CDF
:10234000EE01752AC501B028A001102781018F2553
:1023500064012B244B01E0223401AC211F018D20AC
:102360000D01801FFC00841EED00971DDF00B81CCE
:10237000D200E61BC600201BBC00641AB200B219D2
:10238000A8000A19A0006A189900D11791004017F7
:102390008B00B516840031167E00B31579003A150E
:1023A0007300C7146F0058146A00EE136600881398
:1023B000630025135E00C7125B006C1257001512F4
:1023C0005400C111510070114F0021114B00D61063
:1023D00049008D1047004610440002104200C00F13
:1023E0004000800F3E00420F3C00060F3B00CB0E2A
:1023F0003800930E37005C0E3500270E3400F30DC5
:102400003200C10D3100900D3000600D2E00320DF4
:102410002D00050D2C00D90C2B00AE0C2900850CCD
:1024200029005C0C2700350C27000E0C2600E80B59
:102430002400C40B2400A00B23007D0B23005A0BA7
:102440002100390B2100180B2000F80A1F00D90ABF
:102450001E00BB0A1E009D0A1D00800A1D00630AA3
:102460001C00470A1B002C0A1B00110A1A00F7095E
:102470001A00DD091900C4091900AB0919009209F5
:1024800017007B091800630917004C09160036096C
:102490001600200916000A091500F5081500E008C5
:1024A0001400CC081400B8081400A4081400900804
:1024B00013007D0812006B0813005808120046082C
:1024C000120034081100230811001208110001083D
:1024D0001100F0071000E0071000D0071000C0073F
:1024E0001000B0070F00A107100091070E0083072E
:1024F0000F0074070F0065070E0057070E0049070D
:102500000E003B070D002E070E0020070D001307DD
:102510000D0006070D00F9060C00ED060D00E006A3
:102520000C00D4060C00C8060C00BC060C00B0065B
:102530000C00A4060B0099060C008D060B00820609
:102540000B0077060B006C060B0061060A005706AD
:102550000B004C060A0042060A0038060A002E0646
:102560000A0024060A001A060A00100609000706D7
:102570000A00FD050900F4050900EB050900E20564
:102580000900D9050900D0050900C7050900BE05E5
:102590000900B5050800AD050800A50509009C0562
:1025A0000800940508008C050800840508007C05D7
:1025B0000800740508006C050700650508005D0546
:1025C0000700560508004E050700470507004005AF
:1025D000080038050700310507002A050700230514
:1025E00007001C050600160507000F050700080573
:1025F000060002050700FB040600F5040700EE04D0
:102600000600E8040600E2040700DB040600D50427
:102610000600CF040600C9040600C3040600BD047A
:102620000600B7040600B1040500AC040600A604C9
:102630000600A00405009B04060095040500900414
:1026400006008A04050085040500800406007A045B
:10265000050075040500700405006B0405006604A0
:102660000500610405005C040500570405005204E0
:1026700005004D04050048040500430405003E0420
:1026800004003A04050035040500300404002C045D
:10269000050027040400230405001E0404001A0496
:1026A000040016040500110404000D0404000904CC
:1026B00005000404040000040400FC030400F80303
:1026C0000400F4030400F0030400EC030400E80336
:1026D0000400E4030400E0030400DC030400D80366
:1026E0000400D4030400D0030400CC030400C80396
:1026F0000300C503030024F404D9201BC40C5C0EA2
:102700009804C4095F0265077101F405F900FB0430
:10271000B30048048700C103690058035500030350
:102720004500BE023A008402310053022A00290209
:10273000250004022000E4011C00C8011900AF01BB
:102740001700980114008401130071011000610149
:10275000100051010E0043010D0036010B002B014A
:102760000B0020010B00150109000C0109000301F9
:102770000800FB000800F3000800EB000700E4007D
:102780000600DE000600D8000600D2000600CC00DD
:102790000500C7000500C2000500BD000400B90027
:1027A0000400B5000400B1000400AD000400A9005D
:1027B0000400A5000300A20003009F0004009B008A
:1027C00003009800030095000200930003009000AE
:1027D00003008D0002008B000300880002008600C9
:1027E000020084000300810002007F0002007D00DF
:1027F00002007B00020079000200770001007600F1
:1028000002007400020072000100710002006F00FB
:1028100002006D0001006C0002006A000100690006
:10282000020067000100660001006500010064000D
:1028300002006200010061000100600001005F0011
:1028400002005D0001005C0001005B0001005A0015
:102850000100590001005800010057000100560016
:102860000100550001005400010053000000530016
:1028700001005200010051000100500001004F0012
:1028800001004E0000004E0001004D0001004C0010
:1028900001004B0000004B0001004A00010049000C
:1028A0000100480000004800010047000100460008
:1028B0000000460001004500000045000100440002
:1028C00001004300000043000100420000004200FC
:1028D00001004100000041000100400001003F00F4
:1028E00000003F0001003E0000003E0001003D00EE
:1028F00000003D0001003C0000003C0000003C00E6
:1029000001003B0000003B0001003A0000003A00DB
:1029100001003900000039000100380000003800D3
:1029200000003800010037000000370001003600C9
:1029300000003600000036000100350000003500C0
:1029400000003500010034000000340000003400B5
:1029500001003300000033000000330001003200AA
:1029600000003200000032000100310000003100A0
:102970000000310001003000000030000000300095
:1029800001002F0000002F0000002F0000002F008A
:1029900001002E0000002E0000002E0001002D007E
:1029A00000002D0000002D0000002D0001002C0073
:1029B00000002C0000002C0000002C0001002B0067
:1029C00000002B0000002B0000002B0001002A005B
:1029D00000002A0000002A0000002A00010029004F
:1029E0000000290000002900000029000000290043
:1029F0000100280000002800000028000000280036
:102A00000000280001002700000027000000270028
:102A1000000027000000270001002600000026001B
:102A2000000026000000260000002600010025000E
:102A30000000250000002500000025000000250002
:102A400000002500010024000000240000002400F4
:102A500000002400000024000100230000002300E7
:102A600000002300000023000000230000002300DA
:102A700000002300010022000000220000002200CC
:102A800000002200000022000000220001002100BE
:102A900000002100000021000000210000002100B2
:102AA00000002100000021000100200000002000A3
:102AB0000000200000002000000020000000200096
:102AC000000020000000200001001F0000001F0087
:102AD00000001F0000001F0000001F0000001F007A
:102AE00000001F0001001E0000001E0000001E006C
:102AF00000001E000000043700001E290000511BCA
:102B000000005810000010090000CC0400007802FA
:102B10000000410100004D6963726F73746570734A
:102B200020756E617661696C61626C650A00453181
:102B30003A200045303A20005A3A2000593A200005
:102B40004D53312C4D53322C4D53332050696E73FD
:102B50000A583A200000426564004531006265640D
:102B6000002C2073797374656D2073746F707065B9
:102B70006421204865617465725F49443A200048C9
:102B8000656174696E67206661696C65640054688C
:102B900065726D616C2052756E6177617900486570
:102BA0006174696E67204661696C6564004865619F
:102BB00074696E67206661696C656400546865724B
:102BC0006D616C2052756E61776179005448455291
:102BD0004D414C2052554E41574159005468657241
:102BE0006D616C2052756E61776179004572723A41
:102BF000204D415854454D50004D415854454D507D
:102C000020747269676765726564004572723A2064
:102C10004D494E54454D50004D494E54454D502060
:102C2000747269676765726564004D383420582096
:102C300059205A204500202F002042403A002040D1
:102C40003A0020573A0020573A00496E76616C6985
:102C5000642065787472756465720A007C3C3E5E1F
:102C60002B3D3F2F5B5D3B2C2A225C0040012C0159
:102C700073012201AB011801F3010E0148020401A6
:102C8000AC02FA002A03F000C303E6008004DC0073
:102C90006D05D2006C06C800C707BE007009B400FD
:102CA0006D0BAA00CB0DA000CF138C00F21B780097
:102CB000E9246400142E50009C353C00B83A2800EA
:102CC000A03D14000B3F000043616E6E6F74206FD7
:102CD00070656E20737562646972200053442063CE
:102CE000617264206F6B0A006F70656E526F6F7453
:102CF000206661696C65640A00766F6C756D652E7F
:102D0000696E6974206661696C65640A00534420C9
:102D1000696E6974206661696C0A004D3234004D39
:102D200032332025730057726974696E6720746F9F
:102D30002066696C653A20002E0A006F70656E206F
:102D40006661696C65642C2046696C653A20002ECA
:102D50000A006F70656E206661696C65642C2046A0
:102D6000696C653A200046696C652073656C656323
:102D70007465640A002053697A653A200046696CDC
:102D800065206F70656E65643A20006672657368D1
:102D900000646F696E67002066696C653A20004EBA
:102DA0006F772000454E4420535542524F555449A9
:102DB0004E450A002220706F7300222070617265F8
:102DC0006E743A2200535542524F5554494E452095
:102DD00043414C4C207461726765743A22007472EE
:102DE00079696E6720746F2063616C6C2073756203
:102DF0002D67636F64652066696C657320776974FD
:102E00006820746F6F206D616E79206C6576656CDB
:102E1000732E204D4158206C6576656C2069733A9D
:102E2000310A002E0A0044656C6574696F6E206675
:102E300061696C65642C2046696C653A20004669BE
:102E40006C652064656C657465643A0057726974DA
:102E5000696E6720746F2066696C653A20002E0ADF
:102E6000006F70656E206661696C65642C20466930
:102E70006C653A2000642E0A00206661696C656406
:102E80002E0A00506F7765722D6C6F737320666920
:102E90006C652064656C6574650000002200250087
:102EA00028002B002E003100340002010000050133
:102EB00008010B01000020002300260029002C003F
:102EC0002F0032000001000003010601090100008B
:102ED0000A0B02090C0D0E08070304010000000094
:102EE00000000000000000000000000000000000E2
:102EF000000000000000000000001211100000009F
:102F000000000000000000000000000000000000C1
:102F100000000000687474703A2F2F6D61726C6944
:102F20006E66772E6F726700322E302E780001FFAA
:102F3000FFFFFFFFFFFFFFFFFFFFFFFF0FFFFFFF91
:102F4000FFFFFFFFFFFFFFFFFFFF1E00000000006D
:102F5000000000000007FFFF380000000000000034
:102F600000000003FFFF70000000000000000000F0
:102F70000001FFFF600000000000000000000000F2
:102F8000FFFF6000000000000000000000007FFF65
:102F9000C000000000000000007800003FFFC00FEC
:102FA000C0FC00000000007818001FFFC03FE1FFD8
:102FB0000000000000783C000FFFC07FF3FF80009E
:102FC000000000783C0007FFC0FFFFFFC0000000CA
:102FD00000783C0003FFC1F87F87E0000000007824
:102FE000000001FFC1F03F03E00000000078000096
:102FF00000FFC1E01E01E01F0003E0783C03F07F0A
:10300000C1E01E01E07FC00FF8783C07FC3FC1E043
:103010001E01E1FFE01FFC783C0FFE1FC1E01E0116
:10302000E3FFF03FFE783C1FFE0FC1E01E01E3F31B
:10303000F83F3E783C3F3F07C1E01E01E7E0FC7CE3
:103040001F783C3E1F07C1E01E01E7C07C7C0F7863
:103050003C3C0F03C1E01E01E7807C780F783C3CCC
:103060000F03C1E01E01E7803C7800783C3C0F0371
:10307000C1E01E01E7803C7800783C3C0F03C1E0D2
:103080001E01E7803C7800783C3C0F03C1E01E0144
:10309000E7C03C7800783C3C0F03C1E01E01E3E050
:1030A0003C78007C3C3C0F03C1E01E01E3FF3FF88D
:1030B000007FBC3C0F03C1E01E01E1FF3FF8003F71
:1030C000BFFC0F03C1E01E01E0FF3FF8001FBFFC83
:1030D0000F03C1E01E01E07F3FF8000FBFFC0F03AC
:1030E0006000000000000000000000000007600019
:1030F000000000000000000000000006700000005A
:103100000000000000000000000E38000000000079
:10311000000000000000001C1E0000000000000075
:103120000000000000780FFFFFFFFFFFFFFFFFFF21
:10313000FFFFFFF001FFFFFFFFFFFFFFFFFFFFFFAC
:10314000FF8000002100240027002A002D0030000D
:10315000330001010000040107010A0101021020EF
:1031600020080810204010204080020102010804BD
:103170000201010204081020408080402010080451
:1031800002018004020180402010080402010804AA
:1031900002010102040810204080010204081020EE
:1031A0004080050505050705080808080202020217
:1031B0000A0A0808040404040101010101010101D3
:1031C0000303030303030303040707070C0C0C0C9E
:1031D0000C0C0C0C02020202060606060606060687
:1031E0000B0B0B0B0B0B0B0B4D3130303020530006
:1031F000205049445F64543A0020643A00206969D1
:103200003A0020703A002020506C616E6E65724268
:10321000756666657242797465733A20002046725D
:103220006565204D656D6F72793A2000436F6D7052
:10323000696C65643A204D61792020352032303246
:10324000300A00204C6173742055706461746564A9
:103250003A20323031392D31322D3031207C20412D
:103260007574686F723A20286E6F6E652C206465E5
:103270006661756C7420636F6E666967290A003237
:103280002E302E780A004D61726C696E0020536FEB
:103290006674776172652052657365740A00205701
:1032A00061746368646F672052657365740A0020F7
:1032B00042726F776E206F75742052657365740A61
:1032C000002045787465726E616C20526573657478
:1032D0000A00506F77657255700A007374617274DA
:1032E0000A006175746F25632E670047323858599C
:1032F000006572726F722077726974696E672074EC
:103300006F2066696C650A00446F6E652073617694
:10331000696E672066696C652E0A004D323900457A
:103320006E6473746F7073002553202563202563CA
:1033300020256320256300205A3A0020593A0020B6
:10334000583A00656E6473746F7073206869743ADC
:1033500020004D6F76652025736D6D00004D6F76F2
:103360006520302E316D6D004D6F766520316D6DAD
:10337000004D6F76652031306D6D004D6F766520A4
:103380004178697300486F74656E6420746F6F20B4
:10339000636F6C64004578747275646572004D6F7C
:1033A0007665205A004D6F76652059004D6F766521
:1033B0002058005072696E742066726F6D204D65E2
:1033C00064696100486F6D6520257325732573203E
:1033D000466972737400220A00556E6B6E6F776EC9
:1033E00020636F6D6D616E643A20220020746F6FF0
:1033F000206C6F6E6720657874727573696F6E20CC
:1034000070726576656E7465640A0020636F6C6423
:1034100020657874727573696F6E20707265766559
:103420006E7465640A00204500205A00205900206F
:103430004D39322058002E0A006F70656E2066618B
:10344000696C65642C2046696C653A2000009A001E
:10345000980011241FBECFEFD1E2DEBFCDBF00E048
:103460000CBF13E0A0E0B2E0EAEAFFE302E00BBF2A
:1034700002C007900D92A833B107D9F725E1A8E360
:10348000B3E001C01D92AE3DB207E1F71AE1C8E218
:10349000DAE100E006C021970109802FFE010F94B8
:1034A000361FC732D10780E00807A9F70F94070B32
:1034B0000D94C41F0C9400000C947323CF93DF93DE
:1034C000EC01CB01BA010F94A71520E030E048ECE5
:1034D00051E40F9406160F94721D688379838A83D2
:1034E0009B83DF91CF910895CF93DF93EC01CB01C4
:1034F000BA010F94A7152AE037ED43E25CE30F947D
:103500000616688379838A839B83DF91CF91089520
:10351000CF93DF93EC01CB01BA010F94A7152AE0FA
:1035200037ED43E25CE30F940616688379838A8360
:103530009B83DF91CF910895CF93DF93EC01CB0173
:10354000BA010F94A7152DEC3CEC4CEC5DE30F9405
:103550000616688379838A839B83DF91CF910895D0
:10356000CF93DF93EC01CB01BA010F94A71520E0B4
:1035700030E048EC51E40F940616688379838A831F
:103580009B83DF91CF910895CF93DF93EC01CB0123
:10359000BA010F94A715688379838A839B83DF918F
:1035A000CF910895CF93DF93EC01CB01BA010F9433
:1035B000A715688379838A839B83DF91CF910895D0
:1035C000CF93DF93EC01CB01BA010F94A7152FE63F
:1035D00032E143E85AE30F940616688379838A83BD
:1035E0009B83DF91CF910895CF93DF93EC01CB01C3
:1035F000BA010F94A7150F946D1D79836883DF912D
:10360000CF910895CF93DF93EC01CB01BA010F94D2
:10361000A71523E333E343E250E40F9406160F9417
:10362000721D6883DF91CF910895FC018491089504
:10363000FC0180810895909105019470909303019D
:1036400087FD68C0A3989091050190959470909320
:1036500003019091050194709093030186FD66C06B
:10366000A398909105019095947090930301909187
:10367000050194709093030185FD56C0A398909125
:1036800005019095947090930301909105019470B9
:103690009093030184FD46C0A398909105019095F5
:1036A000947090930301909105019470909303019D
:1036B00083FD36C0A39890910501909594709093E6
:1036C00003019091050194709093030182FD26C03F
:1036D000A398909105019095947090930301909117
:1036E000050194709093030181FD16C0A398809109
:1036F0000501809584708093030180910501847099
:1037000080930301A3988091050180958470809334
:1037100003010895A39A97CFA39AE9CFA39AD9CF8B
:10372000A39AC9CFA39AB9CFA39AA9CFA39A99CFA5
:10373000089590E080E0089590912508292F30E0C9
:10374000F901ED56FD4E8083220F331F220F331FE8
:10375000F901E45DF54F40912A0450912B046091EA
:103760002C0470912D0440835183628373839F5F87
:10377000943040F4909325088091A9098F5F80933D
:10378000A909089510922508F7CF282F90910404D5
:10379000833021F495FD0FC094FD0FC0892F90E078
:1037A000B0E0A0E004C0B695A795979587952A95B7
:1037B000D2F78170089581E0089580E00895CF9256
:1037C000DF92EF92FF92CF93DF93EC016A017B01CE
:1037D00027E137EB41ED58EBCB01B6010F944F1EBB
:1037E00087FD23C023E030E046E953E4C701B6017A
:1037F0000F94A1151816CCF0C880D980EA80FB8000
:1038000027E137EB41ED58EBC701B6010F944F1E8E
:1038100087FD0BC0C1E023E030E046E953E4C70177
:10382000B6010F94A11518160CF4C0E08C2FDF918F
:10383000CF91FF90EF90DF90CF900895149A089564
:103840000F94A7150F946D1DCB010C9436B2CF9237
:10385000DF92EF92FF926B017C0120E030E0A90142
:103860000F94A11520E030E040E05FE387FF04C043
:1038700020E030E040E05FEBC701B6010F94291C67
:103880000F946D1DCB01FF90EF90DF90CF900C94C3
:1038900036B20F94A715DBCF0F94A71523E333E3BC
:1038A00043E250E40F9406160F94721D862F0C9479
:1038B0007CB8CF93DF9300D01F92CDB7DEB70F94C3
:1038C000A7152FE632E143E85AE30F940616698301
:1038D0007A838B839C8360E2CE0101960E9429AF9C
:1038E0000F900F900F900F90DF91CF9108952F922E
:1038F0003F924F925F926F927F928F929F92AF9280
:10390000BF92CF92DF92EF92FF920F931F93CF93CC
:10391000DF93D62FC72FFC0180809180A280B380D7
:10392000C501B40120E831E541E050E00F94CB1B24
:10393000C9016DE671E00F940F1F6B017C01C50199
:10394000B40120E13EE040E050E00F94CB1BCA01FF
:10395000B90128E130E040E050E00F94CB1B362E57
:10396000272E062F172F8CE3482E512C612C712CFB
:10397000C501B401A30192010F94CB1BB62EA72E53
:10398000CA01B901A30192010F94CB1BCB01C11451
:10399000D10479F1AF92BF927F936F932F923F92B0
:1039A000FF92EF92DF92CF928DE990E19F938F93F8
:1039B000CF93DF930F943A158DB79EB70E960FB63F
:1039C000F8949EBF0FBE8DBF8D2F9C2FDF91CF919E
:1039D0001F910F91FF90EF90DF90CF90BF90AF902D
:1039E0009F908F907F906F905F904F903F902F901F
:1039F0000895E114F104C9F0AF92BF927F936F93E1
:103A00002F923F92FF92EF928DE890E19F938F93D8
:103A1000CF93DF930F943A15EDB7FEB73C960FB6F0
:103A2000F894FEBF0FBEEDBFCFCF012BB9F0AF9220
:103A3000BF927F936F932F923F9281E890E19F9383
:103A40008F93CF93DF930F943A158DB79EB70A9655
:103A50000FB6F8949EBF0FBE8DBFB6CF892BA9F0CD
:103A6000AF92BF927F936F9389E790E19F938F937B
:103A7000CF93DF930F943A15EDB7FEB738960FB694
:103A8000F894FEBF0FBEEDBF9FCFAF92BF9285E708
:103A900090E19F938F93CF93DF930F943A150F90FC
:103AA0000F900F900F900F900F908ECFEF92FF928C
:103AB0000F931F938FEBE82E83E1F82E10E000E0C8
:103AC00022ED33E141E252E261EC73E188EC93E1F3
:103AD0000E9450F61F910F91FF90EF9008950C9463
:103AE00095960C9495960C9495960C949596CF93E8
:103AF000DF9300D01F92CDB7DEB70F94A7152DEC42
:103B00003CEC4CEC5DE30F94061669837A838B835F
:103B10009C83CE0101960E9453AD0F900F900F90A1
:103B20000F90DF91CF910895CF93DF9300D01F9234
:103B3000CDB7DEB70F94A7152AE037ED43E25CE37B
:103B40000F94061669837A838B839C83CE0101963A
:103B50000E9404AE0F900F900F900F90DF91CF91C5
:103B600008950C9447960C9447960C9447960C94A1
:103B70004796CF93DF9300D01F92CDB7DEB70F9457
:103B8000A71520E030E048EC51E40F940616698355
:103B90007A838B839C83CE0101960E94A3AE0F9003
:103BA0000F900F900F90DF91CF910895CF93DF93F7
:103BB00000D01F92CDB7DEB70F94A71569837A8323
:103BC0008B839C83CE0101960E94A3AE0F900F9031
:103BD0000F900F90DF91CF910895CF93DF9300D096
:103BE0001F92CDB7DEB70F94721D0F94A515698390
:103BF0007A838B839C83CE0101960E94A3AE0F90A3
:103C00000F900F900F90DF91CF9108950F94A7150B
:103C100020E030E048EC51E40F940616DECFCF935D
:103C2000DF9300D01F92CDB7DEB70F94A7152AE01F
:103C300037ED43E25CE30F94061669837A838B8346
:103C40009C83CE0101960E9402B10F900F900F90BD
:103C50000F90DF91CF910895AF92BF92CF92DF92F4
:103C6000EF92FF920F931F93CF93DF936B01E901C4
:103C70004A3009F4ADC0453109F062C0DB0112964B
:103C8000ED91FC91F280C681D781A49A88E28A9551
:103C90000000E9F7BF2CB29420EFB22230E1A32E4E
:103CA000AF0C48E2E42E88EFC6DC8E2D8A9500002A
:103CB000E9F7BFE1BF1508F47AC08F2D80778068DF
:103CC000BADC8B2DB8DC8E2D8A950000E9F780E8F0
:103CD000B2DC80E0B0DC8E2D8A950000E9F78AEF37
:103CE000AADC8E2D8A950000E9F78E01005F1F4F38
:103CF0008881807FA0DC89918295807F9CDCC017C1
:103D0000D107B1F78E2D8A950000E9F7F394E0E131
:103D1000BE0EFA10C8CFA498D6011296CD91DC91B0
:103D2000CE010E9452F4811111C2DF91CF911F91F7
:103D30000F91FF90EF90DF90CF90BF90AF900895DC
:103D4000FB0102811381423309F4BBC108F4BFC1F6
:103D5000463409F4ACC1473409F4AFC14B3329F5FB
:103D600089812B81D80112966C91129713964C91F0
:103D7000213009F402C2233009F0CCC138EF380FEA
:103D8000582F91E0431708F490E041E0531708F0F2
:103D900040E031E0561708F430E0592F542B35231A
:103DA00009F0E0C1942309F0DDC181E0BECF80EECF
:103DB0008F0D8068807F3FDC8F2D8295807F3BDC7C
:103DC0008E2D8A950000E9F780E835DC80E882CF07
:103DD0009C9AA4989B9AA3988091040184608093F4
:103DE0000401809105018095847080930301A49A59
:103DF00088E28A950000E9F788E790E0CEE9DFE005
:103E0000FE013197F1F70197D9F788EF14DC18E23A
:103E1000812F8A950000E9F780E20DDC80E00BDC61
:103E2000812F8A950000E9F780E005DC80E803DC5B
:103E3000812F8A950000E9F780E0FDDB80E1FBDB64
:103E4000812F8A950000E9F7CE010197F1F7CE01A5
:103E50000197F1F7CE010197F1F7CE010197F1F744
:103E6000CE010197F1F7CE010197F1F7CE0101974D
:103E7000F1F7CE010197F1F7CE010197F1F7CE01ED
:103E80000197F1F7CE010197F1F7CE010197F1F714
:103E9000CE010197F1F7CE010197F1F72197F1F7E4
:103EA00080E2C9DB80E4C7DB812F8A950000E9F757
:103EB00080E2C1DB80E6BFDB1A950000E9F710E085
:103EC000D0E0C8E28D2F80778068B5DB812FB3DB2F
:103ED0008C2F8A950000E9F780E8ADDB80E0ABDB52
:103EE0008C2F8A950000E9F78AEFA5DB8C2F8A9545
:103EF0000000E9F790E2809105018470809303014E
:103F0000A39880910501809584708093030180912E
:103F10000501847080930301A39880910501809529
:103F20008470809303018091050184708093030164
:103F3000A3988091050180958470809303018091FE
:103F40000501847080930301A398809105018095F9
:103F50008470809303018091050184708093030134
:103F6000A3988091050180958470809303018091CE
:103F70000501847080930301A398809105018095C9
:103F80008470809303018091050184708093030104
:103F9000A39880910501809584708093030180919E
:103FA0000501847080930301A39880910501809599
:103FB00084708093030180910501847080930301D4
:103FC000A39880910501809584708093030180916E
:103FD0000501847080930301A39880910501809569
:103FE00084708093030180910501847080930301A4
:103FF000A39880910501809584708093030180913E
:104000000501847080930301A39880910501809538
:104010008470809303018091050184708093030173
:10402000A39880910501809584708093030180910D
:104030000501847080930301A39880910501809508
:104040008470809303018091050184708093030143
:10405000A3988091050180958470809303018091DD
:104060000501847080930301A398809105018095D8
:104070008470809303018C2F8A950000E9F791509A
:1040800009F039CF88EFD7DA8C2F8A950000E9F74D
:10409000DF5F105FD03209F015CF80E0CCDA80EC22
:1040A000CADACA950000E9F7A49881E03ECED801AB
:1040B00015968C91888381E038CEF80181818883C0
:1040C000FACFB901C8010E943CF481E02ECE443100
:1040D00071F0473109F069CE1882F8018281898335
:1040E000858181508A8383818B8381E01ECED801B4
:1040F00015964C91159750E0440F551F70E060E005
:1041000016968D919C910F945C1FC8010E9468F4D3
:1041100081E00BCE481708F448CE861708F445CE48
:10412000FA80E12CD12C243070F41DC0BE01C801EE
:104130000E943CF4898198819D0D98838E0D89831E
:10414000FF0C09F432CEF7FEF6CFF0CF4D8150E0F0
:10415000440F551F70E060E08E819F810F945C1FBB
:1041600081E0E3CDFA8030E0F901EF57FD4FD080D8
:1041700023583D4FF901E080E6CF58E0580F382F23
:1041800000CEDF92EF92FF920F931F93CF93DF93B6
:10419000EC01D62E1CAD0BAD7C0184E0E80EF11CC9
:1041A000E98DFA8DC7011995412F480F2D2D602FEC
:1041B000C7010E9468F89BAD890F8BAF81E090E04A
:1041C000DF91CF911F910F91FF90EF90DF900895B5
:1041D0008F929F92AF92BF92CF92DF92EF92FF9217
:1041E0000F931F93CF93DF93EC018B017A018A85A4
:1041F0009B858617970731F0888199810E9442F745
:104200001B870A8788859985019641F50C81DA809C
:104210008E81D80EA880B980D5015596ED91FC917C
:10422000C5011995080F10E0F70121917F012111B7
:104230004FC08E819F81810F911D9F838E8390E05F
:1042400080E0DF91CF911F910F91FF90EF90DF9071
:10425000CF90BF90AF909F908F900895CE80DF80D9
:10426000F701008110E0002321F1A880B980602FC0
:10427000C5010E949AF7D50151961C9111954701ED
:10428000BFEF8B1A9B0AF40181914F01882351F0F3
:10429000D50150969C91190F082F682FC5010E94D7
:1042A0009AF7F1CF003281F0F50183899189890F66
:1042B000180FC10ED11C288539852C153D0508F035
:1042C000A5CF81E090E0BDCFD50150968C91F0CF85
:1042D000402F6D2DC5010E9468F8D80E180FA4CF8D
:1042E000EF92FF920F931F93CF93DF93CDB7DEB77B
:1042F0002C970FB6F894DEBF0FBECDBF1091901271
:10430000009191122091FB0421111BC04BE852E156
:10431000602F812F0E94D2F890E080E0180F109358
:1043200090120093911299272C960FB6F894DEBF45
:104330000FBECDBFDF91CF911F910F91FF90EF90F6
:104340000895E0905D12F0905E1229E532E13A8323
:104350002983212F30E03C832B83202F30E03E83C4
:104360002D8318861F827A8769871C861B869E018B
:104370002F5F3F4F45E15BE1BC01C7010E948BDD30
:10438000B70189E592E10E9442F78F819885C6CFF7
:10439000AB01BC014093C6125093C7126093C81280
:1043A0007093C9128BE294E10C9435FE8091F30373
:1043B0009091F403009731F04AE050E070E060E043
:1043C0000D94D41360E070E0CB0108958091F30365
:1043D0009091F403009731F04AE050E070E060E023
:1043E0000D94A71260E070E0CB010895EFDFCB01E0
:1043F0000895CF93DF93CDB7DEB720E24885598586
:104400006F818E810E941AEEDF91CF91089563E94A
:1044100072E084E690E00E9403B96AEB72E084E601
:1044200090E00C9403B98111F2CF68EB71E084E164
:1044300090E00C9403B90E944BA8F5CF0E94B6D728
:10444000F2CFCF930E94D1CB0E944BA8C82F8823D4
:1044500019F080E00E94C5CE8C2FCF91E4CF8091DF
:10446000251290912612891B8F7051F48091A2051C
:10447000813031F08091CA1282FB882780F908953B
:1044800081E008958F929F92AF92BF92EF92FF9238
:104490000F931F93CF93DF93EC018B01E42EF22E49
:1044A00080915312909154128C179D07C9F124ECFE
:1044B000C734D20709F03FC08B56924B71F40E946B
:1044C00048F36E517B4F8F4F9F4F6093E30470937F
:1044D000E4048093E5049093E604D0935412C093CF
:1044E000531230E020E00093C9091093CA092093C9
:1044F000CB093093CC09E092C109F092C209CB56A6
:10450000D24B21F41092FC041092E20482E08093DA
:10451000620281E08093D9091092FD041092C009D3
:10452000DF91CF911F910F91FF90EF90BF90AF90CF
:104530009F908F90089522EBCB36D20771F6875467
:10454000944C19F0CBE6D2EBC8CF0E9448F3809090
:10455000E3049090E404A090E504B090E6046819A8
:1045600079098A099B0997FFEDCFC091170877DF7A
:10457000882341F3C770C73029F7CBE6D3E8ADCF26
:1045800081E08093FC041092180A20E040E070E083
:1045900060E083ED92E276DF88E09CE1909327086B
:1045A00080932608089580916202882331F041E0CB
:1045B00069E874E182E00E94DCED8091180A87705E
:1045C000873039F420E040E070E060E082E093E280
:1045D00059CF089520E040E070E060E08BEF98E272
:1045E00051DF81E08093F3048091F404811107C0CE
:1045F0008CE694E19093270880932608089583E73A
:1046000094E1F8CF80916202882331F041E06AE7BB
:1046100074E181E00E94DCED8091BF091092BF0936
:10462000882319F01092F404D5CF0895CF93DF9327
:1046300080916202882341F060910105709102052A
:1046400041E081E00E94DCED8091FE0481111AC0FE
:1046500081E08093FE04C0915312D091541220E067
:1046600040E070E060E086E193E20CDF0E94B896E3
:104670001092FE0420E040E070E060E0CE01DF91A7
:10468000CF9100CFDF91CF910895E091E204E63021
:1046900010F581E08E0F8093E2044091C90950919A
:1046A000CA096091CB097091CC099091C1098091A0
:1046B000C20928E0E29FF0011124EE54FB4F209143
:1046C0005312309154123183208342835383648385
:1046D000758396838783089520E040E070E060E072
:1046E0008BE692EBCFCEE091E204EE2381F0E15035
:1046F000E093E20488E0E89FF0011124EE54FB4FC0
:10470000628173812781468180819181BBCEE4CF14
:104710008091F304811104C01092FC04E4DF77DE81
:1047200080916202882331F041E06CE374E181E022
:104730000E94DCED82E08093620208956F927F9286
:104740008F929F92AF92BF92CF92DF92EF92FF92A1
:104750000F931F93CF93DF930E940EF1C091C10975
:104760001C2F85E0782E7C0E04E00C1B83E0F82ED5
:10477000FC1A82E0E82EEC1A9DECA92E93E1B92EEA
:104780002DE1C22E24E1D22E81E0982E9C1A6C2EAF
:10479000619485E0882E8C1AC1112FC08091C309C5
:1047A000882389F080916202882309F443C081E064
:1047B0009091C309911180E024E04EE254E1662D0E
:1047C0000E941AEE37C08091BF091092BF0988235A
:1047D00049F389DF8091D909882321F3DF91CF91B3
:1047E0001F910F91FF90EF90DF90CF90BF90AF900F
:1047F0009F908F907F906F900895C13009F074C0A2
:104800008091C309813009F45DC0809162028823E0
:1048100089F01F92DF92CF929F9281E09091C3091D
:10482000913009F080E08F93E4DD0F900F900F90AE
:104830000F900F9014DE8111CFC0D6E0C53009F083
:10484000CCC08091C309853009F4A8C08091620270
:104850008111B5C0D6E081E08D0F8C1315C0809119
:10486000C3098C1709F4E0C080916202882361F0CB
:104870006C2F611B81E09091C3099C1380E023E0C1
:1048800044EE53E10E941AEE82E08D0F8C1313C0A8
:104890009091C3099C1709F4D8C0809162028823C3
:1048A00051F06C2F611B81E09C1380E023E042ED0E
:1048B00053E10E941AEECF5FC7116ECFDD5FD09338
:1048C000C2098CCF8091BF091092BF09882309F4D7
:1048D0009CCFB0922708A0922608FEDE8091D909CD
:1048E000882309F492CF7ACFC23009F0CAC08091F0
:1048F000C309823081F080916202882309F49ACF43
:1049000081E09091C309923009F080E023E044E116
:1049100054E16E2D55CF8091BF091092BF098823B5
:1049200051F389E79CE20E94C2BD8091D909882396
:1049300011F354CF8091C309833081F080916202DA
:10494000882309F477CF81E09091C309933009F06F
:1049500080E023E047E054E16F2D32CF8091BF0922
:104960001092BF09882351F389E59EE20E94C2BDDF
:104970008091D909882311F331CF8091BF0910921A
:10498000BF09882309F488C087E991E30E94C2BD6A
:104990008091D909882309F47FC020CF8091BF0975
:1049A0001092BF09882309F451CF8DE493E30E944C
:1049B000C2BD8091D909882309F448CF0FCF81E087
:1049C0009091C309953009F080E023E049EF53E16D
:1049D000682D0E941AEE3ECFD5E0DC133CCF8091CB
:1049E000C3098D1791F080916202882309F433CFB7
:1049F0006C2F611B81E09091C3099C1380E023E040
:104A00004DEE53E10E941AEE26CF8091BF0910921D
:104A1000BF09882341F382EA94E30E94C2BD8091DA
:104A2000D909882301F3DACE8091BF091092BF091A
:104A3000882309F419CF83E196E30E94C2BD8091D7
:104A4000D909882309F410CFC9CE8091BF091092EB
:104A5000BF09882309F421CF20E040E070E060E046
:104A600086E59DE1DF91CF911F910F91FF90EF902F
:104A7000DF90CF90BF90AF909F908F907F906F907E
:104A800001CDC33009F456CFC43009F0D3CE8091A4
:104A9000C309843009F471CF80916202882309F43C
:104AA000C9CE81E09091C309943009F080E023E001
:104AB00042E054E1602F84CEAF92BF92CF92DF925A
:104AC000EF92FF920F931F93CF93DF93EC015B0163
:104AD0008A01FB01199587FD16C0C82ED12CF12C37
:104AE000E12C2196F801C082D182E282F382CE01CC
:104AF000DF91CF911F910F91FF90EF90DF90CF90BA
:104B0000BF90AF900895982F907E903CA9F48F713C
:104B100090E0B0E0A0E06C017D0126E0CC0CDD1C53
:104B2000EE1CFF1C2A95D1F7CE010196F5011995CF
:104B30008F73C82A2296D6CF982F907F903E11F57A
:104B40008F7090E0B0E0A0E06C017D0186E0CC0CBD
:104B5000DD1CEE1CFF1C8A95D1F7CE010196F501F4
:104B600019958F73C82A96E0CC0CDD1CEE1CFF1C37
:104B70009A95D1F7CE010296F50119958F73C82A3F
:104B80002396B0CF982F987F903F79F5877090E06B
:104B9000B0E0A0E06C017D01F6E0CC0CDD1CEE1C69
:104BA000FF1CFA95D1F7CE010196F50119958F7387
:104BB000C82AA6E0CC0CDD1CEE1CFF1CAA95D1F780
:104BC000CE010296F50119958F73C82AB6E0CC0C78
:104BD000DD1CEE1CFF1CBA95D1F7CE010396F50142
:104BE00019958F73C82A24967DCF982F9C7F983F64
:104BF000E1F5837090E0B0E0A0E06C017D0156E04B
:104C0000CC0CDD1CEE1CFF1C5A95D1F7CE01019691
:104C1000F50119958F73C82A66E0CC0CDD1CEE1CDB
:104C2000FF1C6A95D1F7CE010296F50119958F7395
:104C3000C82A76E0CC0CDD1CEE1CFF1C7A95D1F75F
:104C4000CE010396F50119958F73C82AE6E0CC0CC6
:104C5000DD1CEE1CFF1CEA95D1F7CE010496F50190
:104C600019958F73C82A25963DCF982F9E7F9C3F1C
:104C700009F049C0817090E0B0E0A0E06C017D01D6
:104C800086E0CC0CDD1CEE1CFF1C8A95D1F7CE0112
:104C90000196F50119958F73C82A96E0CC0CDD1C9E
:104CA000EE1CFF1C9A95D1F7CE010296F5011995DD
:104CB0008F73C82A26E0CC0CDD1CEE1CFF1C2A9545
:104CC000D1F7CE010396F50119958F73C82A36E006
:104CD000CC0CDD1CEE1CFF1C3A95D1F7CE010496DE
:104CE000F50119958F73C82A46E0CC0CDD1CEE1C2B
:104CF000FF1C4A95D1F7CE010596F50119958F73E2
:104D0000C82A2696EFCE982F907C903841F4807C6C
:104D1000803869F42196CE01F5011995F8CF8E7F80
:104D20008D3F28F02196CE01F5011995F8CFC12CC1
:104D3000D12C7601D7CE1F93CF93DF9300D01F9253
:104D4000CDB7DEB710E0AE014F5F5F4F68E17BE1AA
:104D5000B3DE49815A816B817C81452B462B472BE1
:104D600011F01F5FF0CF812F0F900F900F900F90D9
:104D7000DF91CF911F9108951F93CF93DF9300D0C0
:104D80001F92CDB7DEB710E0AE014F5F5F4F65E118
:104D90007BE192DE49815A816B817C81452B462BD8
:104DA000472B11F01F5FF0CF812F0F900F900F90C6
:104DB0000F90DF91CF911F9108959CE0899F802DE6
:104DC000112491E0980F9093B1042CE0280F2093C8
:104DD000020A30E02E5F3F4F40918D1242171306BA
:104DE00019F014F080E0089520918F129217D0F7F7
:104DF000662341F08E5F0E94CBF58091020A8E5FA0
:104E00000E94CBF58091020A90918D12891750F380
:104E100020918F129091B104291720F310929012D3
:104E20008093911281E008952091B004022E000C2D
:104E3000330B8217130641F08093B0046BE075E1E9
:104E400089E592E10C9442F70895CF93DF93FC013A
:104E500025AD211104C021E025AF0E9473F4C0915B
:104E60005B12D0915C12E0918A12F0918B1282E079
:104E70001995E0918A12F0918B1281E0199530E03A
:104E800020E044E1BE0189E592E10E946FF42CE844
:104E900032E147E1BE0189E592E10E946FF4E091C1
:104EA0008A12F0918B1280E0DF91CF911994EF92EA
:104EB000FF920F931F93CF93DF93CDB7DEB72C975D
:104EC0000FB6F894DEBF0FBECDBF6F3F71058105F1
:104ED000910509F0B8F485E592E153D9E0915D12AE
:104EE000F0915E123196849190E02C960FB6F89472
:104EF000DEBF0FBECDBFDF91CF911F910F91FF900D
:104F0000EF90089510919012009191122091FB045E
:104F100021110FC04BEA52E1602F812F0E94D2F87D
:104F200090E080E0180F109390120093911299274F
:104F3000DCCFE0905D12F0905E1229E532E13A8319
:104F40002983212F30E03C832B83202F30E03E83C8
:104F50002D8318861F822FEF3FEF3A8729871C8603
:104F60001B869E012F5F3F4FAB01BC01C7010E9412
:104F7000CBDCB70189E592E10E9442F78F819885E9
:104F8000D1CFDF92EF92FF920F931F93CF93DF93D6
:104F900000D01F92CDB7DEB77C01062F142F11234E
:104FA00009F443C0AE014F5F5F4F65E17BE1C7018C
:104FB00083DD7C0169817A818B819C81611571051A
:104FC0008105910591F1DD24DA94D10E6D337105DF
:104FD0008105910581F06E3771058105910559F0C4
:104FE0006A3271058105910581F565E470E080E024
:104FF00090E05DDF1D2D602F70E089819A81AB818B
:10500000BC81CD97A105B105E9F480E390E0680F7C
:10501000791F072E000C880B990B49DF115029F0DE
:10502000612F70E0C7015CD9181B812F0F900F9082
:105030000F900F90DF91CF911F910F91FF90EF9004
:10504000DF90089581E390E0E2CF31DF1D2DA7CFFF
:105050006FEF7FEF45C9EF92FF920F931F93CF93AE
:10506000DF93CDB7DEB72C970FB6F894DEBF0FBE37
:10507000CDBF10919012009191122091FB0421114B
:105080001BC04BE652E1602F812F0E94D2F890E0C6
:1050900080E0180F109390120093911299272C968C
:1050A0000FB6F894DEBF0FBECDBFDF91CF911F9139
:1050B0000F91FF90EF900895E0905D12F0905E12D6
:1050C00029E532E13A832983212F30E03C832B8389
:1050D000202F30E03E832D8318861F827A876987D0
:1050E0001C861B869E012F5F3F4F48E15BE1BC01A0
:1050F000C7010E948BDDB70189E592E10E9442F76A
:105100008F819885C6CF6FEF7FEFA5CFAF92BF920B
:10511000CF92DF92EF92FF920F931F93CF93DF9383
:105120005C016B0129DEE82EC60105DEF12C03E1EE
:1051300010E0081B1109C5E20E151F050CF4CFE1A4
:105140008C2F90E09C012E5F3F4F40918D124217B3
:10515000130609F09CF5099720918F12281719065C
:105160006CF16091030A10929012C093911245E184
:10517000C50107DFD1E0C114D104A9F06AE370E0F2
:1051800080E090E094DE0E151F05D4F4C45F80919A
:105190008D12C81740F020918F124C2F4950550B9B
:1051A000241715067CF4DF91CF911F910F91FF908A
:1051B000EF90DF90CF90BF90AF900895D0E0DBCF1D
:1051C000DD2389F3802F880F080F000F00939012C2
:1051D000C093911260E270E080E090E068DEC6016A
:1051E000DF91CF911F910F91FF90EF90DF90CF90C3
:1051F000BF90AF9088CF0F931F93CF93DF9300D0D2
:1052000000D000D01F92CDB7DEB780916202882314
:10521000E9F01F9289E18F938091F40490E0019668
:105220009F938F9384E694E19F938F938E010F5FFA
:105230001F4F1F930F930F943A15B80189E594E11E
:1052400065DF0FB6F894DEBF0FBECDBF84E080935C
:1052500062028091F304811107C020E040E070E019
:1052600060E08FE399E20ED92A960FB6F894DEBF7C
:105270000FBECDBFDF91CF911F910F910895CF92B7
:10528000DF92EF92FF92CF93DF9300D01F92CDB7C2
:10529000DEB78091BF091092BF09882321F1809168
:1052A000F4048F5F8093F4048931D8F081E0809317
:1052B000F30420E040E070E060E088E893E2E2D8A8
:1052C00082E594E190932708809326080F900F9031
:1052D0000F900F90DF91CF91FF90EF90DF90CF90E4
:1052E000089578D9F3CF6091C9097091CA09809166
:1052F000CB099091CC09611571058105910509F4DF
:1053000046C00F94A7152DEC3CEC4CEC5CE30F94DD
:1053100006162091240A3091250A4091260A5091C0
:10532000270A0F94291C6B017C0120E030E040E04B
:1053300050EC0F94A11587FD5AC020E030E040E00A
:1053400050E4C701B6010F944F1E18160CF455C057
:10535000C092240AD092250AE092260AF092270AE7
:1053600080E090E0A0E8B0E489839A83AB83BC83BB
:10537000CE0101960E9459A682E0809362021092AB
:10538000C9091092CA091092CB091092CC098091D8
:105390006202882309F49ACFC090240AD090250A8B
:1053A000E090260AF090270A20E030E0A901C7012A
:1053B000B6010F94A11527E137EB41ED58E387FFC4
:1053C00004C027E137EB41ED58EBC701B6010F945C
:1053D000291C69837A838B839C836BE2CE010196BF
:1053E0000E9429AFBC018BE494E190DE6FCFC12C09
:1053F000D12CE12C90ECF92EABCFC12CD12CE12C8F
:1054000080E4F82EA5CF0F931F93CF93DF93FC0179
:10541000EB018091C9099091CA09A091CB09B09183
:10542000CC09B7FF08C01092C9091092CA0910929E
:10543000CB091092CC098091CD099091CE09A09111
:10544000CF09B091D0094091C9095091CA09609122
:10545000CB097091CC0984179507A607B70744F4C8
:105460008093C9099093CA09A093CB09B093CC0942
:10547000809162028823D9F06091C9097091CA09AC
:105480008091CB099091CC090091D1091091D2095A
:105490002091D3093091D409600F711F821F931F8F
:1054A0001995BC018091D7099091D8092FDE809180
:1054B000BF09811108C08091C6098823C9F1809174
:1054C00062028823A9F18091D5099091D6090097AD
:1054D000B1F04091C9095091CA096091CB0970910E
:1054E000CC090091D1091091D2092091D3093091B2
:1054F000D409400F511F621F731FFE011995E091DF
:10550000C709F091C809309741F08091C60981110F
:1055100003C08091BF09811119958091BF09109234
:10552000BF09882329F0DF91CF911F910F91DBC82C
:10553000DF91CF911F910F91089560EE7AE189E597
:105540009CE161CF68E87AE184E99DE15CCF60EBA2
:105550007AE189EB9DE157CF62ED7AE186ED9DE13D
:1055600052CF64E77AE18FE09EE14DCF6EE57AE1BC
:1055700086E09EE148CF6CE97AE187E79DE143CF81
:1055800064EC7AE189E49CE13ECF64EF7AE180E269
:105590009CE139CF62E07BE18CE49CE134CFCF9297
:1055A000DF92EF92FF920F93CF93DF93982F862F86
:1055B0006A017901692F01DC882309F440C0C70121
:1055C0000023E1F0D9DBC82F43E1481B6091030AB7
:1055D000C601D7DCCC2399F1D82FDD0FD80FDD0F12
:1055E0006AE370E080E090E062DCD73048F060E28F
:1055F00070E080E090E05BDCD81BF7CF9CDBE3CF72
:105600008091020A9C2F990F990FC91BCC0FC0588B
:10561000C093901280939112C701002341F0DF9153
:10562000CF910F91FF90EF90DF90CF9011CDDF9150
:10563000CF910F91FF90EF90DF90CF9064CDDF91ED
:10564000CF910F91FF90EF90DF90CF9008952F9220
:105650003F924F925F926F927F928F929F92AF9202
:10566000BF92CF92DF92EF92FF920F931F93CF934F
:10567000DF9300D01F921F92CDB7DEB7E82E0E94B5
:105680000EF12091C1092C83F12C9701220F331FB9
:10569000C9018555964F5C01F901E155F64F6F013F
:1056A000FC81F98395E0492E4F0E2BE1222E22E258
:1056B000322E24E02F1B2D83DB82CA8223E0722E40
:1056C0007F1A450122E0622E6F1AC7018D54964F52
:1056D0007C0181E0582E5F1A9C81911141C080911C
:1056E000C3098823C9F080916202882361F069812F
:1056F000619581E09091C309911180E024E04DEF24
:1057000054E10E941AEE2C812F5F2C832411E4CFE8
:1057100085E08093C2090CC08091BF091092BF0937
:10572000882309F30E9473238091D9098823D9F231
:105730000F900F900F900F900F90DF91CF911F91CE
:105740000F91FF90EF90DF90CF90BF90AF909F9020
:105750008F907F906F905F904F903F902F90089523
:10576000EC81E13061F58091C3098130B1F0809125
:105770006202882341F211E08091C309813009F06F
:1057800010E0F70180810E947CB800E09C0143EFAB
:1057900054E1652D812F03DFB6CF8091BF091092B0
:1057A000BF09882321F350E040E0B70183EF94E183
:1057B0000E94F7EE8091D9098823C9F2B9CFFC8104
:1057C000F23009F06EC08091C3098230B1F080914F
:1057D0006202882309F497CF11E08091C3098230D7
:1057E00009F010E0F401808191810E9436B200E05E
:1057F0009C014CEE54E1662DCDCF8091BF091092F3
:10580000BF09882321F310E000E024E031E045E007
:1058100050E0B5018CEE94E10E9435EF8091D909FA
:105820008823A9F285CF8091C3098330B9F0809194
:105830006202882309F467CF11E08091C3098330A5
:1058400009F010E0EA81FB81808191810E9436B2EB
:1058500000E09C0148EE54E1672D9CCF8091BF0988
:105860001092BF09882319F310E000E02CE830E023
:1058700045E050E0B60188EE94E10E9435EF80915A
:10588000D9098823A1F254CF8091BF091092BF0992
:10589000882391F00E941B228091D909882361F00E
:1058A00047CF8C81833009F4BECF843009F02BCFF1
:1058B0008091C309843041F380916202882309F406
:1058C00022CF3F922F9284E69AE19F938F93FD819E
:1058D000FF9381E09091C309943009F080E08F93A9
:1058E0000E94F9210F900F900F900F900F900F9042
:1058F0000ACF5F926F927F928F929F92AF92BF92E8
:10590000CF92DF92EF92FF920F931F93CF93DF938B
:105910000E940EF1C091C10965E0662E6C0ED6E0C2
:10592000DC1B85E0B82EBC1A84E0A82EAC1A83E0FC
:10593000982E9C1A82E0882E8C1A81E0782E7C1A90
:105940005C2E5194C11136C08091C3098823B1F0F7
:1059500080916202882359F081E09091C3099111EE
:1059600080E024E04DEA53E1652D0E941AEECF5FFE
:105970006C12E8CF87E08093C2090CC08091BF0908
:105980001092BF09882321F30E9473238091D909C3
:105990008823F1F2DF91CF911F910F91FF90EF904B
:1059A000DF90CF90BF90AF909F908F907F906F903F
:1059B0005F900895C13009F03EC08091C3098130E5
:1059C000E1F080916202882391F211E08091C30995
:1059D000813009F010E060919F0F7091A00F8091CD
:1059E000A10F9091A20F0E94271C00E09C0149E2A8
:1059F00053E1672D812FD3DDBACF8091BF0910927B
:105A0000BF098823F1F20E9464F1D12CC12CE12C52
:105A100010ECF12E09E714E420E030E040E85FE309
:105A20006FE97FE089E293E10E94D0EF8091D9098C
:105A3000882339F2AFCFC23009F010C18091C30979
:105A40008230D9F080916202882309F490CF11E06E
:105A50008091C309823009F010E06091A30F70912A
:105A6000A40F8091A50F9091A60F0E94271C00E023
:105A70009C0142E253E1682DBDCF8091BF09109295
:105A8000BF098823F9F20E9464F1D12CC12CE12CCA
:105A900010ECF12E09E714E420E030E040E85FE389
:105AA00063EA7FE082E293E10E94D0EF8091D9091E
:105AB000882341F26FCF8091C3098330D9F0809160
:105AC0006202882309F453CF11E08091C309833027
:105AD00009F010E06091A70F7091A80F8091A90FB5
