:100000000C94191B0C944A1B0C944A1B0C944A1B0D
:100010000C944A1B0C944A1B0C944A1B0C944A1BCC
:100020000C944A1B0C944A1B0C944A1B0C944A1BBC
:100030000C944A1B0C944A1B0C944A1B0C944A1BAC
:100040000C944A1B0C94E1AD0C944A1B0C944A1B73
:100050000C944A1B0C944A1B0C9424A50D943B0A47
:100060000C944A1B0C9420980C9416980C944A1BE0
:100070000C944A1B0C944A1B0C944A1B0C944A1B6C
:100080000C940B500C944A1B0C944A1B0C944A1B66
:100090000C944A1B0C944A1B0C944A1B0C944A1B4C
:1000A0000C944A1B0C944A1B0C94DD4F0C944A1B75
:1000B0000C944A1B0C944A1B0C944A1B0C94AF4F93
:1000C0000C944A1B0C944A1B0C944A1B0C944A1B1C
:1000D0000C944A1B0C944A1B0C944A1B0C944A1B0C
:1000E0000C944A1B084AD73B3BCE016E84BCBFFD33
:1000F000C12F3D6C74319ABD56833DDA3D00C77FF8
:1001000011BED9E4BB4C3E916BAAAABE0000008090
:100110003F05A84CCDB2D44EB93836A9020C50B91F
:10012000918688083CA6AAAA2ABE000000803F004B
:100130000D94D6080D940E090D94FA080D94E0085C
:100140000D94C7080D94EA080D9459090D941809E7
:100150000D94CC080D9404090D9427090D944F09B2
:100160000D94031E0D94F2080D9445090D943B095E
:100170000D94BF080D9431090D94E51D4E414E4973
:100180004E495459494E46CDCCCC3D0AD7233C1755
:10019000B7D13877CC2B329595E6241FB14F0A00A2
:1001A0000020410000C84200401C4620BCBE4CCA92
:1001B0001B0E5AAEC59D7400407A10F35A00A0720F
:1001C0004E18090010A5D4E80000E8764817000092
:1001D000E40B54020000CA9A3B000000E1F5050060
:1001E0000080969800000040420F000000A08601A9
:1001F000000000102700000000E803000000006479
:1002000000000000000A00000000000100000000E3
:10021000002C76D888DC674F0823DFC1DFAE59E1B8
:10022000B1B796E5E3E453C63AE651997696E8E627
:10023000C28426EB898C9B62ED407C6FFCEFBC9CFA
:100240009F40F2BAA56FA5F490055A2AF75C936B0C
:100250006CF9676DC11BFCE0E40D47FEF520E6B5C7
:1002600000D0ED902E0300943577050080841E08A1
:100270000000204E0A000000C80C333333330F98BF
:100280006E12831141EF8D2114893BE65516CFFE86
:10029000E6DB18D1844B381BF77C1D901DA4BBE412
:1002A00024203284725E228100C9F124ECA1E53D54
:1002B00027434F4D4D554E49434154494F4E0044FD
:1002C000525952554E004552524F525300494E46D4
:1002D0004F004543484F004572726F722077726934
:1002E00074696E6720746F20454550524F4D210A46
:1002F0000025301D0C282924311C0B4527232F1BDA
:10030000164443212A193F40222B1A41420338093F
:100310000636030802060001627573793A2070619F
:100320007573656420666F7220696E7075740A005B
:10033000627573793A2070617573656420666F72B7
:1003400020757365720A00627573793A2070726F56
:1003500063657373696E670A0053544F5050454488
:100360002E20005072696E7465722073746F707005
:1003700065642064756520746F206572726F727396
:100380002E2046697820746865206572726F72202D
:10039000616E6420757365204D39393920746F2082
:1003A000726573746172742E202854656D70657265
:1003B00061747572652069732072657365742E208F
:1003C0005365742069742061667465722072657368
:1003D00074617274696E67290A004E6F2043686504
:1003E000636B73756D2077697468206C696E652026
:1003F0006E756D6265722C204C617374204C696E51
:10040000653A20004E6F20436865636B73756D20FD
:1004100077697468206C696E65206E756D626572AF
:100420002C204C617374204C696E653A200063681F
:1004300065636B73756D206D69736D617463682C92
:10044000204C617374204C696E653A20004C696ED3
:1004500065204E756D626572206973206E6F742021
:100460004C617374204C696E65204E756D626572C7
:100470002B312C204C617374204C696E653A20003E
:100480004D313130004D313137004D33310053445F
:100490002072656164206572726F720A00446F6E2B
:1004A00065207072696E74696E672066696C650A92
:1004B000004B494C4C206361757365642062792060
:1004C0004B494C4C20627574746F6E2F70696E0AC4
:1004D000004B494C4C206361757365642062792040
:1004E000746F6F206D75636820696E6163746976DF
:1004F000652074696D65202D2063757272656E7458
:1005000020636F6D6D616E643A2000506C6561739D
:1005100065205265736574005052494E544552200F
:1005200048414C5445440025533A202553004B493B
:100530004C4C45442E20005072696E7465722068E0
:10054000616C7465642E206B696C6C282920636172
:100550006C6C6564210A0053544F505045442E2062
:10056000005072696E7465722073746F7070656488
:100570002064756520746F206572726F72732E200F
:1005800046697820746865206572726F7220616EAA
:100590006420757365204D39393920746F20726578
:1005A00073746172742E202854656D706572617465
:1005B0007572652069732072657365742E205365AA
:1005C0007420697420616674657220726573746149
:1005D0007274696E67290A006563686F3A00457234
:1005E000726F723A0042696C696E656172204C6587
:1005F00076656C696E6720477269643A0A005354E5
:100600004F502063616C6C65642062656361757333
:1006100065206F6620424C546F7563682065727266
:100620006F72202D20726573746172742077697403
:1006300068204D3939390A0053544F502063616C9A
:100640006C65642062656361757365206F66204226
:100650004C546F756368206572726F72202D207222
:100660006573746172742077697468204D39393903
:100670000A004C6F6164002D2D2D0A00494E564131
:100680004C494420444154410A007072696E745FC1
:100690006A6F625F656C61707365643A20007364B1
:1006A000706F733A200073645F66696C656E616D8C
:1006B000653A20000A20666164653A20006C657620
:1006C000656C696E673A200066616E5F7370656580
:1006D000643A20007461726765745F74656D70655B
:1006E0007261747572655F6265643A20007461724C
:1006F0006765745F74656D70657261747572653A73
:10070000200066656564726174653A2000706F73DD
:100710006974696F6E5F73686966743A2000686F08
:100720006D655F6F66667365743A200063757272FB
:10073000656E745F706F736974696F6E3A20002024
:1007400076616C69645F666F6F743A00204A6F620D
:10075000205265636F7665727920496E666F2E2E22
:100760002E0A76616C69645F686561643A00506F57
:100770007765722D6C6F73732066696C6520636C8E
:100780006F7365206661696C65642E0A00506F772F
:1007900065722D6C6F73732066696C652077726962
:1007A0007465206661696C65642E0A00577269740D
:1007B00065004732362048656174696E67204E6F68
:1007C0007A7A6C65004732362048656174696E67D5
:1007D000204265640057616974696E6720666F72B4
:1007E000206865617475702E0A004669786564201A
:1007F0004C656E677468205072696D6500446F6E59
:1008000065205072696D696E67004D616E75616C2F
:10081000207072696D696E672E2E2E004732362069
:1008200043616E63656C6564004C656176696E67F3
:1008300020473236003F53706563696669656420FE
:10084000582C5920636F6F7264696E617465206FF4
:100850007574206F6620626F756E64732E0A003F98
:1008600028522965706561742076616C7565206E0B
:100870006F7420706C61757369626C653B206D7577
:100880007374206265206174206C6561737420311B
:100890002E0A003F537065636966696564206E6F58
:1008A0007A7A6C652074656D7065726174757265B5
:1008B000206E6F7420706C61757369626C652E0AAE
:1008C000003F5370656369666965642066696C61A1
:1008D0006D656E742073697A65206E6F7420706C1C
:1008E00061757369626C652E0A003F5370656369B8
:1008F00066696564207072696D65206C656E6774E9
:1009000068206E6F7420706C61757369626C652EFF
:100910000A003F537065636966696564206E6F7A8B
:100920007A6C652073697A65206E6F7420706C61D3
:10093000757369626C652E0A003F5265747261635B
:1009400074696F6E204D756C7469706C6965722086
:100950006D7573742062652073706563696669657F
:10096000642E0A003F5370656369666965642052AE
:10097000657472616374696F6E204D756C74697013
:100980006C696572206E6F7420706C61757369623A
:100990006C652E0A003F5370656369666965642063
:1009A0006C6179657220686569676874206E6F7420
:1009B00020706C61757369626C652E0A0043292E84
:1009C0000A003F5370656369666965642062656407
:1009D0002074656D7065726174757265206E6F74D8
:1009E00020706C61757369626C65202834302D004D
:1009F000473236207374617274696E672E2E2E0A28
:100A0000004F46460A00466164652048656967688C
:100A1000742000426564204C6576656C696E6720C1
:100A2000004661696C656420746F20656E61626C5C
:100A30006520426564204C6576656C696E670A00C6
:100A4000496E76616C6964206D6573682E0A00508A
:100A5000726F62696E6720506F696E740025532053
:100A600025692F2569002E0A002F0050726F6269D8
:100A70006E67206D65736820706F696E742000204A
:100A80002844525952554E29004732392041757435
:100A90006F20426564204C6576656C696E67003F27
:100AA00020284C2C522C462C4229206F7574206F24
:100AB0006620626F756E64732E0A003F28562965A2
:100AC00072626F7365206C6576656C20696D706C01
:100AD00061757369626C652028302D34292E0A00F7
:100AE000426164205A2076616C75650A004E6F2061
:100AF00062696C696E65617220677269640A005789
:100B000041524E494E4721204C6F77205A204A656A
:100B1000726B206D6179206C65616420746F207543
:100B20006E77616E746564207061757365732E0AEB
:100B30000020204D61783A2000200020204D696E71
:100B40003A2000536F667420656E6473746F70731F
:100B50003A20004D32342053256C642054256C64B7
:100B6000004739322E39204525730047312046256C
:100B700064004739322E39205A2573004731205AF4
:100B80003020463230300047312058257320592517
:100B900073204633303030004D34323020532569D5
:100BA000205A2573004D31303620502569205325B9
:100BB00069004D31303920532569004D31393020DD
:100BC000532569004D3230302044257300473932B7
:100BD0002E392045305A300A47315A320A473238C6
:100BE00052305859004D343230205330205A3000A2
:100BF00020506F7765722D4C6F7373205265636F51
:100C00007665727920446174610A00496E76616C80
:100C10006964004E6F0020496E76616C69642065DE
:100C200078747275646572200047322F47332062F2
:100C3000616420706172616D65746572730A00533E
:100C40006C6565702E2E2E00205A3A200020593AED
:100C5000200042656420583A20004D65736820707A
:100C60006F696E742063616E6E6F742062652072AE
:100C700065736F6C7665640A00436C69636B2074FE
:100C80006F20526573756D652E2E2E004E6F204DB0
:100C90006F76652E00456E642066696C65206C6910
:100CA00073740A00426567696E2066696C65206C22
:100CB0006973740A00286E6F2066696C65290043A9
:100CC000757272656E742066696C653A20005344D3
:100CD000207072696E74696E672062797465200095
:100CE0004E6F74205344207072696E74696E670A87
:100CF000005072696E742074696D653A20000A5361
:100D0000746174733A2046696C616D656E74207508
:100D10007365643A20002C204C6F6E6765737420F5
:100D20006A6F623A2000546F74616C2074696D655B
:100D30003A200053746174733A20002C2046616994
:100D40006C65643A20002C2046696E69736865649E
:100D50003A20005072696E74733A200053746174C3
:100D6000733A2000436F6F6C696E672E2E2E004819
:100D7000656174696E672E2E2E0045202553006F25
:100D80006B006F666600D202CD02C602BF02B102DE
:100D900044454255473A004D31313220536875740D
:100DA000646F776E004D313133205300426564200B
:100DB000436F6F6C696E672E2E2E0042656420486B
:100DC000656174696E672E2E2E0043412054686958
:100DD0006E6B6572205632202865336420302E31C8
:100DE00029204F46462E004348414D4245525F540C
:100DF000454D5045524154555245004D4F54494F71
:100E00004E5F4D4F44455300544845524D414C5F51
:100E100050524F54454354494F4E004155544F5240
:100E200045504F52545F53445F53544154555300FF
:100E300050524F4D50545F535550504F52540045EF
:100E40004D455247454E43595F504152534552001C
:100E5000434153455F4C494748545F4252494748D4
:100E6000544E45535300544F47474C455F4C4947F8
:100E700048545300534F4654574152455F504F57C3
:100E80004552004255494C445F50455243454E54EB
:100E9000004C4556454C494E475F44415441005A29
:100EA0005F50524F4245004155544F4C4556454CBA
:100EB000005052494E545F4A4F420050524F4752E1
:100EC000455353004155544F5245504F52545F546F
:100ED000454D5000564F4C554D45545249430045E1
:100EE0004550524F4D0042494E4152595F46494C80
:100EF000455F5452414E5346455200534552494175
:100F00004C5F584F4E5F584F4646004649524D572A
:100F10004152455F4E414D453A4D61726C696E20BC
:100F2000322E302E78202847697448756229205364
:100F30004F555243455F434F44455F55524C3A68C5
:100F4000747470733A2F2F6769746875622E636FBB
:100F50006D2F4D61726C696E4669726D7761726555
:100F60002F4D61726C696E2050524F544F434F4C5D
:100F70005F56455253494F4E3A312E30204D414332
:100F800048494E455F545950453A43412054686999
:100F90006E6B6572205632202865336420302E3106
:100FA000292045585452554445525F434F554E549D
:100FB0003A3120555549443A636564653261326679
:100FC0002D343161322D343734382D396231322DA0
:100FD0006335356336326633363766660A002F2F3F
:100FE00020004D31343520533C696E6465783E20D5
:100FF0006F7574206F662072616E67652028302DD2
:1010000031290A00205400205200416363656C6559
:10101000726174696F6E3A20500020466C6F773AA7
:10102000200050726F7465637465642050696E0AA5
:10103000003A200020536572766F2000206F75748F
:10104000206F662072616E67650A00536572766F65
:10105000200020643A0020693A0020703A00496E6E
:1010600076616C69642065787472756465720A00D3
:1010700020643A0020693A0020703A0064697300E5
:10108000656E0043290A0061626C656420286D6901
:101090006E2074656D702000436F6C6420657874F9
:1010A00072756465732061726520004D65736820F8
:1010B000706F696E742063616E6E6F74206265205C
:1010C0007265736F6C7665640A004D343231206945
:1010D0006E636F727265637420706172616D6574A6
:1010E00065722075736167650A004F666673657483
:1010F00073204170706C696564004572723A2054C7
:101100006F6F206661722100546F6F2066617220DC
:1011100066726F6D207265666572656E63652070BC
:101120006F696E740A00454550524F4D204F4B0A6F
:10113000004F4646004F4E00496E76616C69640A66
:101140000056616C69640A004E6F20504C520A00D0
:10115000504C52204578697374730A00506F77655C
:10116000722D6C6F7373207265636F766572792070
:10117000004361703A00290A0020746F20003F5A32
:10118000206F7574206F662072616E67652028007D
:10119000290A0020746F20003F59206F7574206F5A
:1011A000662072616E676520282D00290A00207470
:1011B0006F20003F58206F7574206F662072616E3B
:1011C000676520282D0050726F6265204F66667338
:1011D0006574205800220A00656E71756575656931
:1011E0006E672022006F6B00526573656E643A2053
:1011F000002569730025696D2025697300256968DC
:101200002025696D2025697300256964202569689A
:101210002025696D20256973002569792025696479
:10122000202569682025696D202569730023646580
:1012300066696E652044454641554C545F006265C1
:1012400064004B6420004B6920004B702000504923
:1012500044204175746F74756E652066696E69739C
:10126000686564212050757420746865206C617312
:1012700074204B702C204B6920616E64204B6420DD
:10128000636F6E7374616E74732066726F6D20622B
:10129000656C6F7720696E746F20436F6E66696747
:1012A00075726174696F6E2E680A0050494420415E
:1012B00075746F74756E65206661696C6564212054
:1012C00074696D656F75740A00546865726D616C40
:1012D0002052756E617761790048656174696E6747
:1012E000206661696C656400504944204175746FE3
:1012F00074756E65206661696C6564212054656D46
:10130000706572617475726520746F6F20686967AB
:10131000680A00204B643A2000204B693A200020E4
:101320004B703A20000A20436C617373696320504C
:101330004944200A00204B643A2000204B693A209F
:1013400000204B703A20000A204E6F206F766572A5
:1013500073686F6F740A002054753A2000204B7533
:101360003A2000206D61783A2000206D696E3A20A5
:101370000020643A200020626961733A20005049DD
:1013800044204175746F74756E6520737461727456
:101390000A00504944204175746F74756E6520666B
:1013A00061696C6564212054656D70657261747546
:1013B000726520746F6F20686967680A005049443D
:1013C000204175746F74756E65206661696C656423
:1013D0002120426164206578747275646572206EA4
:1013E000756D6265720A004572723A2075746638CE
:1013F00020666F6E74206E6F7420696E6974696107
:101400006C697A65642E004572723A20757466388C
:1014100020666F6E74206E6F7420696E69746961E6
:101420006C697A65642E004572723A20757466386C
:1014300020666F6E74206E6F7420696E69746961C6
:101440006C697A65642E0046696C2E204469612EB1
:10145000004520696E206D6DC2B3002008204661F2
:101460006374002008204D6178002008204D696ECB
:10147000004F6666004F6E004175746F74656D7045
:10148000005654726176204D696E00566D696E008B
:10149000566D6178204500566D6178205A00566D72
:1014A0006178205900566D6178205800416D61784F
:1014B000204500416D6178205A00416D61782059C6
:1014C00000416D6178205800412D54726176656C41
:1014D00000412D5265747261637400416363656CF1
:1014E0000056652D4A65726B00565A2D4A65726B1F
:1014F0000056592D4A65726B0056582D4A65726B1D
:10150000004573746570732F6D6D005A7374657048
:10151000732F6D6D005973746570732F6D6D005866
:1015200073746570732F6D6D00416476616E6365D1
:10153000642053657474696E6773003F0043616E85
:1015400063656C00496E6974004D34323800496E31
:10155000697469616C697A6520454550524F4D0048
:1015600046696C616D656E740054656D706572617D
:10157000747572650053746570732F6D6D004A65E4
:10158000726B00416363656C65726174696F6E00B4
:1015900056656C6F636974790053657420486F6D8C
:1015A00065204F66667365747300436F6E66696786
:1015B00075726174696F6E0053746F726520536544
:1015C0007474696E6773004C6F6164205365747442
:1015D000696E67730050726F6265205A204F6666AD
:1015E00073657400466164652048656967687400C6
:1015F0004F6666004F6E00426564204C6576656CF0
:10160000696E67004732380A47323900473239007D
:101610004C6576656C20426564004175746F2048A6
:101620006F6D65004D6F74696F6E00436D643A2095
:1016300053746F7700436D643A204465706C6F7922
:1016400000436D643A2053572D4D6F646500436D20
:10165000643A2053656C662D5465737400436D6461
:101660003A20526573657400426564004E6F7A7A61
:101670006C650046616E20537065656400436F6E53
:1016800066696775726174696F6E004C6F61642082
:1016900053657474696E677300526573746F726515
:1016A000206661696C736166650053746F726520B2
:1016B00053657474696E6773005072656865617410
:1016C0002041425320436F6E660050726568656129
:1016D0007420504C4120436F6E66004F6666004F89
:1016E0006E004F7574616765205265636F76657231
:1016F0007900424C546F7563680050726F626520C8
:101700005A204F666673657400416476616E636546
:10171000642053657474696E6773004D61696E006F
:101720004D313030300053746F70205072696E74D8
:1017300000526573756D65205072696E74004F7547
:1017400074616765205265636F76657279003F004A
:101750004261636B0053746F70005072696E742045
:1017600066726F6D204D65646961004D32310043D2
:1017700068616E6765204D6564696100436F6E66E0
:10178000696775726174696F6E0054656D7065721A
:101790006174757265004D6F74696F6E0052657388
:1017A000756D65205072696E74004E6F204D6564D2
:1017B00069610054756E650053746F7020507269D2
:1017C0006E74005061757365205072696E740049C3
:1017D0006E666F2053637265656E003F00537461DF
:1017E0007274205072696E740043616E63656C00A0
:1017F0005072696E740043616E6E6F7420656E7412
:101800006572207375626469723A2000022E2E00A0
:101810004D61696E00000C0D00FE07022603BC013D
:101820007FFE08FE08FE05080806000040F0C88894
:1018300088987810050808060000C0F8888888880D
:1018400088F80505050600012030F8302005080855
:101850000600002070F820202020E005090906007D
:10186000FF2070A8A8B88888702005060606000129
:10187000E08CEA8C8A0A0509090600FFF8A8888826
:10188000888888A8F8050A0A0600FE2050505050A3
:1018900088A8A8887003030306000340A040FFFF48
:1018A000FFFFFFFFFFFFFFFFFFFFFFFFFFFFFFFF48
:1018B000FFFFFFFF0000000605FF0107070602000B
:1018C00080808080800080030303060105A0A0A023
:1018D00005060606000050F85050F85005090906A4
:1018E00000FF2070A8A07028A87020050707060038
:1018F00000C8C8102040989805070706000040A0BF
:10190000A040A890680103030602058080800309B7
:10191000090601FF204040808080404020030909E3
:101920000601FF8040402020204040800507070638
:10193000000020A8702070A82005050506000120E1
:1019400020F820200203030601FFC04080050101AA
:10195000060003F8020202060100C0C005070706E0
:1019600000000810102040408005070706000070A6
:101970008898A8C8887003070706010040C0404047
:101980004040E0050707060000708808102040F876
:10199000050707060000F8081030088870050707DB
:1019A00006000010305090F81010050707060000E0
:1019B000F880F008088870050707060000304080AE
:1019C000F0888870050707060000F808101020202E
:1019D0002005070706000070888870888870050752
:1019E0000706000070888878081060020505060167
:1019F00000C0C000C0C00206060601FFC0C000C093
:101A000040800305050601012040804020050303B6
:101A1000060002F800F80305050601018040204099
:101A200080050707060000708810202000200507A9
:101A3000070600007088B8A8B88070050707060080
:101A400000708888F8888888050707060000F04835
:101A500048704848F00507070600007088808080BD
:101A60008870050707060000F04848484848F00518
:101A70000707060000F88080F08080F80507070659
:101A80000000F88080F08080800507070600007065
:101A9000888080988870050707060000888888F885
:101AA000888888030707060100E04040404040E086
:101AB0000507070600003810101010906005070792
:101AC0000600008890A0C0A09088050707060000C7
:101AD000808080808080F805070706000088D8A8ED
:101AE000888888880507070600008888C8A898881D
:101AF00088050707060000708888888888700507B1
:101B000007060000F08888F080808005070706003F
:101B10000070888888A89068050707060000F0888C
:101B200088F0A0908805070706000070888070087C
:101B30008870050707060000F820202020202005D7
:101B400007070600008888888888887005070706C8
:101B50000000888888885050200507070600008804
:101B6000888888A8A85005070706000088885020A4
:101B7000508888050707060000888850202020200C
:101B8000050707060000F80810204080F80309093F
:101B90000601FFE080808080808080E005070706E6
:101BA0000000804040201010080309090601FFE0F2
:101BB00020202020202020E00503030600052050DF
:101BC000880501010600FEF80303030601058040B5
:101BD00020050505060000700878887805070706C7
:101BE00000008080F0888888F005050506000070F8
:101BF00080808870050707060000080878888888B4
:101C0000780505050600007088F080700507070656
:101C10000000304840E04040400507070600FE70E5
:101C20008888887808700507070600008080F0889B
:101C30008888880307070601004000C0404040E054
:101C40000409090601FE1000301010101090600504
:101C5000070706000080808890E090880307070649
:101C60000100C04040404040E0050505060000D0AE
:101C7000A8A8A8A8050505060000B0C8888888059A
:101C8000050506000070888888700507070600FEB5
:101C9000F0888888F080800507070600FE7888882D
:101CA00088780808050505060000B0C88080800512
:101CB000050506000078807008F00507070600009B
:101CC0002020F820202018050505060000888888B7
:101CD00098680505050600008888885020050505D8
:101CE0000600008888A8A850050505060000885051
:101CF0002050880507070600FE888888502040800D
:101D0000050505060000F8102040F8030909060142
:101D1000FF2040404080404040200109090602FF6A
:101D20008080808080808080800309090601FF8098
:101D3000404040204040408005030306000248A880
:101D400090FF5072696E7420506175736564004D28
:101D50006F74696F6E004D38340044697361626C52
:101D60006520537465707065727300426564204C21
:101D70006576656C696E6700473238205A00486F97
:101D80006D65205A00473238205900486F6D652034
:101D90005900473238205800486F6D652058004779
:101DA0003238004175746F20486F6D65004D616970
:101DB0006E005072656865617420504C4120456E1C
:101DC00064005072656865617420504C4120426522
:101DD0006400507265686561742041425320456E0D
:101DE0006400507265686561742041425320426509
:101DF000640054656D706572617475726500436F3F
:101E00006F6C646F776E0050726568656174204115
:101E10004253005072656865617420504C41004621
:101E2000616E205370656564203D00426564004E1C
:101E30006F7A7A6C65004D61696E004261627973F8
:101E4000746570205A00466C6F770046616E2053AF
:101E500070656564203D00426564004E6F7A7A6C5F
:101E600065005370656564004D61696E0025687595
:101E70003A25303268750025303268753A2530329F
:101E8000687500256875642025303268753A2530FC
:101E900032687500202020202020200020202020D3
:101EA000001FE020102010201010201020201020F3
:101EB0001030300840048003001FE03FF03FF03F47
:101EC000F01FE01FE03FF03FF03FF00FC00780033E
:101ED000003FFFF038007030FC3020FC10207810FC
:101EE0002030102C00D02E31D02F7BD02F7BD02E45
:101EF00031D02C00D020301020781020FC1030FC85
:101F0000303800703FFFF03FFFF03800703186300E
:101F10002387102787902F87D02F03D020301020C1
:101F200078102078102030102F03D02F87D02787EB
:101F3000902387103186303800703FFFF01FFFF884
:101F40001FFFF80410400208200208200410400877
:101F50002080104100104100082080041040000043
:101F6000001FFFF81FFFF84D656469612052656D21
:101F70006F766564004D6564696120496E736572B2
:101F8000746564004341205468696E6B6572205625
:101F900032202865336420302E3129205265616457
:101FA000792E005072696E74696E672E2E2E005065
:101FB00072696E742041626F72746564004D3235CF
:101FC000005061757365205072696E740000009650
:101FD00043000096430000C84300000000000000DA
:101FE0000000000000290A002062797465733B201C
:101FF000637263200053657474696E677320537451
:102000006F726564202800454550524F4D20646131
:10201000746173697A65206572726F722E0A002985
:102020000A002062797465733B206372632000208C
:1020300073746F7265642073657474696E6773205E
:102040007265747269657665642028002028636172
:102050006C63756C6174656429210A0020213D2040
:1020600000454550524F4D20435243206D69736DDA
:1020700061746368202D202873746F726564292051
:10208000002053697A653A2000496E6465783A20E9
:1020900000204D61726C696E3D563734290A004547
:1020A0004550524F4D2076657273696F6E206D6991
:1020B000736D617463682028454550524F4D3D0053
:1020C00048617264636F6465642044656661756C21
:1020D000742053657474696E6773204C6F61646516
:1020E000640A0000009643000096430000A04000F0
:1020F00000C8410000A0420000A0420000C8430008
:1021000000BA42DC050000DC05000032000000DC03
:102110000500003A0A0020204D3835312058005A79
:102120002D50726F6265204F6666736574002020C3
:102130004D343133205300506F7765722D4C6F73DF
:1021400073205265636F766572793A0A0020440005
:1021500020490020204D33303420500020440020FE
:10216000490020204D333031205000504944207325
:10217000657474696E67733A0A0020460020420055
:1021800020480020204D3134352053004D617465C6
:102190007269616C2068656174757020706172612C
:1021A0006D65746572733A0A00204A002020473238
:1021B00039205720490020204D343230205300412F
:1021C00075746F20426564204C6576656C696E6736
:1021D0003A0A0020204D323036205800486F6D6595
:1021E000206F66667365743A0A0020580020540018
:1021F00020530020204D32303520420020453C6DD8
:1022000061785F655F6A65726B3E0020583C6D6166
:10221000785F785F6A65726B3E20593C6D61785FCC
:10222000795F6A65726B3E205A3C6D61785F7A5FB8
:102230006A65726B3E00416476616E6365643A2044
:10224000423C6D696E5F7365676D656E745F74693E
:102250006D655F75733E20533C6D696E5F666565A5
:1022600064726174653E20543C6D696E5F74726186
:1022700076656C5F66656564726174653E002054C6
:102280000020520020204D32303420500041636342
:10229000656C65726174696F6E2028756E69747300
:1022A0002F7332293A20503C7072696E745F6163FB
:1022B00063656C3E20523C726574726163745F6149
:1022C0006363656C3E20543C74726176656C5F613B
:1022D0006363656C3E0A0020204D32303120580087
:1022E0004D6178696D756D20416363656C657261E0
:1022F00074696F6E2028756E6974732F7332293A72
:102300000A0020204D3230332058004D6178696D2D
:10231000756D206665656472617465732028756EDD
:102320006974732F73293A0A0053746570732070AF
:10233000657220756E69743A0A0020204D32303083
:102340002044300A0020204D323030204400204408
:10235000697361626C65640A0046696C616D656EE3
:10236000742073657474696E67733A0020204D3170
:1023700034392043203B20556E69747320696E20E8
:1023800043656C736975730A0020286D6D29002000
:1023900020473231202020203B20556E6974732065
:1023A000696E206D6D006F70656E0054524947472D
:1023B00045524544003A20007A5F6D696E00795FAE
:1023C0006D696E00785F6D696E005265706F727432
:1023D000696E6720656E6473746F702073746174C6
:1023E00075730A00205A3A0020593A0020436F754D
:1023F0006E7420583A0020453A00205A3A0020597D
:102400003A00583A0020746F6F206C6F6E67206539
:102410007874727573696F6E2070726576656E740C
:1024200065640A0020636F6C64206578747275734C
:10243000696F6E2070726576656E7465640A004817
:102440006F6D696E67204661696C6564000000000D
:1024500000000000000000000000004842000048AA
:1024600042000080405761726E696E673A20486F83
:102470006D696E672042756D702044697669736F6F
:1024800072203C20310A000202040000A04000003B
:10249000A04000000040000096430000964300006A
:1024A000C843FFFFFF24F4D43050C38E20C2A240A3
:1024B00017828B7011127A910D816CD90AA861E193
:1024C00008C7586607615143061E4B5D05C145A705
:1024D000041A411104093D9803713931034036DB78
:1024E0000265339102D4305402802E1D02632CEE1B
:1024F00001752AC501B028A001102781018F25642C
:10250000012B244B01E0223401AC211F018D200D51
:1025100001801FFC00841EED00971DDF00B81CD257
:1025200000E61BC600201BBC00641AB200B219A84A
:10253000000A19A0006A189900D117910040178B62
:1025400000B516840031167E00B31579003A157374
:1025500000C7146F0058146A00EE136600881363F6
:102560000025135E00C7125B006C12570015125451
:1025700000C111510070114F0021114B00D61049BC
:10258000008D1047004610440002104200C00F406A
:1025900000800F3E00420F3C00060F3B00CB0E3880
:1025A00000930E37005C0E3500270E3400F30D3219
:1025B00000C10D3100900D3000600D2E00320D2D48
:1025C00000050D2C00D90C2B00AE0C2900850C2920
:1025D000005C0C2700350C27000E0C2600E80B24AD
:1025E00000C40B2400A00B23007D0B23005A0B21F9
:1025F00000390B2100180B2000F80A1F00D90A1E11
:1026000000BB0A1E009D0A1D00800A1D00630A1CF3
:1026100000470A1B002C0A1B00110A1A00F7091AAE
:1026200000DD091900C4091900AB09190092091746
:10263000007B091800630917004C091600360916BB
:1026400000200916000A091500F5081500E0081415
:1026500000CC081400B8081400A408140090081353
:10266000007D0812006B081300580812004608127B
:10267000003408110023081100120811000108118C
:1026800000F0071000E0071000D0071000C007108E
:1026900000B0070F00A107100091070E0083070F7D
:1026A0000074070F0065070E0057070E0049070E5C
:1026B000003B070D002E070E0020070D0013070D2D
:1026C0000006070D00F9060C00ED060D00E0060CF3
:1026D00000D4060C00C8060C00BC060C00B0060CAA
:1026E00000A4060B0099060C008D060B0082060B59
:1026F0000077060B006C060B0061060A0057060BFC
:10270000004C060A0042060A0038060A002E060A95
:102710000024060A001A060A001006090007060A25
:1027200000FD050900F4050900EB050900E20509B3
:1027300000D9050900D0050900C7050900BE050933
:1027400000B5050800AD050800A50509009C0508B1
:1027500000940508008C050800840508007C050825
:1027600000740508006C050700650508005D050795
:1027700000560508004E05070047050700400508FC
:102780000038050700310507002A05070023050763
:10279000001C050600160507000F050700080506C2
:1027A0000002050700FB040600F5040700EE04061E
:1027B00000E8040600E2040700DB040600D5040676
:1027C00000CF040600C9040600C3040600BD0406C9
:1027D00000B7040600B1040500AC040600A6040618
:1027E00000A00405009B0406009504050090040663
:1027F000008A04050085040500800406007A0405AB
:102800000075040500700405006B040500660405EE
:1028100000610405005C040500570405005204052E
:10282000004D04050048040500430405003E04046F
:10283000003A04050035040500300404002C0405AA
:102840000027040400230405001E0404001A0404E5
:102850000016040500110404000D04040009040519
:10286000000404040000040400FC030400F8030452
:1028700000F4030400F0030400EC030400E8030484
:1028800000E4030400E0030400DC030400D80304B4
:1028900000D4030400D0030400CC030400C80303E5
:1028A00000C503030024F404D9201BC40C5C0E985B
:1028B00004C4095F0265077101F405F900FB04B364
:1028C0000048048700C1036900580355000303450D
:1028D00000BE023A008402310053022A0029022578
:1028E0000004022000E4011C00C8011900AF011718
:1028F000009801140084011300710110006101109F
:102900000051010E0043010D0036010B002B010B9D
:102910000020010B00150109000C0109000301084A
:1029200000FB000800F3000800EB000700E40006CD
:1029300000DE000600D8000600D2000600CC00052C
:1029400000C7000500C2000500BD000400B9000476
:1029500000B5000400B1000400AD000400A90004AB
:1029600000A5000300A20003009F0004009B0003D9
:1029700000980003009500020093000300900003FC
:10298000008D0002008B0003008800020086000218
:102990000084000300810002007F0002007D00022D
:1029A000007B00020079000200770001007600023F
:1029B000007400020072000100710002006F00024A
:1029C000006D0001006C0002006A00010069000255
:1029D000006700010066000100650001006400025C
:1029E000006200010061000100600001005F000260
:1029F000005D0001005C0001005B0001005A000165
:102A00000059000100580001005700010056000164
:102A10000055000100540001005300000053000164
:102A2000005200010051000100500001004F000160
:102A3000004E0000004E0001004D0001004C00015E
:102A4000004B0000004B0001004A0001004900015A
:102A50000048000000480001004700010046000057
:102A6000004600010045000000450001004400014F
:102A7000004300000043000100420000004200014A
:102A8000004100000041000100400001003F000043
:102A9000003F0001003E0000003E0001003D00003C
:102AA000003D0001003C0000003C0000003C000133
:102AB000003B0000003B0001003A0000003A00012A
:102AC0000039000000390001003800000038000023
:102AD0000038000100370000003700010036000018
:102AE000003600000036000100350000003500000F
:102AF0000035000100340000003400000034000103
:102B000000330000003300000033000100320000F9
:102B100000320000003200010031000000310000EE
:102B200000310001003000000030000000300001E2
:102B3000002F0000002F0000002F0000002F0001D8
:102B4000002E0000002E0000002E0001002D0000CD
:102B5000002D0000002D0000002D0001002C0000C1
:102B6000002C0000002C0000002C0001002B0000B5
:102B7000002B0000002B0000002B0001002A0000A9
:102B8000002A0000002A0000002A0001002900009D
:102B90000029000000290000002900000029000190
:102BA0000028000000280000002800000028000085
:102BB0000028000100270000002700000027000077
:102BC000002700000027000100260000002600006A
:102BD000002600000026000000260001002500005D
:102BE0000025000000250000002500000025000051
:102BF0000025000100240000002400000024000043
:102C00000024000000240001002300000023000035
:102C10000023000000230000002300000023000028
:102C2000002300010022000000220000002200001A
:102C3000002200000022000000220001002100000C
:102C40000021000000210000002100000021000000
:102C500000210000002100010020000000200000F1
:102C600000200000002000000020000000200000E4
:102C70000020000000200001001F0000001F0000D5
:102C8000001F0000001F0000001F0000001F0000C8
:102C9000001F0001001E0000001E0000001E0000BA
:102CA000001E000000043700001E290000511B0018
:102CB000005810000010090000CC04000078020049
:102CC00000410100004D6963726F73746570732079
:102CD000756E617661696C61626C650A0045313AB6
:102CE000200045303A20005A3A2000593A20004D41
:102CF00053312C4D53322C4D53332050696E730A8F
:102D0000583A200000426564004531006265640065
:102D10002C2073797374656D2073746F70706564A3
:102D200021204865617465725F49443A2000486516
:102D30006174696E67206661696C656400546865DA
:102D4000726D616C2052756E6177617900486561C2
:102D500074696E67204661696C65640048656174DA
:102D6000696E67206661696C656400546865726DA0
:102D7000616C2052756E6177617900544845524DFF
:102D8000414C2052554E4157415900546865726D6F
:102D9000616C2052756E61776179004572723A20DC
:102DA0004D415854454D50004D415854454D5020CB
:102DB000747269676765726564004572723A204D86
:102DC000494E54454D50004D494E54454D50207488
:102DD0007269676765726564004D38342058205900
:102DE000205A204500202F002042403A0020403A3F
:102DF0000020573A0020573A00496E76616C6964AA
:102E00002065787472756465720A007C3C3E5E2BA6
:102E10003D3F2F5B5D3B2C2A225C0040012C01735F
:102E2000012201AB011801F3010E0148020401ACBB
:102E300002FA002A03F000C303E6008004DC006D00
:102E400005D2006C06C800C707BE007009B4006D4B
:102E50000BAA00CB0DA000CF138C00F21B7800E969
:102E6000246400142E50009C353C00B83A2800A081
:102E70003D14000B3F000043616E6E6F74206F7055
:102E8000656E20737562646972200053442063612B
:102E90007264206F6B0A006F70656E526F6F7420E2
:102EA0006661696C65640A00766F6C756D652E6984
:102EB0006E6974206661696C65640A005344206918
:102EC0006E6974206661696C0A004D3234004D32BF
:102ED000332025730057726974696E6720746F2000
:102EE00066696C653A20002E0A006F70656E206678
:102EF00061696C65642C2046696C653A20002E0A75
:102F0000006F70656E206661696C65642C2046698F
:102F10006C653A200046696C652073656C65637466
:102F200065640A002053697A653A200046696C6539
:102F3000206F70656E65643A200066726573680084
:102F4000646F696E67002066696C653A20004E6F99
:102F5000772000454E4420535542524F5554494E18
:102F6000450A002220706F73002220706172656E26
:102F7000743A2200535542524F5554494E4520430E
:102F8000414C4C207461726765743A220074727906
:102F9000696E6720746F2063616C6C207375622D9D
:102FA00067636F64652066696C6573207769746810
:102FB00020746F6F206D616E79206C6576656C731F
:102FC0002E204D4158206C6576656C2069733A312E
:102FD0000A002E0A0044656C6574696F6E20666194
:102FE000696C65642C2046696C653A200046696C02
:102FF000652064656C657465643A0057726974692C
:103000006E6720746F2066696C653A20002E0A0096
:103010006F70656E206661696C65642C2046696C12
:10302000653A2000642E0A00206661696C65642E92
:103030000A00506F7765722D6C6F73732066696C30
:10304000652064656C657465000000220025002819
:10305000002B002E003100340002010000050108A1
:10306000010B01000020002300260029002C002F66
:103070000032000001000003010601090100000AFE
:103080000B02090C0D0E08070304010000000000EC
:103090000000000000000000000000000000000030
:1030A00000000000000000000012111000000000ED
:1030B0000000000000000000000000000000000010
:1030C000000000687474703A2F2F6D61726C696E25
:1030D00066772E6F726700322E302E780001FFFF68
:1030E000FFFFFFFFFFFFFFFFFFFFFF0FFFFFFFFFE0
:1030F000FFFFFFFFFFFFFFFFFF1E000000000000BB
:103100000000000007FFFF38000000000000000082
:10311000000003FFFF70000000000000000000003E
:1031200001FFFF600000000000000000000000FF41
:10313000FF6000000000000000000000007FFFC0F2
:1031400000000000000000007800003FFFC00FC03A
:10315000FC00000000007818001FFFC03FE1FF00E6
:1031600000000000783C000FFFC07FF3FF800000EC
:103170000000783C0007FFC0FFFFFFC00000000018
:10318000783C0003FFC1F87F87E000000000780072
:103190000001FFC1F03F03E00000000078000000E4
:1031A000FFC1E01E01E01F0003E0783C03F07FC197
:1031B000E01E01E07FC00FF8783C07FC3FC1E01E35
:1031C00001E1FFE01FFC783C0FFE1FC1E01E01E3A0
:1031D000FFF03FFE783C1FFE0FC1E01E01E3F3F855
:1031E0003F3E783C3F3F07C1E01E01E7E0FC7C1F0B
:1031F000783C3E1F07C1E01E01E7C07C7C0F783C95
:103200003C0F03C1E01E01E7807C780F783C3C0F47
:1032100003C1E01E01E7803C7800783C3C0F03C10D
:10322000E01E01E7803C7800783C3C0F03C1E01EC3
:1032300001E7803C7800783C3C0F03C1E01E01E7C9
:10324000C03C7800783C3C0F03C1E01E01E3E03C49
:1032500078007C3C3C0F03C1E01E01E3FF3FF80017
:103260007FBC3C0F03C1E01E01E1FF3FF8003FBF00
:10327000FC0F03C1E01E01E0FF3FF8001FBFFC0F81
:1032800003C1E01E01E07F3FF8000FBFFC0F0360A9
:1032900000000000000000000000000007600000C7
:1032A00000000000000000000000067000000000A8
:1032B00000000000000000000E38000000000000C8
:1032C0000000000000001C1E0000000000000000C4
:1032D00000000000780FFFFFFFFFFFFFFFFFFFFF71
:1032E000FFFFF001FFFFFFFFFFFFFFFFFFFFFFFFFB
:1032F0008000002100240027002A002D0030003328
:103300000001010000040107010A01010210202050
:103310000808102040102040800201020108040229
:10332000010102040810204080804020100804029F
:1033300001800402018040201008040201080402F8
:1033400001010204081020408001020408102040FE
:103350008005050505070508080808020202020A9B
:103360000A08080404040401010101010101010328
:1033700003030303030303040707070C0C0C0C0CE3
:103380000C0C0C0202020206060606060606060BD6
:103390000B0B0B0B0B0B0B4D31303030205300203F
:1033A0005049445F64543A0020643A002069693A05
:1033B0000020703A002020506C616E6E657242757C
:1033C0006666657242797465733A200020467265BC
:1033D00065204D656D6F72793A2000436F6D70699D
:1033E0006C65643A204D61792020392032303230CA
:1033F0000A00204C61737420557064617465643AEE
:1034000020323031392D31322D3031207C20417540
:1034100074686F723A20286E6F6E652C2064656642
:1034200061756C7420636F6E666967290A00322EBD
:10343000302E780A004D61726C696E0020536F6601
:1034400074776172652052657365740A0020576154
:10345000746368646F672052657365740A00204264
:10346000726F776E206F75742052657365740A00F1
:103470002045787465726E616C2052657365740ABC
:1034800000506F77657255700A0073746172740A28
:10349000006175746F25632E6700473238585900F4
:1034A0006572726F722077726974696E6720746FCB
:1034B0002066696C650A00446F6E652073617669E9
:1034C0006E672066696C652E0A004D323900456EC4
:1034D0006473746F70730025532025632025632067
:1034E000256320256300205A3A0020593A002058CD
:1034F0003A00656E6473746F7073206869743A2063
:10350000004D6F76652025736D6D00004D6F7665FB
:1035100020302E316D6D004D6F766520316D6D0060
:103520004D6F76652031306D6D004D6F76652041B1
:1035300078697300486F74656E6420746F6F2063E0
:103540006F6C64004578747275646572004D6F76B7
:1035500065205A004D6F76652059004D6F766520C5
:1035600058005072696E742066726F6D204D6564EC
:1035700069610050726F62696E67204661696C65AF
:10358000640A0050726F62696E67204661696C65FB
:103590006400205A3A200020593A200042656420F5
:1035A000583A2000486F6D652025732573257320D8
:1035B000466972737400220A00556E6B6E6F776EE7
:1035C00020636F6D6D616E643A20220020746F6F0E
:1035D000206C6F6E6720657874727573696F6E20EA
:1035E00070726576656E7465640A0020636F6C6442
:1035F00020657874727573696F6E20707265766578
:103600006E7465640A00204500205A00205900208D
:103610004D39322058002E0A006F70656E206661A9
:10362000696C65642C2046696C653A200000B00026
:10363000BC0011241FBECFEFD1E2DEBFCDBF00E042
:103640000CBF13E0A0E0B2E0EAE0F9E602E00BBF55
:1036500002C007900D92A435B107D9F726E1A4E581
:10366000B3E001C01D92A838B207E1F71BE1C8E141
:10367000DBE100E006C021970109802FFE010F94D5
:10368000E633C731D10780E00807A9F70F943D1F43
:103690000D9474340C9400000C94B72880916A1334
:1036A0008823C1F0815080936A13E1E9F3E1882314
:1036B00051F08150990B2BE1289FF001299FF00DCB
:1036C0001124E953FC4E8BE1ACEAB3E101900D9279
:1036D0008A95E1F720916A13211105C08091741336
:1036E00080628093741381E090E0A0E0B0E021114B
:1036F00003C080E090E0DC0180930A0A90930B0AFB
:10370000A0930C0AB0930D0A1092020A81E08093F4
:103710001A0A83E080936E020895CF93DF9300D05E
:103720001F92CDB7DEB784EF91E0A0E0B0E08983CF
:103730009A83AB83BC83BE016F5F7F4F8CE30E9493
:103740001F4F0F900F900F900F90DF91CF91089522
:10375000CF93DF9300D01F92CDB7DEB784EF91E017
:10376000A0E0B0E089839A83AB83BC83BE016F5F26
:103770007F4F80EA0E941F4F0F900F900F900F9085
:10378000DF91CF910895CF93DF9300D01F92CDB7F3
:10379000DEB784EF91E0A0E0B0E089839A83AB8349
:1037A000BC83BE016F5F7F4F88E70E941F4F0F9061
:1037B0000F900F900F90DF91CF910895CF93DF93EB
:1037C00000D01F92CDB7DEB78EEE92E0A0E0B0E061
:1037D00089839A83AB83BC83BE016F5F7F4F8AE08E
:1037E0000E941F4F0F900F900F900F90DF91CF917D
:1037F0000895CF93DF9300D01F92CDB7DEB78EEE42
:1038000092E0A0E0B0E089839A83AB83BC83BE01E1
:103810006F5F7F4F8AE50E941F4F0F900F900F90B0
:103820000F90DF91CF9108958091F7129091F81247
:10383000891B8F7051F48091E305813031F08091C4
:10384000741382FB882780F9089581E00895CF934F
:10385000DF93EC01CB01BA010F94642A20E030E041
:1038600048EC51E40F94C32A0F942F326883798374
:103870008A839B83DF91CF910895CF93DF93EC01EF
:10388000CB01BA010F94642A2AE037ED43E25CE3EE
:103890000F94C32A688379838A839B83DF91CF91B6
:1038A0000895CF93DF93EC01CB01BA010F94642A02
:1038B0002AE037ED43E25CE30F94C32A68837983FF
:1038C0008A839B83DF91CF910895CF93DF93EC019F
:1038D000CB01BA010F94642A2DEC3CEC4CEC5DE377
:1038E0000F94C32A688379838A839B83DF91CF9166
:1038F0000895CF93DF93EC01CB01BA010F94642AB2
:1039000020E030E048EC51E40F94C32A68837983C7
:103910008A839B83DF91CF910895CF93DF93EC014E
:10392000CB01BA010F94642A688379838A839B83CD
:10393000DF91CF910895CF93DF93EC01CB01BA01D2
:103940000F94642A688379838A839B83DF91CF9164
:103950000895CF93DF93EC01CB01BA010F94642A51
:103960002FE632E143E85AE30F94C32A6883798350
:103970008A839B83DF91CF910895CF93DF93EC01EE
:10398000CB01BA010F94642A0F942A327983688399
:10399000DF91CF910895CF93DF93EC01CB01BA0172
:1039A0000F94642A23E333E343E250E40F94C32AE1
:1039B0000F942F326883DF91CF910895FC01849199
:1039C0000895FC0180810895909105019470909371
:1039D000030187FD68C0A3989091050190959470AC
:1039E000909303019091050194709093030186FDDB
:1039F00066C0A398909105019095947090930301EF
:103A00009091050194709093030185FD56C0A39891
:103A10009091050190959470909303019091050108
:103A200094709093030184FD46C0A3989091050182
:103A300090959470909303019091050194709093E8
:103A4000030183FD36C0A398909105019095947071
:103A5000909303019091050194709093030182FD6E
:103A600026C0A398909105019095947090930301BE
:103A70009091050194709093030181FD16C0A39865
:103A800080910501809584708093030180910501E8
:103A9000847080930301A3988091050180958470C0
:103AA000809303010895A39A97CFA39AE9CFA39A8D
:103AB000D9CFA39AC9CFA39AB9CFA39AA9CFA39AD2
:103AC00099CF089590E080E0089590916608292F9D
:103AD00030E0F901EB59FC4E8083220F331F220F97
:103AE000331FF901E257F54F40916204509163048E
:103AF0006091640470916504408351836283738391
:103B00009F5F943040F4909366088091EA098F5F3C
:103B10008093EA09089510926608F7CF282F9091B4
:103B20003C04833021F495FD0FC094FD0FC0892F14
:103B300090E0B0E0A0E004C0B695A7959795879572
:103B40002A95D2F78170089581E0089580E0089564
:103B5000CF92DF92EF92FF92CF93DF93EC016A0155
:103B60007B0127E137EB41ED58EBCB01B6010F9418
:103B70000C3387FD23C023E030E046E953E4C7015E
:103B8000B6010F945E2A1816CCF0C880D980EA805E
:103B9000FB8027E137EB41ED58EBC701B6010F94ED
:103BA0000C3387FD0BC0C1E023E030E046E953E46D
:103BB000C701B6010F945E2A18160CF4C0E08C2FD2
:103BC000DF91CF91FF90EF90DF90CF9008952F92EB
:103BD0003F924F925F926F927F928F929F92AF929D
:103BE000BF92CF92DF92EF92FF920F931F93CF93EA
:103BF000DF93CDB7DEB72E970FB6F894DEBF0FBEBA
:103C0000CDBFE82ED62E042F122F282F30E03C8770
:103C10002B87462F50E05A87498765E0F62EF29EA3
:103C2000C001F39E900D11249E878D87FA01E80F45
:103C3000F91FEE0FFF1FEE0FFF1FEB5AFA4F6081C7
:103C40007181828193819B01AC010F94943388230D
:103C500009F434C1E00E612F6D0DFE9CF0011124BA
:103C6000A985BA85AE0FBF1FAA0FBB1FAA0FBB1F26
:103C7000AB5ABA4FAC901196BC9011971296CC905B
:103C800012971396DC90E00EFE9CA0011124A985EA
:103C9000BA85A40FB51FAA0FBB1FAA0FBB1FAB5A33
:103CA000BA4FEC901196FC90119712960C911297C6
:103CB00013969C90862F90E0AD85BE85A80FB91F06
:103CC000AA0FBB1FAA0FBB1FAB5ABA4F8C901196FD
:103CD0007C90119712966C90129713965C90610FDE
:103CE00070E0AD85BE85A60FB71FAA0FBB1FAA0F38
:103CF000BB1FAB5ABA4F4C9011963C90119712963D
:103D00001C91129713962C90E80FF91FEE0FFF1FCE
:103D1000EE0FFF1FEB5AFA4FB081B98321812A833E
:103D200032813B8383818C83FA01E60FF71FEE0F0C
:103D3000FF1FEE0FFF1FEB5AFA4F90819D83A18169
:103D4000AE83B281BF83238128879701402F592DED
:103D5000B701802F992D0F949433882321F0E12C03
:103D6000F12C00E0912C9501A601B501C6010F943C
:103D70009433882319F05701C02ED92C242D332DCC
:103D8000412F522D642D732D812F922D0F9494333A
:103D9000882321F0412C312C10E0212C282D372DA7
:103DA000462D552D682D772D862D952D0F94943306
:103DB000882321F0842C732C612E522C2D813E817E
:103DC0004F8158856D817E818F8198850F949433C2
:103DD000882321F01D821E821F82188629813A8144
:103DE0004B815C8169817A818B819C810F949433B2
:103DF000882341F03D8139834E814A835F815B8313
:103E000088858C8385E0EB85FC858E9FD0018F9F14
:103E1000B00D112429853A85A20FB31FAA0FBB1F2D
:103E2000AA0FBB1FAB5ABA4FBA87A9879501A60143
:103E3000B501C6010F94E6309701402F592D0F941C
:103E4000E5306B017C01282D372D462D552D682D31
:103E5000772D862D952D0F94E630242D332D412F6F
:103E6000522D0F94E5309B01AC01C701B6010F94B0
:103E7000E6306B017C0129813A814B815C8169814B
:103E80007A818B819C810F94E6302D813E814F8118
:103E900058850F94E5309B01AC01C701B6010F9422
:103EA000E63020E030E040E450E40F94C231A985D0
:103EB000BA856D937D938D939C9313972E960FB631
:103EC000F894DEBF0FBECDBFDF91CF911F910F9150
:103ED000FF90EF90DF90CF90BF90AF909F908F902A
:103EE0007F906F905F904F903F902F900895149A1D
:103EF0000895CF93DF9300D01F92CDB7DEB70F9414
:103F0000642A2FE632E143E85AE30F94C32A698317
:103F10007A838B839C83CE0101960F9462040F9069
:103F20000F900F900F90DF91CF910895EF92FF9235
:103F30000F931F938EE4E82E87E1F82E10E000E047
:103F400028EB37E14CE353ED60E577E185E597E158
:103F50000F94990C1F910F91FF90EF900895EF929D
:103F6000FF920F931F938BE3E82E85E1F82E10E06C
:103F700000E02EE435E145E850E26DE375E184E4CC
:103F800095E10F94990C1F910F91FF90EF90089578
:103F9000CF92DF92EF92FF920F931F93CF93DF9315
:103FA000CDB7DEB7CDB6DEB68091300A63E27AE0F7
:103FB000882311F060E37AE0FB0101900020E9F72B
:103FC000CF01861B970B01962DB73EB7281B390BE7
:103FD0000FB6F8943EBF0FBE2DBF0DB71EB70F5FD3
:103FE0001F4F80E2EDB7FEB78183C80101960F94A1
:103FF00045348BEDE82E87E1F82E2DED37E14DEEBF
:1040000057E269EE77E180EF97E10F94990C0FB6D4
:10401000F894DEBE0FBECDBEDF91CF911F910F9100
:10402000FF90EF90DF90CF90089563E972E084E60F
:1040300090E00E94C1D26AEB72E084E690E00C94BA
:10404000C1D28111F2CF68EB71E084E190E00C9471
:10405000C1D20E9413C3F5CF0E9466EDF2CFCF9379
:10406000DF9300D01F92CDB7DEB70F94642A2AE009
:1040700037ED43E25CE30F94C32A69837A838B8331
:104080009C83CE0101960E94C0CA0F900F900F90A2
:104090000F90DF91CF9108950F94642A0F942A32E4
:1040A000CB010C94F4CBCF92DF92EF92FF926B0195
:1040B0007C0120E030E0A9010F945E2A20E030E08E
:1040C00040E05FE387FF04C020E030E040E05FEBCA
:1040D000C701B6010F94E6300F942A32CB01FF904E
:1040E000EF90DF90CF900C94F4CB0F94642ADBCF49
:1040F0000F94642A23E333E343E250E40F94C32A8A
:104100000F942F32862F0C943AD2CF930E94A6E2BE
:104110000E9413C3C82F882319F080E00E941CE47A
:104120008C2FCF918ECF0C9462AF0C9462AF0C9415
:1041300062AF0C9462AFCF93DF9300D01F92CDB7E4
:10414000DEB70F94642A2DEC3CEC4CEC5DE30F944D
:10415000C32A69837A838B839C83CE0101960E9454
:1041600000C80F900F900F900F90DF91CF9108959E
:10417000CF93DF9300D01F92CDB7DEB70F94642AA0
:104180002AE037ED43E25CE30F94C32A69837A8324
:104190008B839C83CE0101960E94B1C80F900F9033
:1041A0000F900F90DF91CF9108950C9414AF0C9461
:1041B00014AF0C9414AF0C9414AFCF93DF9300D0D2
:1041C0001F92CDB7DEB70F94642A20E030E048ECB0
:1041D00051E40F94C32A69837A838B839C83CE0135
:1041E00001960E9450C90F900F900F900F90DF9191
:1041F000CF910895CF93DF9300D01F92CDB7DEB754
:104200000F94642A69837A838B839C83CE01019601
:104210000E9450C90F900F900F900F90DF91CF9197
:104220000895CF93DF9300D01F92CDB7DEB70F94E0
:104230002F320F94622A69837A838B839C83CE0109
:1042400001960E9450C90F900F900F900F90DF9130
:10425000CF9108950F94642A20E030E048EC51E4B7
:104260000F94C32ADECFAF92BF92CF92DF92EF922C
:10427000FF920F931F93CF93DF936B01E9014A30B5
:1042800009F4ADC0453109F062C0DB011296ED9131
:10429000FC91F280C681D781A49A88E28A950000B9
:1042A000E9F7BF2CB29420EFB22230E1A32EAF0C7D
:1042B00048E2E42E88EF88DB8E2D8A950000E9F72E
:1042C000BFE1BF1508F47AC08F2D807780687CDB52
:1042D0008B2D7ADB8E2D8A950000E9F780E874DB60
:1042E00080E072DB8E2D8A950000E9F78AEF6CDBA7
:1042F0008E2D8A950000E9F78E01005F1F4F88819F
:10430000807F62DB89918295807F5EDBC017D10759
:10431000B1F78E2D8A950000E9F7F394E0E1BE0E27
:10432000FA10C8CFA498D6011296CD91DC91CE0197
:104330000F949B0A811111C2DF91CF911F910F91B0
:10434000FF90EF90DF90CF90BF90AF900895FB016A
:1043500002811381423309F4BBC108F4BFC1463462
:1043600009F4ACC1473409F4AFC14B3329F5898155
:104370002B81D80112966C91129713964C91213093
:1043800009F402C2233009F0CCC138EF380F582F9E
:1043900091E0431708F490E041E0531708F040E043
:1043A00031E0561708F430E0592F542B352309F02B
:1043B000E0C1942309F0DDC181E0BECF80EE8F0D16
:1043C0008068807F01DB8F2D8295807FFDDA8E2DC6
:1043D0008A950000E9F780E8F7DA80E882CF9C9AB6
:1043E000A4989B9AA398809104018460809304010F
:1043F000809105018095847080930301A49A88E2DE
:104400008A950000E9F788E790E0CEE9DFE0FE0159
:104410003197F1F70197D9F788EFD6DA18E2812FB3
:104420008A950000E9F780E2CFDA80E0CDDA812FCB
:104430008A950000E9F780E0C7DA80E8C5DA812FC5
:104440008A950000E9F780E0BFDA80E1BDDA812FCC
:104450008A950000E9F7CE010197F1F7CE010197A7
:10446000F1F7CE010197F1F7CE010197F1F7CE01F7
:104470000197F1F7CE010197F1F7CE010197F1F71E
:10448000CE010197F1F7CE010197F1F7CE01019727
:10449000F1F7CE010197F1F7CE010197F1F7CE01C7
:1044A0000197F1F7CE010197F1F72197F1F780E23B
:1044B0008BDA80E489DA812F8A950000E9F780E2BF
:1044C00083DA80E681DA1A950000E9F710E0D0E09F
:1044D000C8E28D2F8077806877DA812F75DA8C2F8C
:1044E0008A950000E9F780E86FDA80E06DDA8C2FBA
:1044F0008A950000E9F78AEF67DA8C2F8A95000029
:10450000E9F790E280910501847080930301A398FC
:10451000809105018095847080930301809105014D
:10452000847080930301A398809105018095847025
:104530008093030180910501847080930301A39807
:10454000809105018095847080930301809105011D
:10455000847080930301A3988091050180958470F5
:104560008093030180910501847080930301A398D7
:1045700080910501809584708093030180910501ED
:10458000847080930301A3988091050180958470C5
:104590008093030180910501847080930301A398A7
:1045A00080910501809584708093030180910501BD
:1045B000847080930301A398809105018095847095
:1045C0008093030180910501847080930301A39877
:1045D000809105018095847080930301809105018D
:1045E000847080930301A398809105018095847065
:1045F0008093030180910501847080930301A39847
:10460000809105018095847080930301809105015C
:10461000847080930301A398809105018095847034
:104620008093030180910501847080930301A39816
:10463000809105018095847080930301809105012C
:10464000847080930301A398809105018095847004
:104650008093030180910501847080930301A398E6
:1046600080910501809584708093030180910501FC
:10467000847080930301A3988091050180958470D4
:10468000809303018C2F8A950000E9F7915009F07F
:1046900039CF88EF99D98C2F8A950000E9F7DF5F31
:1046A000105FD03209F015CF80E08ED980EC8CD924
:1046B000CA950000E9F7A49881E03ECED80115968E
:1046C0008C91888381E038CEF80181818883FACF8C
:1046D000B901C8010F94850A81E02ECE443171F0F2
:1046E000473109F069CE1882F8018281898385817A
:1046F00081508A8383818B8381E01ECED8011596F9
:104700004C91159750E0440F551F70E060E01696ED
:104710008D919C910F940C34C8010F94B10A81E0E3
:104720000BCE481708F448CE861708F445CEFA8019
:10473000E12CD12C243070F41DC0BE01C8010F94AF
:10474000850A898198819D0D98838E0D8983FF0C40
:1047500009F432CEF7FEF6CFF0CF4D8150E0440F92
:10476000551F70E060E08E819F810F940C3481E0D2
:10477000E3CDFA8030E0F901E756FD4FD0802B56AB
:104780003D4FF901E080E6CF58E0580F382F00CEBA
:10479000DF92EF92FF920F931F93CF93DF93EC0181
:1047A000D62E1CAD0BAD7C0184E0E80EF11CE98D2A
:1047B000FA8DC7011995412F480F2D2D602FC70184
:1047C0000F94B10E9BAD890F8BAF81E090E0DF912C
:1047D000CF911F910F91FF90EF90DF9008958F92EE
:1047E0009F92AF92BF92CF92DF92EF92FF920F9380
:1047F0001F93CF93DF93EC018B017A018A859B8510
:104800008617970731F0888199810F948B0D1B874C
:104810000A8788859985019641F50C81DA808E8119
:10482000D80EA880B980D5015596ED91FC91C501AF
:104830001995080F10E0F70121917F0121114FC058
:104840008E819F81810F911D9F838E8390E080E0F8
:10485000DF91CF911F910F91FF90EF90DF90CF905C
:10486000BF90AF909F908F900895CE80DF80F7012A
:10487000008110E0002321F1A880B980602FC501DC
:104880000F94E30DD50151961C9111954701BFEF8F
:104890008B1A9B0AF40181914F01882351F0D501B5
:1048A00050969C91190F082F682FC5010F94E30DA6
:1048B000F1CF003281F0F50183899189890F180FBA
:1048C000C10ED11C288539852C153D0508F0A5CFD2
:1048D00081E090E0BDCFD50150968C91F0CF402F74
:1048E0006D2DC5010F94B10ED80E180FA4CFEF9205
:1048F000FF920F931F93CF93DF93CDB7DEB72C9723
:104900000FB6F894DEBF0FBECDBF109162130091B9
:10491000631320913B0521111BC047E054E1602F38
:10492000812F0F941B0F90E080E0180F10936213FB
:104930000093631399272C960FB6F894DEBF0FBE31
:10494000CDBFDF91CF911F910F91FF90EF90089510
:10495000E0902F13F09030132BE233E13A83298358
:10496000212F30E03C832B83202F30E03E832D83AA
:1049700018861F827A8769871C861B869E012F5F97
:104980003F4F4EED5CE1BC01C7010E948CF1B701C5
:104990008BE293E10F948B0D8F819885C6CF2F9278
:1049A0003F924F925F926F927F928F929F92AF92BF
:1049B000BF92CF92DF92EF92FF920F931F93CF930C
:1049C000DF93D62FC72FFC0180809180A280B38017
:1049D000C501B40120E831E541E050E00F94883092
:1049E000C9016DE671E00F94BF336B017C01C50115
:1049F000B40120E13EE040E050E00F948830CA016D
:104A0000B90128E130E040E050E00F948830362EC4
:104A1000272E062F172F8CE3482E512C612C712C3A
:104A2000C501B401A30192010F948830B62EA72EC0
:104A3000CA01B901A30192010F948830CB01C114BE
:104A4000D10479F1AF92BF927F936F932F923F92EF
:104A5000FF92EF92DF92CF9289E192E19F938F9341
:104A6000CF93DF930F94F7298DB79EB70E960FB6AD
:104A7000F8949EBF0FBE8DBF8D2F9C2FDF91CF91DD
:104A80001F910F91FF90EF90DF90CF90BF90AF906C
:104A90009F908F907F906F905F904F903F902F905E
:104AA0000895E114F104C9F0AF92BF927F936F9320
:104AB0002F923F92FF92EF9289E092E19F938F9322
:104AC000CF93DF930F94F729EDB7FEB73C960FB65F
:104AD000F894FEBF0FBEEDBFCFCF012BB9F0AF9260
:104AE000BF927F936F932F923F928DEF91E19F93AF
:104AF0008F93CF93DF930F94F7298DB79EB70A96C4
:104B00000FB6F8949EBF0FBE8DBFB6CF892BA9F00C
:104B1000AF92BF927F936F9385EF91E19F938F93B5
:104B2000CF93DF930F94F729EDB7FEB738960FB602
:104B3000F894FEBF0FBEEDBF9FCFAF92BF9281EF43
:104B400091E19F938F93CF93DF930F94F7290F9069
:104B50000F900F900F900F900F908ECFAB01BC0174
:104B60004093701350937113609372137093731387
:104B700085ED94E10D948D15CF92DF92EF92FF9227
:104B80000F931F93CF93DF936B017A01EC01C95A06
:104B9000DC4F28813CE0389F8001399F100D1124A3
:104BA00027FF24C0FB011182108288818F5F8883D8
:104BB00088819801280F311D87FD3A95C901209100
:104BC000F012F6012817190629F024F088818C309C
:104BD0000CF43CC080819181049680349C4908F497
:104BE00075C0F60180819181049672C08881980118
:104BF000280F311D87FD3A95C9012091F012281721
:104C0000190699F294F28881A801480F511D87FD79
:104C10005A95FA01EE0FFF1FE40FF51FEC57FD4EFA
:104C2000808187FFC2CF8881F801E80FF11D87FDE1
:104C3000FA95CF01EE0FFF1FE80FF91FEC57FD4E5D
:104C4000808160E08F770F942A08AFCF80819181B7
:104C50002881A801420F511D27FD5A959A01FA019A
:104C6000EE0FFF1FE20FF31FEC57FD4E2181328143
:104C7000820F931FF7019183808388819801280F09
:104C8000311D87FD3A95F901EE0FFF1FE20FF31F6B
:104C9000EC57FD4E808187FF20C08881080F111DD1
:104CA00087FD1A95F801EE0FFF1FE00FF11FEC577B
:104CB000FD4E808161E08F77DF91CF911F910F9141
:104CC000FF90EF90DF90CF900D942A0880E49CE94C
:104CD000F701918380838FEF8883DF91CF911F91BC
:104CE0000F91FF90EF90DF90CF9008958091310465
:104CF00090913204009731F04AE050E070E060E0BB
:104D00000D94912860E070E0CB010895809131040A
:104D100090913204009731F04AE050E070E060E09A
:104D20000D94642760E070E0CB010895EFDF97FDFC
:104D30000AC0ECDF6F3F71058105910509F02CF485
:104D4000E5DF862F089580E008958FEF0895809124
:104D5000310490913204892B39F0E8DF91E0811120
:104D600001C090E0892F089591E0FCCFCFDFCB0107
:104D70000895CF92DF92EF92FF92CF93C82F0F94B6
:104D800091096B017C0124EA30E74DE75FE3609114
:104D90002D0570912E0580912F05909130050F946F
:104DA0005E2A87FD18C08AEF90E0A0E0B0E08C0D8D
:104DB0009D1DAE1DBF1D8093370590933805A093B0
:104DC0003905B0933A05C0931502CF91FF90EF904B
:104DD000DF90CF90089580E090E0DC01E8CFCF93A2
:104DE000DF93CDB7DEB720E2488559856F818E818C
:104DF0000F94F703DF91CF9108958F929F92AF9216
:104E0000BF92EF92FF920F931F93CF93DF93EC012A
:104E10008B01E42EF22E80912513909126138C178E
:104E20009D07C9F12BE4C435D20709F03FC0895270
:104E30009C4C71F40F9491096E517B4F8F4F9F4F93
:104E400060931B0570931C0580931D0590931E05B0
:104E5000D0932613C093251330E020E000930A0A74
:104E600010930B0A20930C0A30930D0AE092020A69
:104E7000F092030AC952DC4C21F410923C051092C6
:104E80001A0582E080936E0281E080931A0A1092E4
:104E90003D051092010ADF91CF911F910F91FF9074
:104EA000EF90BF90AF909F908F9008952CECC932F7
:104EB000D20771F684559B4419F0C9E2DCECC8CFE7
:104EC0000F94910980901B0590901C05A0901D05E2
:104ED000B0901E05681979098A099B0997FFEDCFE3
:104EE000C091610A0E94141C882339F3C770C7302F
:104EF00021F7CEEFDBE9ACCF21E020933C056093B6
:104F00002D0570932E0580932F059093300520E09A
:104F100040E070E060E08091FA099091FB096DCF6C
:104F2000CF93DF9380916E02882341F06091410519
:104F30007091420541E081E00F94B90380913E05F4
:104F400081111AC081E080933E05C0912513D09154
:104F5000261320E040E070E060E080E997E24DDF5A
:104F60000E9485AF10923E0520E040E070E060E0D6
:104F7000CE01DF91CF9141CFDF91CF910895E091A4
:104F80001A05E63010F581E08E0F80931A054091E6
:104F90000A0A50910B0A60910C0A70910D0A9091C7
:104FA000020A8091030A28E0E29FF0011124E651F1
:104FB000FB4F2091251330912613318320834283A8
:104FC00053836483758396838783089520E040E04C
:104FD00070E060E089E29CEC10CF83E29AE00F94ED
:104FE0004110F4DF0C944DD3F1DF80E297E1909310
:104FF00068088093670808950F948D1810926913BC
:10500000E5CF7F928F929F92AF92BF92CF92DF9225
:10501000EF92FF920F931F93CF93DF9381E08093E2
:105020003C050F948007C091020A85E0982E9C0EE3
:1050300081E00CEF17E296E2E92E97E1F92ED2E03B
:10504000DC1B24EFC22E27E2D22E31E3A32E37E160
:10505000B32E882E8C1A7C2E7194C1112FC08823F8
:10506000D9F08091040A1816BCF040910A0A5091B8
:105070000B0A60910C0A70910D0A4F5F5F4F6F4FE2
:105080007F4F40930A0A50930B0A60930C0A709367
:105090000D0A8F5F8093040A80916E02882331F09D
:1050A00041E06EE377E1872D0F94B903CF5F80E095
:1050B000C911D3CF83E08093030A21C0C13069F5C1
:1050C0008091040A813081F080916E02882371F30F
:1050D000DF92CF92BF92AF928F9281E09091040ABB
:1050E000913081F180E02EC08091000A1092000A78
:1050F000882351F379DF80911A0A882329F3DF91FD
:10510000CF911F910F91FF90EF90DF90CF90BF90C4
:10511000AF909F908F907F900895C23039F6809124
:10512000040A8230C1F080916E02882309F4BECF58
:105130001F930F93FF92EF92DF9381E09091040A07
:10514000923081F68F934BDE0F900F900F900F905F
:105150000F900F90ABCF8091000A1092000A882325
:1051600011F34ADF80911A0A8823E9F2C8CFE0914F
:105170001A05EE2381F0E150E0931A0588E0E89FDC
:10518000F0011124E651FB4F628173812781468132
:105190008081918132CE1ACF6F927F928F929F92AF
:1051A000AF92BF92CF92DF92EF92FF920F931F9335
:1051B000CF93DF930F948007C091020A1C2F85E0E4
:1051C000782E7C0E04E00C1B83E0F82EFC1A82E0A3
:1051D000E82EEC1A99E4A92E95E1B92E29E9C22E00
:1051E00025E1D22E81E0982E9C1A6C2E619485E0E8
:1051F000882E8C1AC1112FC08091040A882389F04F
:1052000080916E02882309F443C081E09091040AE2
:10521000911180E024E04AEA55E1662D0F94F703EE
:1052200037C08091000A1092000A882349F39FDF5B
:1052300080911A0A882321F3DF91CF911F910F915A
:10524000FF90EF90DF90CF90BF90AF909F908F90A6
:105250007F906F900895C13009F075C08091040A65
:10526000813009F45EC080916E02882389F01F921C
:10527000DF92CF929F9281E09091040A913009F0E1
:1052800080E08F93ACDD0F900F900F900F900F90F8
:105290000E94141C8111CFC0D6E0C53009F0CCC0EB
:1052A0008091040A853009F4A8C080916E028111B2
:1052B000B5C0D6E081E08D0F8C1315C08091040A33
:1052C0008C1709F4E0C080916E02882361F06C2F86
:1052D000611B81E09091040A9C1380E023E040E68A
:1052E00055E10F94F70382E08D0F8C1313C090915A
:1052F000040A9C1709F4D8C080916E02882351F0EB
:105300006C2F611B81E09C1380E023E04EE455E1AB
:105310000F94F703CF5FC7116DCFDD5FD093030A02
:105320008BCF8091000A1092000A882309F49BCF4A
:10533000B0926808A092670849DE80911A0A882313
:1053400009F491CF79CFC23009F0CAC08091040A24
:10535000823081F080916E02882309F499CF81E038
:105360009091040A923009F080E023E040E955E191
:105370006E2D54CF8091000A1092000A882351F3B9
:105380008AE593E30E9479D780911A0A882311F362
:1053900053CF8091040A833081F080916E0288237C
:1053A00009F476CF81E09091040A933009F080E00F
:1053B00023E043E855E16F2D31CF8091000A109230
:1053C000000A882351F38AE395E30E9479D78091FC
:1053D0001A0A882311F330CF8091000A1092000A34
:1053E000882309F488C088E798E30E9479D78091E0
:1053F0001A0A882309F47FC01FCF8091000A1092F7
:10540000000A882309F451CF8EE29AE30E9479D7EB
:1054100080911A0A882309F448CF0ECF81E0909139
:10542000040A953009F080E023E045E755E1682D56
:105430000F94F7033ECFD5E0DC133CCF8091040AF4
:105440008D1791F080916E02882309F433CF6C2F71
:10545000611B81E09091040A9C1380E023E049E6FF
:1054600055E10F94F70326CF8091000A1092000AAD
:10547000882341F383E89BE30E9479D780911A0A3D
:10548000882301F3D9CE8091000A1092000A882364
:1054900009F419CF84EF9CE30E9479D780911A0A0E
:1054A000882309F410CFC8CE8091000A1092000A18
:1054B000882309F421CF20E040E070E060E08FEA2B
:1054C0009FE1DF91CF911F910F91FF90EF90DF90BF
:1054D000CF90BF90AF909F908F907F906F908DCC2A
:1054E000C33009F456CFC43009F0D2CE8091040AFB
:1054F000843009F471CF80916E02882309F4C8CEFC
:1055000081E09091040A943009F080E023E04EE7B6
:1055100055E1602F83CE2F923F924F925F926F9210
:105520007F928F929F92AF92BF92CF92DF92EF9233
:10553000FF920F931F93CF93DF9300D01F92CDB7AD
:10554000DEB70F9480071091020A212E85E0382ED5
:10555000310E94EFC92EDD24D394E12CF12C05E01B
:10556000011B2EEE422E22E0522E612C712C84E083
:10557000B82EB11A83E0A82EA11A82E0982E911AB3
:1055800081E0882E811A11113DC08091040A882380
:10559000B9F080916E02882361F0622D619581E0FF
:1055A0009091040A911180E024E04DE756E10F94B8
:1055B000F7031F5F3112E7CF86E08093030A0BC029
:1055C0008091000A1092000A882319F3D0DD80919F
:1055D0001A0A8823F1F20F900F900F900F90DF912D
:1055E000CF911F910F91FF90EF90DF90CF90BF90E0
:1055F000AF909F908F907F906F905F904F903F9073
:105600002F900895113069F58091040A8130A1F03E
:1056100080916E02882369F288EA9BE19F938F93C1
:105620008DE596E19F938F938F9281E09091040A8C
:10563000913089F180E02FC08091000A1092000A19
:10564000882331F3C982DA82EB82FC82BE016F5F6C
:105650007F4F80EA0E941F4F80911A0A8823C1F26F
:10566000BACF123009F0A6C08091040A8230E1F06E
:1056700080916E02882309F49CCF83EC9BE19F9379
:105680008F938EE496E19F938F939F9281E0909108
:10569000040A923079F68F93A2DB0F900F900F904F
:1056A0000F900F900F9085CF8091000A1092000A02
:1056B0008823F1F2C982DA82EB82FC82BE016F5F3D
:1056C0007F4F88E70E941F4F80911A0A882381F23A
:1056D00082CF8091040A8330A9F080916E028823E2
:1056E00009F467CF8EED9BE19F938F9385E396E15D
:1056F0009F938F93AF9281E09091040A933009F0C9
:1057000099CFC9CF8091000A1092000A882329F30B
:1057100049825A826B827C82BE016F5F7F4F8AE032
:105720000E941F4F80911A0A8823B9F254CF8091AA
:10573000040A8430A9F080916E02882309F439CFDD
:1057400089EF9BE19F938F938BE296E19F938F93D9
:10575000BF9281E09091040A943009F06BCF9BCF07
:105760008091000A1092000A882329F349825A8204
:105770006B827C82BE016F5F7F4F8AE50E941F4F64
:1057800080911A0A8823B9F226CF8091000A1092DC
:10579000000A8823E1F0C982DA82EB82FC82BE0132
:1057A0006F5F7F4F8CE30E941F4F80911A0A8823FE
:1057B00071F011CF133009F48CCF143009F4B7CF46
:1057C000153009F0F6CE8091040A8530F1F280910F
:1057D0006E02882309F4EDCE8DE89BE19F938F93B1
:1057E00081E496E19F938F930F9381E09091040A57
:1057F000953009F01FCF4FCFAF92BF92CF92DF927B
:10580000EF92FF920F931F93CF93DF93EC015B0115
:105810008A01FB01199587FD16C0C82ED12CF12CE9
:10582000E12C2196F801C082D182E282F382CE017E
:10583000DF91CF911F910F91FF90EF90DF90CF906C
:10584000BF90AF900895982F907E903CA9F48F71EF
:1058500090E0B0E0A0E06C017D0126E0CC0CDD1C06
:10586000EE1CFF1C2A95D1F7CE010196F501199582
:105870008F73C82A2296D6CF982F907F903E11F52D
:105880008F7090E0B0E0A0E06C017D0186E0CC0C70
:10589000DD1CEE1CFF1C8A95D1F7CE010196F501A7
:1058A00019958F73C82A96E0CC0CDD1CEE1CFF1CEA
:1058B0009A95D1F7CE010296F50119958F73C82AF2
:1058C0002396B0CF982F987F903F79F5877090E01E
:1058D000B0E0A0E06C017D01F6E0CC0CDD1CEE1C1C
:1058E000FF1CFA95D1F7CE010196F50119958F733A
:1058F000C82AA6E0CC0CDD1CEE1CFF1CAA95D1F733
:10590000CE010296F50119958F73C82AB6E0CC0C2A
:10591000DD1CEE1CFF1CBA95D1F7CE010396F501F4
:1059200019958F73C82A24967DCF982F9C7F983F16
:10593000E1F5837090E0B0E0A0E06C017D0156E0FD
:10594000CC0CDD1CEE1CFF1C5A95D1F7CE01019644
:10595000F50119958F73C82A66E0CC0CDD1CEE1C8E
:10596000FF1C6A95D1F7CE010296F50119958F7348
:10597000C82A76E0CC0CDD1CEE1CFF1C7A95D1F712
:10598000CE010396F50119958F73C82AE6E0CC0C79
:10599000DD1CEE1CFF1CEA95D1F7CE010496F50143
:1059A00019958F73C82A25963DCF982F9E7F9C3FCF
:1059B00009F049C0817090E0B0E0A0E06C017D0189
:1059C00086E0CC0CDD1CEE1CFF1C8A95D1F7CE01C5
:1059D0000196F50119958F73C82A96E0CC0CDD1C51
:1059E000EE1CFF1C9A95D1F7CE010296F501199590
:1059F0008F73C82A26E0CC0CDD1CEE1CFF1C2A95F8
:105A0000D1F7CE010396F50119958F73C82A36E0B8
:105A1000CC0CDD1CEE1CFF1C3A95D1F7CE01049690
:105A2000F50119958F73C82A46E0CC0CDD1CEE1CDD
:105A3000FF1C4A95D1F7CE010596F50119958F7394
:105A4000C82A2696EFCE982F907C903841F4807C1F
:105A5000803869F42196CE01F5011995F8CF8E7F33
:105A60008D3F28F02196CE01F5011995F8CFC12C74
:105A7000D12C7601D7CE1F93CF93DF9300D01F9206
:105A8000CDB7DEB710E0AE014F5F5F4F61EE7CE156
:105A9000B3DE49815A816B817C81452B462B472B94
:105AA00011F01F5FF0CF812F0F900F900F900F908C
:105AB000DF91CF911F9108951F93CF93DF9300D073
:105AC0001F92CDB7DEB710E0AE014F5F5F4F6EEDB6
:105AD0007CE192DE49815A816B817C81452B462B8A
