:100000000C94E0190C94111A0C94111A0C94111AF6
:100010000C94111A0C94111A0C94111A0C94111AB4
:100020000C94111A0C94111A0C94111A0C94111AA4
:100030000C94111A0C94111A0C94111A0C94111A94
:100040000C94111A0C94709B0C94111A0C94111AA4
:100050000C94111A0C94111A0C94B3920C9456F936
:100060000C94111A0C9465830C945B830C94111AF4
:100070000C94111A0C94111A0C94111A0C94111A54
:100080000C9457470C94111A0C94111A0C94111AD1
:100090000C94111A0C94111A0C94111A0C94111A34
:1000A0000C94111A0C94111A0C9429470C94111ADF
:1000B0000C94111A0C94111A0C94111A0C94FB46FE
:1000C0000C94111A0C94111A0C94111A0C94111A04
:1000D0000C94111A0C94111A0C94111A0C94111AF4
:1000E0000C94111A084AD73B3BCE016E84BCBFFD6D
:1000F000C12F3D6C74319ABD56833DDA3D00C77FF8
:1001000011BED9E4BB4C3E916BAAAABE0000008090
:100110003F05A84CCDB2D44EB93836A9020C50B91F
:10012000918688083CA6AAAA2ABE000000803F004B
:100130000D946D0D0D944F0D4E414E494E4954593D
:10014000494E46CDCCCC3D0AD7233C17B7D13877A2
:10015000CC2B329595E6241FB14F0A0000204100B8
:1001600000C84200401C4620BCBE4CCA1B0E5AAE02
:10017000C59D7400407A10F35A00A0724E18090011
:1001800010A5D4E80000E87648170000E40B5402FC
:100190000000CA9A3B000000E1F505000080969837
:1001A00000000040420F000000A086010000001087
:1001B0002700000000E803000000006400000000C9
:1001C000000A00000000000100000000002C76D8AA
:1001D00088DC674F0823DFC1DFAE59E1B1B796E590
:1001E000E3E453C63AE651997696E8E6C28426EBF4
:1001F000898C9B62ED407C6FFCEFBC9C9F40F2BA07
:10020000A56FA5F490055A2AF75C936B6CF9676D9E
:10021000C11BFCE0E40D47FEF520E6B500D0ED90F3
:100220002E0300943577050080841E080000204EC0
:100230000A000000C80C333333330F986E12831159
:1002400041EF8D2114893BE65516CFFEE6DB18D130
:10025000844B381BF77C1D901DA4BBE42420328402
:10026000725E228100C9F124ECA1E53D27434F4D88
:100270004D554E49434154494F4E004452595255F1
:100280004E004552524F525300494E464F0045438F
:10029000484F004572726F722077726974696E6799
:1002A00020746F20454550524F4D210A0025301DC6
:1002B0000C282924311C0B4527232F1B16444321CE
:1002C0002A193F40222B1A414203380906360308F7
:1002D00002060001627573793A2070617573656476
:1002E00020666F7220696E7075740A00627573798A
:1002F0003A2070617573656420666F72207573654E
:10030000720A00627573793A2070726F6365737355
:10031000696E670A0053544F505045442E200050D8
:1003200072696E7465722073746F70706564206496
:10033000756520746F206572726F72732E20466926
:100340007820746865206572726F7220616E642017
:10035000757365204D39393920746F207265737457
:100360006172742E202854656D70657261747572A7
:10037000652069732072657365742E20536574203F
:100380006974206166746572207265737461727439
:10039000696E67290A004E6F20436865636B737549
:1003A0006D2077697468206C696E65206E756D626A
:1003B00065722C204C617374204C696E653A200084
:1003C0004E6F20436865636B73756D207769746841
:1003D000206C696E65206E756D6265722C204C61B3
:1003E0007374204C696E653A2000636865636B73B3
:1003F000756D206D69736D617463682C204C617339
:1004000074204C696E653A20004C696E65204E750B
:100410006D626572206973206E6F74204C61737415
:10042000204C696E65204E756D6265722B312C20F3
:100430004C617374204C696E653A20004D31313047
:10044000004D313137004D33310053442072656126
:1004500064206572726F720A00446F6E652070725C
:10046000696E74696E672066696C650A004B494C59
:100470004C20636175736564206279204B494C4C54
:1004800020627574746F6E2F70696E0A004B494C50
:100490004C2063617573656420627920746F6F20EE
:1004A0006D75636820696E6163746976652074692F
:1004B0006D65202D2063757272656E7420636F6D9B
:1004C0006D616E643A2000506C6561736520526501
:1004D000736574005052494E5445522048414C5463
:1004E00045440025533A202553004B494C4C454484
:1004F0002E20005072696E7465722068616C74659C
:10050000642E206B696C6C28292063616C6C6564B7
:10051000210A0053544F505045442E200050726918
:100520006E7465722073746F707065642064756595
:1005300020746F206572726F72732E204669782066
:10054000746865206572726F7220616E64207573C5
:1005500065204D39393920746F207265737461726A
:10056000742E202854656D706572617475726520F3
:1005700069732072657365742E20536574206974E5
:100580002061667465722072657374617274696E3D
:1005900067290A006563686F3A004572726F723AA4
:1005A0000042696C696E656172204C6576656C69A4
:1005B0006E6720477269643A0A0053544F502063B3
:1005C000616C6C65642062656361757365206F663C
:1005D00020424C546F756368206572726F72202DD3
:1005E00020726573746172742077697468204D3964
:1005F00039390A0053544F502063616C6C65642094
:1006000062656361757365206F6620424C546F7537
:100610006368206572726F72202D20726573746139
:1006200072742077697468204D3939390A004C6F2B
:100630006164002D2D2D0A00494E56414C4944203D
:10064000444154410A007072696E745F6A6F625F60
:10065000656C61707365643A20007364706F733AFF
:10066000200073645F66696C656E616D653A200099
:100670000A20666164653A20006C6576656C696E77
:10068000673A200066616E5F73706565643A2000AA
:100690007461726765745F74656D7065726174759D
:1006A00072655F6265643A20007461726765745FA9
:1006B00074656D70657261747572653A2000666567
:1006C0006564726174653A2000706F736974696F54
:1006D0006E5F73686966743A2000686F6D655F6F5E
:1006E00066667365743A200063757272656E745F36
:1006F000706F736974696F6E3A20002076616C695F
:10070000645F666F6F743A00204A6F6220526563BF
:100710006F7665727920496E666F2E2E2E0A76618D
:100720006C69645F686561643A00506F7765722D2B
:100730006C6F73732066696C6520636C6F736520E2
:100740006661696C65642E0A00506F7765722D6C66
:100750006F73732066696C652077726974652066B3
:1007600061696C65642E0A005772697465004F46B2
:10077000460A004661646520486569676874200020
:10078000426564204C6576656C696E672000466141
:10079000696C656420746F20656E61626C652042CF
:1007A0006564204C6576656C696E670A00496E76F3
:1007B000616C6964206D6573682E0A0050726F6207
:1007C000696E6720506F696E740025532025692F6C
:1007D0002569002E0A002F0050726F62696E672033
:1007E0006D65736820706F696E7420002028445214
:1007F0005952554E2900473239204175746F2042B5
:100800006564204C6576656C696E67003F20284CF6
:100810002C522C462C4229206F7574206F66206262
:100820006F756E64732E0A003F2856296572626FD9
:100830007365206C6576656C20696D706C6175738D
:1008400069626C652028302D34292E0A00426164CB
:10085000205A2076616C75650A004E6F2062696CC3
:10086000696E65617220677269640A002054002015
:100870005200416363656C65726174696F6E3A2002
:1008800050005741524E494E4721204C6F77205A15
:10089000204A65726B206D6179206C6561642074FB
:1008A0006F20756E77616E74656420706175736515
:1008B000732E0A0020204D61783A2000200020206D
:1008C0004D696E3A2000536F667420656E647374D0
:1008D0006F70733A20004D32342053256C642054DD
:1008E000256C64004739322E392045257300473185
:1008F00020462564004739322E39205A2573004797
:1009000031205A302046323030004731205825738C
:1009100020592573204633303030004D343230209A
:10092000532569205A2573004D31303620502569F2
:1009300020532569004D31303920532569004D3150
:10094000393020532569004D323030204425730062
:100950004739322E392045305A300A47315A320A47
:1009600047323852305859004D34323020533020FD
:100970005A300020506F7765722D4C6F7373205280
:1009800065636F7665727920446174610A00496E0F
:1009900076616C6964004E6F0020496E76616C6907
:1009A00064206578747275646572200047322F4741
:1009B000332062616420706172616D657465727369
:1009C0000A00536C6565702E2E2E00205A3A2000C6
:1009D00020593A200042656420583A20004D657342
:1009E0006820706F696E742063616E6E6F74206230
:1009F00065207265736F6C7665640A00436C696389
:100A00006B20746F20526573756D652E2E2E004E0F
:100A10006F204D6F76652E00456E642066696C65AB
:100A2000206C6973740A00426567696E2066696CA0
:100A300065206C6973740A00286E6F2066696C65A6
:100A4000290043757272656E742066696C653A2080
:100A5000005344207072696E74696E672062797405
:100A60006520004E6F74205344207072696E746963
:100A70006E670A005072696E742074696D653A2061
:100A8000000A53746174733A2046696C616D656E37
:100A90007420757365643A20002C204C6F6E676576
:100AA0007374206A6F623A2000546F74616C207412
:100AB000696D653A200053746174733A20002C20EC
:100AC0004661696C65643A20002C2046696E697342
:100AD0006865643A20005072696E74733A2000535E
:100AE000746174733A20006F6B006F6666008E024B
:100AF000890282027B026D0244454255473A004D0D
:100B00003131322053687574646F776E004D313126
:100B10003320530043415468696E6B65725632202E
:100B200076302E32204F46462E004348414D4245F6
:100B3000525F54454D5045524154555245004D4F1A
:100B400054494F4E5F4D4F44455300544845524D14
:100B5000414C5F50524F54454354494F4E0041550C
:100B6000544F5245504F52545F53445F5354415475
:100B700055530050524F4D50545F535550504F52A3
:100B80005400454D455247454E43595F50415253DD
:100B9000455200434153455F4C494748545F4252D8
:100BA000494748544E45535300544F47474C455FBF
:100BB0004C494748545300534F4654574152455FA0
:100BC000504F574552004255494C445F504552439F
:100BD000454E54004C4556454C494E475F444154A0
:100BE00041005A5F50524F4245004155544F4C45C9
:100BF00056454C005052494E545F4A4F42005052A5
:100C00004F4752455353004155544F5245504F5250
:100C1000545F54454D5000564F4C554D4554524924
:100C20004300454550524F4D0042494E4152595F95
:100C300046494C455F5452414E5346455200534538
:100C40005249414C5F584F4E5F584F464600464907
:100C5000524D574152455F4E414D453A4D61726C80
:100C6000696E20322E302E782028476974487562CC
:100C70002920534F555243455F434F44455F5552DA
:100C80004C3A68747470733A2F2F67697468756290
:100C90002E636F6D2F4D61726C696E4669726D7750
:100CA0006172652F4D61726C696E2050524F544FC6
:100CB000434F4C5F56455253494F4E3A312E3020E8
:100CC0004D414348494E455F545950453A4341547C
:100CD00068696E6B657256322076302E3220455828
:100CE0005452554445525F434F554E543A31205566
:100CF0005549443A63656465326132662D34316129
:100D0000322D343734382D396231322D6335356325
:100D100036326633363766660A002F2F20004D3193
:100D2000343520533C696E6465783E206F757420BD
:100D30006F662072616E67652028302D31290A00A8
:100D400020466C6F773A200050726F74656374654B
:100D5000642050696E0A003A200020536572766F55
:100D60002000206F7574206F662072616E67650ABF
:100D700000536572766F200020643A0020693A00C3
:100D800020703A00496E76616C69642065787472EF
:100D9000756465720A0020643A0020693A00207088
:100DA0003A0064697300656E0043290A0061626C51
:100DB000656420286D696E2074656D702000436F36
:100DC0006C64206578747275646573206172652047
:100DD000004D65736820706F696E742063616E6E7C
:100DE0006F74206265207265736F6C7665640A00AB
:100DF0004D34323120696E636F7272656374207096
:100E00006172616D657465722075736167650A0052
:100E10004F666673657473204170706C6965640019
:100E20004572723A20546F6F206661722100546FD0
:100E30006F206661722066726F6D207265666572E2
:100E4000656E636520706F696E740A004545505287
:100E50004F4D204F4B0A004F4646004F4E00496E03
:100E600076616C69640A0056616C69640A004E6FB1
:100E700020504C520A00504C5220457869737473CC
:100E80000A00506F7765722D6C6F73732072656303
:100E90006F766572792000496E76616C69642065B1
:100EA000787472756465720A004361703A0050721A
:100EB0006F6265204F6666736574205A0050726FCA
:100EC0006265204F66667365745A3A2000290A00ED
:100ED00020746F20003F5A206F7574206F66207257
:100EE000616E6765202800290A0020746F20003F8A
:100EF00059206F7574206F662072616E67652028B7
:100F00002D00290A0020746F20003F58206F75744F
:100F1000206F662072616E676520282D0050726F09
:100F20006265204F6666736574205800220A00656A
:100F30006E7175657565696E672022006F6B005272
:100F40006573656E643A20002569730025696D201C
:100F5000256973002569682025696D20256973005E
:100F6000256964202569682025696D20256973003D
:100F700025697920256964202569682025696D2007
:100F80002569730020573A00436F6F6C696E672EB6
:100F90002E2E0048656174696E672E2E2E00452046
:100FA00025530020573A0042656420436F6F6C69F7
:100FB0006E672E2E2E004265642048656174696E4E
:100FC000672E2E2E0023646566696E6520444546B3
:100FD00041554C545F00626564004B6420004B69CE
:100FE00020004B702000504944204175746F747587
:100FF0006E652066696E697368656421205075743A
:1010000020746865206C617374204B702C204B69D0
:1010100020616E64204B6420636F6E7374616E7424
:10102000732066726F6D2062656C6F7720696E74D5
:101030006F20436F6E66696775726174696F6E2E9B
:10104000680A00504944204175746F74756E6520BC
:101050006661696C6564212074696D656F75740AD9
:1010600000546865726D616C2052756E61776179AC
:101070000048656174696E67206661696C6564002B
:10108000504944204175746F74756E6520666169BE
:101090006C6564212054656D70657261747572654C
:1010A00020746F6F20686967680A00204B643A20DB
:1010B00000204B693A2000204B703A20000A204360
:1010C0006C617373696320504944200A00204B64AB
:1010D0003A2000204B693A2000204B703A20000A49
:1010E000204E6F206F76657273686F6F740A0020F0
:1010F00054753A2000204B753A2000206D61783AF3
:101100002000206D696E3A200020643A20002062A1
:101110006961733A2000504944204175746F7475B9
:101120006E652073746172740A00504944204175E1
:10113000746F74756E65206661696C6564212054F6
:10114000656D706572617475726520746F6F20686B
:101150006967680A00504944204175746F74756E60
:1011600065206661696C6564212042616420657850
:10117000747275646572206E756D6265720A0045E1
:1011800072723A207574663820666F6E74206E6FC6
:101190007420696E697469616C697A65642E0045B2
:1011A00072723A207574663820666F6E74206E6FA6
:1011B0007420696E697469616C697A65642E004592
:1011C00072723A207574663820666F6E74206E6F86
:1011D0007420696E697469616C697A65642E005067
:1011E000726F6265205A204F6666736574004669A7
:1011F0006C2E204469612E004520696E206D6DC201
:10120000B30020082046616374002008204D6178F7
:10121000002008204D696E004F6666004F6E004149
:1012200075746F74656D70005654726176204D69E7
:101230006E00566D696E00566D6178204500566DE2
:101240006178205A00566D6178205900566D61789A
:10125000205800416D6178204500416D6178205A29
:1012600000416D6178205900416D6178205800413E
:101270002D54726176656C00412D52657472616304
:101280007400416363656C0056652D4A65726B009E
:10129000565A2D4A65726B0056592D4A65726B007D
:1012A00056582D4A65726B004573746570732F6DC7
:1012B0006D005A73746570732F6D6D00597374658A
:1012C00070732F6D6D005873746570732F6D6D00A2
:1012D000416476616E6365642053657474696E67FA
:1012E00073003F0043616E63656C00496E69740072
:1012F0004D34323800496E697469616C697A6520D1
:10130000454550524F4D0046696C616D656E7400E5
:1013100054656D70657261747572650053746570A3
:10132000732F6D6D004A65726B00416363656C6578
:10133000726174696F6E0056656C6F6369747900D1
:1013400053657420486F6D65204F666673657473CE
:1013500000436F6E66696775726174696F6E0053E2
:10136000746F72652053657474696E6773004C6F97
:1013700061642053657474696E67730050726F62A4
:1013800065205A204F666673657400466164652067
:10139000486569676874004F6666004F6E00426575
:1013A00064204C6576656C696E67004732380A4781
:1013B000323900473239004C6576656C20426564ED
:1013C000004175746F20486F6D65004D6F74696FD3
:1013D0006E00436D643A2053746F7700436D643A36
:1013E000204465706C6F7900436D643A2053656CDE
:1013F000662D5465737400436D643A2052657365BD
:101400007400436D643A2053572D4D6F646500425C
:101410006564004E6F7A7A6C650046616E20537089
:1014200065656400436F6E66696775726174696FA4
:101430006E00000C0D00FE07022603BC017FFE08B3
:10144000FE08FE05080806000040F0C88888987865
:1014500010050808060000C0F88888888888F80504
:1014600005050600012030F83020050808060000B8
:101470002070F820202020E00509090600FF2070D8
:10148000A8A8B888887020050606060001E08CEA46
:101490008C8A0A0509090600FFF8A88888888888C8
:1014A000A8F8050A0A0600FE205050505088A8A847
:1014B000887003030306000340A040FFFFFFFFFF07
:1014C000FFFFFFFFFFFFFFFFFFFFFFFFFFFFFFFF2C
:1014D000FF0000000605FF0107070602008080806C
:1014E00080800080030303060105A0A0A005060676
:1014F00006000050F85050F8500509090600FF207A
:1015000070A8A07028A87020050707060000C8C8AA
:10151000102040989805070706000040A0A040A8AA
:101520009068010303060205808080030909060113
:10153000FF2040408080804040200309090601FFD1
:101540008040402020204040800507070600002002
:10155000A8702070A8200505050600012020F820AD
:10156000200203030601FFC04080050101060003BD
:10157000F8020202060100C0C005070706000008C5
:10158000101020404080050707060000708898A8CA
:10159000C8887003070706010040C040404040E093
:1015A000050707060000708808102040F8050707A7
:1015B000060000F8081030088870050707060000CC
:1015C00010305090F81010050707060000F880F062
:1015D00008088870050707060000304080F08888FA
:1015E00070050707060000F80810102020200507E6
:1015F0000706000070888870888870050707060055
:101600000070888878081060020505060100C0C0D7
:1016100000C0C00206060601FFC0C000C040800333
:101620000505060101204080402005030306000255
:10163000F800F803050506010180402040800507F9
:10164000070600007088102020002005070706000C
:10165000007088B8A8B88070050707060000708879
:1016600088F8888888050707060000F04848704811
:1016700048F00507070600007088808080887005A4
:101680000707060000F04848484848F005070706E5
:101690000000F88080F08080F8050707060000F859
:1016A0008080F080808005070706000070888080B9
:1016B000988870050707060000888888F888888859
:1016C000030707060100E04040404040E0050707EF
:1016D0000600003810101010906005070706000083
:1016E0008890A0C0A0908805070706000080808031
:1016F000808080F805070706000088D8A8888888B9
:10170000880507070600008888C8A8988888050704
:10171000070600007088888888887005070706001B
:1017200000F08888F0808080050707060000708838
:101730008888A89068050707060000F08888F0A050
:10174000908805070706000070888070088870057B
:101750000707060000F820202020202005070706A4
:101760000000888888888888700507070600008838
:1017700088888850502005070706000088888888D8
:10178000A8A85005070706000088885020508888C0
:10179000050707060000888850202020200507073D
:1017A000060000F80810204080F80309090601FF30
:1017B000E080808080808080E00507070600008050
:1017C0004040201010080309090601FFE0202020F6
:1017D00020202020E0050303060005205088050195
:1017E000010600FEF80303030601058040200505FD
:1017F0000506000070087888780507070600008055
:1018000080F0888888F005050506000070808088D3
:10181000700507070600000808788888887805059D
:10182000050600007088F08070050707060000308C
:101830004840E04040400507070600FE7088888861
:101840007808700507070600008080F0888888887F
:101850000307070601004000C0404040E0040909BA
:101860000601FE10003010101010906005070706EA
:10187000000080808890E09088030707060100C080
:101880004040404040E0050505060000D0A8A8A85B
:10189000A8050505060000B0C88888880505050666
:1018A000000070888888700507070600FEF08888A9
:1018B00088F080800507070600FE78888888780809
:1018C00008050505060000B0C880808005050506EE
:1018D000000078807008F00507070600002020F857
:1018E00020202018050505060000888888986805CE
:1018F00005050600008888885020050505060000BB
:101900008888A8A850050505060000885020508842
:101910000507070600FE88888850204080050505D9
:10192000060000F8102040F80309090601FF2040D6
:10193000404080404040200109090602FF8080802D
:101940008080808080800309090601FF804040403C
:10195000204040408005030306000248A890FF5045
:1019600072696E742050617573656400526573749A
:101970006F7265206661696C73616665004C6F61AA
:10198000642053657474696E67730053746F726575
:101990002053657474696E67730050726568656181
:1019A00074205045544720436F6E6600507265683E
:1019B00065617420504C4120436F6E66004F66662F
:1019C000004F6E004F7574616765205265636F76D6
:1019D00065727900424C546F7563680050726F6293
:1019E00065205A204F666673657400416476616EA7
:1019F0006365642053657474696E6773004D616933
:101A00006E004D313030300053746F702050726969
:101A10006E7400526573756D65205072696E740046
:101A20004F7574616765205265636F7665727900E2
:101A30003F004261636B0053746F70005072696EB7
:101A4000742066726F6D204D65646961004D32319E
:101A5000004368616E6765204D6564696100436F8E
:101A60006E66696775726174696F6E0054656D703A
:101A700065726174757265004D6F74696F6E0052A6
:101A80006573756D65205072696E740054756E656E
:101A90000053746F70205072696E740050617573DA
:101AA00065205072696E74004E6F204D65646961E7
:101AB00000496E666F2053637265656E003F005388
:101AC00074617274205072696E740043616E636554
:101AD0006C005072696E740043616E6E6F742065A5
:101AE0006E746572207375626469723A2000022E0A
:101AF0002E004D61696E004D6F74696F6E004D3838
:101B0000340044697361626C65205374657070655C
:101B1000727300426564204C6576656C696E67007F
:101B2000473238205A00486F6D65205A00473238D6
:101B3000205900486F6D6520590047323820580001
:101B4000486F6D65205800473238004175746F202A
:101B5000486F6D65004D61696E0050726568656122
:101B60007420504C4120456E640050726568656178
:101B70007420504C41204265640050726568656174
:101B800074205045544720456E6400507265686566
:101B900061742050455447204265640054656D705F
:101BA0006572617475726500436F6F6C646F776EF8
:101BB000005072656865617420504554470050724A
:101BC000656865617420504C410046616E20537019
:101BD000656564203D00426564004E6F7A7A6C65ED
:101BE000004D61696E0050726F6265205A204F6629
:101BF0006673657400466C6F770046616E205370A3
:101C0000656564203D00426564004E6F7A7A6C65BC
:101C1000005370656564004D61696E002568753A12
:101C200025303268750025303268753A25303268C3
:101C30007500256875642025303268753A25303284
:101C40006875002020202020202000202020200057
:101C50001FE0201020102010102010202010201035
:101C600030300840048003001FE03FF03FF03FF0B9
:101C70001FE01FE03FF03FF03FF00FC00780030080
:101C80003FFFF038007030FC3020FC10207810202E
:101C900030102C00D02E31D02F7BD02F7BD02E3186
:101CA000D02C00D020301020781020FC1030FC30D8
:101CB0003800703FFFF03FFFF0380070318630236E
:101CC00087102787902F87D02F03D02030102078BF
:101CD000102078102030102F03D02F87D027879026
:101CE0002387103186303800703FFFF01FFFF81F48
:101CF000FFF80410400208200208200410400820C9
:101D000080104100104100082080041040000000B5
:101D10001FFFF81FFFF84D656469612052656D6F04
:101D2000766564004D6564696120496E73657274FF
:101D300065640043415468696E6B65725632207663
:101D4000302E322052656164792E005072696E74B3
:101D5000696E672E2E2E005072696E742041626F7C
:101D600072746564004D32350050617573652050A2
:101D700072696E740000009643000096430000C82C
:101D800043000000000000000000000000290A00DD
:101D90002062797465733B2063726320005365741D
:101DA00074696E67732053746F72656420280045F0
:101DB0004550524F4D206461746173697A652065A6
:101DC00072726F722E0A00290A002062797465739C
:101DD0003B2063726320002073746F72656420730C
:101DE000657474696E67732072657472696576656F
:101DF00064202800202863616C63756C61746564DD
:101E000029210A0020213D2000454550524F4D20F8
:101E1000435243206D69736D61746368202D2028DF
:101E200073746F7265642920002053697A653A20C3
:101E300000496E6465783A2000204D61726C696ECD
:101E40003D563734290A00454550524F4D2076659E
:101E50007273696F6E206D69736D61746368202899
:101E6000454550524F4D3D0048617264636F646553
:101E7000642044656661756C742053657474696E82
:101E80006773204C6F616465640A0000009643002C
:101E90000096430000A0400000C8410000A042009E
:101EA00000A0420000C8430000BA42DC050000DC8C
:101EB00005000032000000DC0500003A0A00202086
:101EC0004D3835312058005A2D50726F6265204FC1
:101ED00066667365740020204D3431332053005002
:101EE0006F7765722D4C6F7373205265636F7665E3
:101EF00072793A0A0020440020490020204D3330F6
:101F00003420500020440020490020204D3330313F
:101F10002050005049442073657474696E67733AA9
:101F20000A0020460020420020480020204D313485
:101F3000352053004D6174657269616C206865617C
:101F400074757020706172616D65746572733A0AA0
:101F500000204A0020204732392057204900202005
:101F60004D3432302053004175746F204265642037
:101F70004C6576656C696E673A0A0020204D3230F8
:101F800036205800486F6D65206F66667365743A39
:101F90000A0020580020540020530020204D3230E9
:101FA0003520420020453C6D61785F655F6A65724F
:101FB0006B3E0020583C6D61785F785F6A65726B9C
:101FC0003E20593C6D61785F795F6A65726B3E2097
:101FD0005A3C6D61785F7A5F6A65726B3E0041645E
:101FE00076616E6365643A20423C6D696E5F73652D
:101FF000676D656E745F74696D655F75733E2053C0
:102000003C6D696E5F66656564726174653E2054FF
:102010003C6D696E5F74726176656C5F6665656460
:10202000726174653E0020540020520020204D3221
:102030003034205000416363656C65726174696F70
:102040006E2028756E6974732F7332293A20503CC4
:102050007072696E745F616363656C3E20523C729E
:102060006574726163745F616363656C3E20543CA8
:1020700074726176656C5F616363656C3E0A002013
:10208000204D3230312058004D6178696D756D20DA
:10209000416363656C65726174696F6E2028756E4B
:1020A0006974732F7332293A0A0020204D3230337D
:1020B0002058004D6178696D756D206665656472A4
:1020C000617465732028756E6974732F73293A0AD9
:1020D0000053746570732070657220756E69743A70
:1020E0000A0020204D3230302044300A0020204D9C
:1020F0003230302044002044697361626C65640AA8
:102100000046696C616D656E742073657474696EE8
:1021100067733A0020204D3134392043203B20554D
:102120006E69747320696E2043656C736975730AF8
:102130000020286D6D2900202047323120202020EA
:102140003B20556E69747320696E206D6D006F7051
:10215000656E00545249474745524544003A2000B5
:102160007A5F6D696E00795F6D696E00785F6D6989
:102170006E005265706F7274696E6720656E64736D
:10218000746F70207374617475730A00205A3A007A
:1021900020593A0020436F756E7420583A0020454C
:1021A0003A00205A3A0020593A00583A0020746FF9
:1021B0006F206C6F6E6720657874727573696F6ECF
:1021C0002070726576656E7465640A0020636F6CBA
:1021D0006420657874727573696F6E2070726576AD
:1021E000656E7465640A00486F6D696E67204661AC
:1021F000696C656400000000000000000000000041
:1022000000000048420000484200008040576172D0
:102210006E696E673A20486F6D696E672042756D12
:10222000702044697669736F72203C20310A000285
:1022300002040000A0400000A04000000040000098
:102240009643000096430000C843FFFFFF24F4D4E8
:102250003050C38E20C2A24017828B7011127A9127
:102260000D816CD90AA861E108C75866076151431E
:10227000061E4B5D05C145A7041A411104093D988E
:1022800003713931034036DB0265339102D4305497
:1022900002802E1D02632CEE01752AC501B028A014
:1022A00001102781018F2564012B244B01E022348A
:1022B00001AC211F018D200D01801FFC00841EED4B
:1022C00000971DDF00B81CD200E61BC600201BBC17
:1022D00000641AB200B219A8000A19A0006A18997D
:1022E00000D117910040178B00B516840031167E7F
:1022F00000B31579003A157300C7146F0058146ABB
:1023000000EE1366008813630025135E00C7125B9E
:10231000006C12570015125400C111510070114F7A
:102320000021114B00D61049008D10470046104483
:102330000002104200C00F4000800F3E00420F3CE0
:1023400000060F3B00CB0E3800930E37005C0E35B5
:1023500000270E3400F30D3200C10D3100900D3016
:1023600000600D2E00320D2D00050D2C00D90C2B18
:1023700000AE0C2900850C29005C0C2700350C27C9
:10238000000E0C2600E80B2400C40B2400A00B2335
:10239000007D0B23005A0B2100390B2100180B2064
:1023A00000F80A1F00D90A1E00BB0A1E009D0A1D64
:1023B00000800A1D00630A1C00470A1B002C0A1B30
:1023C00000110A1A00F7091A00DD091900C40919D9
:1023D00000AB091900920917007B0918006309175F
:1023E000004C09160036091600200916000A0915C6
:1023F00000F5081500E0081400CC081400B8081413
:1024000000A4081400900813007D0812006B081344
:102410000058081200460812003408110023081161
:10242000001208110001081100F0071000E0071069
:1024300000D0071000C0071000B0070F00A1071060
:102440000091070E0083070F0074070F0065070E49
:102450000057070E0049070E003B070D002E070E20
:102460000020070D0013070D0006070D00F9060CEC
:1024700000ED060D00E0060C00D4060C00C8060CAA
:1024800000BC060C00B0060C00A4060B0099060C5C
:10249000008D060B0082060B0077060B006C060B06
:1024A0000061060A0057060B004C060A0042060AA5
:1024B0000038060A002E060A0024060A001A060A38
:1024C000001006090007060A00FD050900F40509C9
:1024D00000EB050900E2050900D9050900D005094E
:1024E00000C7050900BE050900B5050800AD0508CF
:1024F00000A50509009C050800940508008C050846
:1025000000840508007C050800740508006C0507B8
:1025100000650508005D050700560508004E050723
:10252000004705070040050800380507003105078A
:10253000002A050700230507001C050600160507ED
:10254000000F0507000805060002050700FB04064A
:1025500000F5040700EE040600E8040600E20407A4
:1025600000DB040600D5040600CF040600C90406FB
:1025700000C3040600BD040600B7040600B104054C
:1025800000AC040600A6040600A00405009B040697
:102590000095040500900406008A040500850405E2
:1025A00000800406007A0405007504050070040527
:1025B000006B04050066040500610405005C040569
:1025C0000057040500520405004D040500480405A9
:1025D00000430405003E0404003A040500350405E8
:1025E00000300404002C0405002704040023040523
:1025F000001E0404001A040400160405001104045B
:10260000000D04040009040500040404000004048F
:1026100000FC030400F8030400F4030400F00304C6
:1026200000EC030400E8030400E4030400E00304F6
:1026300000DC030400D8030400D4030400D0030426
:1026400000CC030400C8030300C503030024F40402
:10265000D9201BC40C5C0E9804C4095F0265077185
:1026600001F405F900FB04B30048048700C10369C5
:10267000005803550003034500BE023A00840231AE
:102680000053022A002902250004022000E4011C54
:1026900000C8011900AF011700980114008401134C
:1026A00000710110006101100051010E0043010D85
:1026B0000036010B002B010B0020010B0015010956
:1026C000000C01090003010800FB000800F30008EA
:1026D00000EB000700E4000600DE000600D800065C
:1026E00000D2000600CC000500C7000500C20005AE
:1026F00000BD000400B9000400B5000400B10004EE
:1027000000AD000400A9000400A5000300A200031E
:10271000009F0004009B0003009800030095000246
:102720000093000300900003008D0002008B000363
:10273000008800020086000200840003008100027D
:10274000007F0002007D0002007B00020079000291
:1027500000770001007600020074000200720001A0
:1027600000710002006F0002006D0001006C0002A9
:10277000006A0001006900020067000100660001B4
:1027800000650001006400020062000100610001B8
:1027900000600001005F0002005D0001005C0001BC
:1027A000005B0001005A00010059000100580001BF
:1027B00000570001005600010055000100540001BF
:1027C00000530000005300010052000100510001BD
:1027D00000500001004F0001004E0000004E0001BB
:1027E000004D0001004C0001004B0000004B0001B7
:1027F000004A0001004900010048000000480001B3
:1028000000470001004600000046000100450000AE
:1028100000450001004400010043000000430001A6
:1028200000420000004200010041000000410001A0
:1028300000400001003F0000003F0001003E00009A
:10284000003E0001003D0000003D0001003C000092
:10285000003C0000003C0001003B0000003B000188
:10286000003A0000003A0001003900000039000180
:102870000038000000380000003800010037000078
:10288000003700010036000000360000003600016D
:102890000035000000350000003500010034000064
:1028A0000034000000340001003300000033000059
:1028B000003300010032000000320000003200014D
:1028C0000031000000310000003100010030000044
:1028D0000030000000300001002F0000002F000039
:1028E000002F0000002F0001002E0000002E00002D
:1028F000002E0001002D0000002D0000002D000022
:10290000002D0001002C0000002C0000002C000015
:10291000002C0001002B0000002B0000002B000009
:10292000002B0001002A0000002A0000002A0000FD
:10293000002A0001002900000029000000290000F1
:1029400000290000002900010028000000280000E4
:1029500000280000002800000028000100270000D7
:1029600000270000002700000027000000270001CA
:1029700000260000002600000026000000260000BF
:1029800000260001002500000025000000250000B1
:1029900000250000002500000025000100240000A3
:1029A0000024000000240000002400000024000196
:1029B000002300000023000000230000002300008B
:1029C000002300000023000000230001002200007B
:1029D000002200000022000000220000002200006F
:1029E0000022000100210000002100000021000061
:1029F0000021000000210000002100000021000152
:102A00000020000000200000002000000020000046
:102A10000020000000200000002000000020000135
:102A2000001F0000001F0000001F0000001F00002A
:102A3000001F0000001F0000001F0001001E00001A
:102A4000001E0000001E0000001E000000043700F1
:102A5000001E290000511B00005810000010090042
:102A600000CC04000078020000410100004D6963C1
:102A7000726F737465707320756E617661696C61D5
:102A8000626C650A0045313A200045303A20005A10
:102A90003A2000593A20004D53312C4D53322C4DE1
:102AA00053332050696E730A583A2000004265641F
:102AB00000453100626564002C2073797374656D84
:102AC0002073746F7070656421204865617465724D
:102AD0005F49443A200048656174696E6720666109
:102AE000696C656400546865726D616C2052756E26
:102AF000617761790048656174696E672046616934
:102B00006C65640048656174696E67206661696C14
:102B1000656400546865726D616C2052756E6177F2
:102B2000617900544845524D414C2052554E415711
:102B3000415900546865726D616C2052756E617701
:102B40006179004572723A204D415854454D50000C
:102B50004D415854454D50207472696767657265E0
:102B600064004572723A204D494E54454D50004D17
:102B7000494E54454D5020747269676765726564AB
:102B8000004D383420582059205A204500202F006D
:102B90002042403A0020403A007C3C3E5E2B3D3FC4
:102BA0002F5B5D3B2C2A225C0040012C017301222B
:102BB00001AB011801F3010E0148020401AC02FA55
:102BC000002A03F000C303E6008004DC006D05D298
:102BD000006C06C800C707BE007009B4006D0BAAE0
:102BE00000CB0DA000CF138C00F21B7800E9246409
:102BF00000142E50009C353C00B83A2800A03D142B
:102C0000000B3F000043616E6E6F74206F70656E45
:102C1000207375626469722000534420636172649A
:102C2000206F6B0A006F70656E526F6F7420666163
:102C3000696C65640A00766F6C756D652E696E69E6
:102C400074206661696C65640A00534420696E698A
:102C500074206661696C0A004D3234004D323320B5
:102C600025730057726974696E6720746F206669F6
:102C70006C653A20002E0A006F70656E20666169EF
:102C80006C65642C2046696C653A20002E0A006F42
:102C900070656E206661696C65642C2046696C65A0
:102CA0003A200046696C652073656C6563746564E1
:102CB0000A002053697A653A200046696C65206FE6
:102CC00070656E65643A2000667265736800646FB3
:102CD000696E67002066696C653A20004E6F772048
:102CE00000454E4420535542524F5554494E450AD3
:102CF000002220706F73002220706172656E743A3A
:102D00002200535542524F5554494E452043414CA1
:102D10004C207461726765743A2200747279696E2E
:102D20006720746F2063616C6C207375622D67631C
:102D30006F64652066696C657320776974682074B8
:102D40006F6F206D616E79206C6576656C732E20D7
:102D50004D4158206C6576656C2069733A310A00E4
:102D60002E0A0044656C6574696F6E206661696C3B
:102D700065642C2046696C653A200046696C6520C4
:102D800064656C657465643A0057726974696E674E
:102D900020746F2066696C653A20002E0A006F70FF
:102DA000656E206661696C65642C2046696C653AC5
:102DB0002000642E0A00206661696C65642E0A009A
:102DC000506F7765722D6C6F73732066696C652028
:102DD00064656C6574650000002200250028002BE6
:102DE000002E003100340002010000050108010B33
:102DF00001000020002300260029002C002F0032B3
:102E0000000001000003010601090100000A0B0295
:102E1000090C0D0E0807030401000000000000006B
:102E200000000000000000000000000000000000A2
:102E3000000000000000001211100000000000005F
:102E40000000000000000000000000000000000082
:102E500000687474703A2F2F6D61726C696E6677BA
:102E60002E6F726700322E302E780001FFFFFFFFB9
:102E7000FFFFFFFFFFFFFFFFFF0FFFFFFFFFFFFF52
:102E8000FFFFFFFFFFFFFF1E00000000000000002B
:102E9000000007FFFF3800000000000000000000F5
:102EA00003FFFF700000000000000000000001FFB1
:102EB000FF600000000000000000000000FFFF6055
:102EC00000000000000000000000007FFFC00000C4
:102ED0000000000000007800003FFFC00FC0FC00B1
:102EE000000000007818001FFFC03FE1FF00000055
:102EF0000000783C000FFFC07FF3FF80000000005F
:102F0000783C0007FFC0FFFFFFC000000000783CD6
:102F10000003FFC1F87F87E0000000007800000197
:102F2000FFC1F03F03E00000000078000000FFC197
:102F3000E01E01E01F0003E0783C03F07FC1E01ECB
:102F400001E07FC00FF8783C07FC3FC1E01E01E1C3
:102F5000FFE01FFC783C0FFE1FC1E01E01E3FFF005
:102F60003FFE783C1FFE0FC1E01E01E3F3F83F3E39
:102F7000783C3F3F07C1E01E01E7E0FC7C1F783C46
:102F80003E1F07C1E01E01E7C07C7C0F783C3C0F70
:102F900003C1E01E01E7807C780F783C3C0F03C141
:102FA000E01E01E7803C7800783C3C0F03C1E01E46
:102FB00001E7803C7800783C3C0F03C1E01E01E74C
:102FC000803C7800783C3C0F03C1E01E01E7C03C28
:102FD0007800783C3C0F03C1E01E01E3E03C780040
:102FE0007C3C3C0F03C1E01E01E3FF3FF8007FBCC7
:102FF0003C0F03C1E01E01E1FF3FF8003FBFFC0FA3
:1030000003C1E01E01E0FF3FF8001FBFFC0F03C13A
:10301000E01E01E07F3FF8000FBFFC0F03600000DF
:103020000000000000000000000007600000000039
:10303000000000000000000006700000000000001A
:103040000000000000000E3800000000000000003A
:10305000000000001C1E0000000000000000000036
:103060000000780FFFFFFFFFFFFFFFFFFFFFFFFFE5
:10307000F001FFFFFFFFFFFFFFFFFFFFFFFF8000EB
:10308000002100240027002A002D00300033000119
:10309000010000040107010A0101021020200808B4
:1030A00010204010204080020102010804020101AA
:1030B0000204081020408080402010080402018093
:1030C00004020180402010080402010804020101EA
:1030D00002040810204080010204081020408005EE
:1030E000050505070508080808020202020A0A0881
:1030F00008040404040101010101010101030303A7
:103100000303030303040707070C0C0C0C0C0C0C43
:103110000C0202020206060606060606060B0B0B4A
:103120000B0B0B0B0B4D313030302053002050492E
:10313000445F64543A0020643A002069693A0020F0
:10314000703A002020506C616E6E65724275666642
:10315000657242797465733A200020467265652075
:103160004D656D6F72793A2000436F6D70696C65C3
:10317000643A204D617920203920323032300A0003
:10318000204C61737420557064617465643A203218
:103190003031392D31322D3031207C204175746829
:1031A0006F723A20286E6F6E652C206465666175BB
:1031B0006C7420636F6E666967290A00322E302EA8
:1031C000780A004D61726C696E0020536F667477E7
:1031D0006172652052657365740A002057617463DB
:1031E00068646F672052657365740A002042726FCD
:1031F000776E206F75742052657365740A002045E0
:10320000787465726E616C2052657365740A005043
:103210006F77657255700A0073746172740A006189
:1032200075746F25632E67004732385859006572F0
:10323000726F722077726974696E6720746F20668E
:10324000696C650A00446F6E6520736176696E670C
:103250002066696C652E0A004D323900456E647334
:10326000746F707300255320256320256320256328
:1032700020256300205A3A0020593A0020583A008D
:10328000656E6473746F7073206869743A20004DC2
:103290006F76652025736D6D00004D6F766520306B
:1032A0002E316D6D004D6F766520316D6D004D6F67
:1032B00076652031306D6D004D6F766520417869FF
:1032C0007300486F74656E6420746F6F20636F6C59
:1032D00064004578747275646572004D6F76652080
:1032E0005A004D6F76652059004D6F766520580065
:1032F0005072696E742066726F6D204D65646961ED
:103300000050726F62696E67204661696C65640A7D
:103310000050726F62696E67204661696C65640077
:10332000205A3A200020593A200042656420583A39
:103330002000486F6D65202573257325732046692D
:1033400072737400220A00556E6B6E6F776E206385
:103350006F6D6D616E643A20220020746F6F206C77
:103360006F6E6720657874727573696F6E20707206
:103370006576656E7465640A0020636F6C64206511
:103380007874727573696F6E2070726576656E748D
:1033900065640A00204500205A00205900204D395C
:1033A000322058002E0A006F70656E206661696CCD
:1033B00065642C2046696C653A20000098009A00EC
:1033C00011241FBECFEFD1E2DEBFCDBF00E00CBFA6
:1033D00013E0A0E0B2E0E6E9F6E402E00BBF02C0D1
:1033E00007900D92AC34B107D9F726E1ACE4B3E015
:1033F00001C01D92AE30B207E1F719E1CFEDD9E17E
:1034000000E006C021970109802FFE010F94AC2235
:10341000CE3DD10780E00807A9F70F94A70E0D94C1
:103420003A230C940000CF93DF9300D01F92CDB7C6
:10343000DEB784EF91E0A0E0B0E089839A83AB83AC
:10344000BC83BE016F5F7F4F80EA0E946B460F9086
:103450000F900F900F90DF91CF910895CF93DF934E
:1034600000D01F92CDB7DEB784EF91E0A0E0B0E0CE
:1034700089839A83AB83BC83BE016F5F7F4F88E7EC
:103480000E946B460F900F900F900F90DF91CF919D
:103490000895CF93DF9300D01F92CDB7DEB784EFAE
:1034A00091E0A0E0B0E089839A83AB83BC83BE0146
:1034B0006F5F7F4F8CE30E946B460F900F900F90D1
:1034C0000F90DF91CF910895CF93DF9300D01F929B
:1034D000CDB7DEB78EEE92E0A0E0B0E089839A83AC
:1034E000AB83BC83BE016F5F7F4F8AE00E946B4657
:1034F0000F900F900F900F90DF91CF910895CF9381
:10350000DF9300D01F92CDB7DEB78EEE92E0A0E041
:10351000B0E089839A83AB83BC83BE016F5F7F4F2A
:103520008AE50E946B460F900F900F900F90DF91ED
:10353000CF9108950C949025CF93DF93EC01CB01AC
:10354000BA010F942A1920E030E048EC51E40F94BE
:1035500089190F94F520688379838A839B83DF918F
:10356000CF910895CF93DF93EC01CB01BA010F9473
:103570002A192AE037ED43E25CE30F948919688346
:1035800079838A839B83DF91CF910895CF93DF93D3
:10359000EC01CB01BA010F942A192AE037ED43E27E
:1035A0005CE30F948919688379838A839B83DF9115
:1035B000CF910895CF93DF93EC01CB01BA010F9423
:1035C0002A192DEC3CEC4CEC5DE30F9489196883CF
:1035D00079838A839B83DF91CF910895CF93DF9383
:1035E000EC01CB01BA010F942A1920E030E048EC3D
:1035F00051E40F948919688379838A839B83DF91CF
:10360000CF910895CF93DF93EC01CB01BA010F94D2
:103610002A19688379838A839B83DF91CF910895E8
:10362000CF93DF93EC01CB01BA010F942A19688381
:1036300079838A839B83DF91CF910895CF93DF9322
:10364000EC01CB01BA010F942A192FE632E143E8CD
:103650005AE30F948919688379838A839B83DF9166
:10366000CF910895CF93DF93EC01CB01BA010F9472
:103670002A190F94F02079836883DF91CF91089500
:10368000CF93DF93EC01CB01BA010F942A1923E306
:1036900033E343E250E40F9489190F94F5206883D3
:1036A000DF91CF910895FC0184910895FC01808100
:1036B00008959091050194709093030187FD68C06F
:1036C000A398909105019095947090930301909127
:1036D000050194709093030186FD66C0A3989091B4
:1036E0000501909594709093030190910501947059
:1036F0009093030185FD56C0A39890910501909584
:10370000947090930301909105019470909303013C
:1037100084FD46C0A3989091050190959470909374
:1037200003019091050194709093030183FD36C0CD
:10373000A3989091050190959470909303019091B6
:10374000050194709093030182FD26C0A398909187
:1037500005019095947090930301909105019470E8
:103760009093030181FD16C0A39880910501809577
:10377000847080930301809105018470809303011C
:10378000A39880910501809584708093030108952A
:10379000A39A97CFA39AE9CFA39AD9CFA39AC9CFD7
:1037A000A39AB9CFA39AA9CFA39A99CF089590E0ED
:1037B00080E008959091F907292F30E0F901E45154
:1037C000FD4E8083220F331F220F331FF901E65E67
:1037D000F54F40912E0450912F0460913004709168
:1037E000310440835183628373839F5F943040F43C
:1037F0009093F90780917D098F5F80937D090895EB
:103800001092F907F7CF282F90910804833021F404
:1038100095FD0FC094FD0FC0892F90E0B0E0A0E0AF
:1038200004C0B695A795979587952A95D2F781708C
:10383000089581E0089580E008952F923F924F927D
:103840005F926F927F928F929F92AF92BF92CF9230
:10385000DF92EF92FF920F931F93CF93DF93CDB739
:10386000DEB72E970FB6F894DEBF0FBECDBFF82E91
:10387000E62E042F122F282F30E03A872987862F33
:1038800090E09C878B87220F331FA985BA852A0F6A
:103890003B1F3E872D87FC01E20FF31FEE0FFF1F3A
:1038A000EE0FFF1FEC5DFA4F608171818281938181
:1038B0009B01AC010F945A22882309F440C1802F48
:1038C0008F0D612F6E0D282F30E0F901EE0FFF1FD5
:1038D000E20FF31FAB85BC85AE0FBF1FAA0FBB1F46
:1038E000AA0FBB1FAC5DBA4FAC901196BC9011975C
:1038F0001296CC9012971396DC90080F802F90E0D0
:10390000AC01440F551F480F591FAB85BC85A40F50
:10391000B51FAA0FBB1FAA0FBB1FAC5DBA4FEC901F
:103920001196FC90119712960C91129713969C90F9
:10393000862F90E0AD85BE85A80FB91FAA0FBB1FCB
:10394000AA0FBB1FAC5DBA4F8C9011967C9011975B
:1039500012966C90129713965C90610F70E02D8513
:103960003E85260F371F220F331F220F331F2C5D7A
:103970003A4F3E872D87D9014C9011963C90119774
:1039800012961C91129713962C90E80FF91FEE0FC8
:10399000FF1FEE0FFF1FEC5DFA4FB081B98321814D
:1039A0002A8332813B8383818C83FA01E60FF71FE0
:1039B000EE0FFF1FEE0FFF1FEC5DFA4F90819D830E
:1039C000A181AE83B281BF83238128879701402FD5
:1039D000592DB701802F992D0F945A22882321F059
:1039E000E12CF12C00E0912C9501A601B501C60156
:1039F0000F945A22882319F05701C02ED92C242D58
:103A0000332D412F522D642D732D812F922D0F9424
:103A10005A22882321F0412C312C10E0212C282D12
:103A2000372D462D552D682D772D862D952D0F94EC
:103A30005A22882321F0842C732C612E522C2D8144
:103A40003E814F8158856D817E818F8198850F944D
:103A50005A22882321F01D821E821F821886298106
:103A60003A814B815C8169817A818B819C810F9441
:103A70005A22882341F03D8139838E818A839F8138
:103A80009B83A885AC83E985FA85EE0FFF1F298506
:103A90003A85E20FF31F8B859C85E80FF91FEE0F27
:103AA000FF1FEE0FFF1FEC5DFA4FFA87E9879501C4
:103AB000A601B501C6010F94AC1F9701402F592DE7
:103AC0000F94AB1F6B017C01282D372D462D552DF2
:103AD000682D772D862D952D0F94AC1F242D332D19
:103AE000412F522D0F94AB1F9B01AC01C701B601B2
:103AF0000F94AC1F6B017C0129813A814B815C8161
:103B000069817A818B819C810F94AC1F2D813E81CC
:103B10004F8158850F94AB1F9B01AC01C701B601C3
:103B20000F94AC1F20E030E040E450E40F94882074
:103B3000A985BA856D937D938D939C9313972E964B
:103B40000FB6F894DEBF0FBECDBFDF91CF911F91AE
:103B50000F91FF90EF90DF90CF90BF90AF909F902C
:103B60008F907F906F905F904F903F902F9008952F
:103B7000149A08950F942A190F94F020CB010C94F5
:103B800063B8CF92DF92EF92FF926B017C0120E04D
:103B900030E0A9010F94241920E030E040E05FE319
:103BA00087FF04C020E030E040E05FEBC701B601D2
:103BB0000F94AC1F0F94F020CB01FF90EF90DF909B
:103BC000CF900C9463B80F942A19DBCF0F942A1965
:103BD00023E333E343E250E40F9489190F94F52073
:103BE000862F0C94A9BEEF92FF920F931F9382EE43
:103BF000E82E82E1F82E10E000E025EF32E144E902
:103C000054E264EE72E18BEE92E10E94B4FB1F91EC
:103C10000F91FF90EF9008950C94219D0C94219D9D
:103C20000C94219D0C94219DCF93DF9300D01F9283
:103C3000CDB7DEB70F942A192DEC3CEC4CEC5DE3CC
:103C40000F94891969837A838B839C83CE010196B3
:103C50000E9459B50F900F900F900F90DF91CF9168
:103C60000895CF93DF9300D01F92CDB7DEB70F94A6
:103C70002A192AE037ED43E25CE30F94891969833E
:103C80007A838B839C83CE0101960E940AB60F90A3
:103C90000F900F900F90DF91CF9108950C94D39CCB
:103CA0000C94D39C0C94D39C0C94D39CCF93DF9313
:103CB00000D01F92CDB7DEB70F942A1920E030E074
:103CC00048EC51E40F94891969837A838B839C8330
:103CD000CE0101960E94A9B60F900F900F900F9001
:103CE000DF91CF910895CF93DF9300D01F92CDB78E
:103CF000DEB70F942A1969837A838B839C83CE0164
:103D000001960E94A9B60F900F900F900F90DF912F
:103D1000CF910895CF93DF9300D01F92CDB7DEB738
:103D20000F94F5200F94281969837A838B839C83E1
:103D3000CE0101960E94A9B60F900F900F900F90A0
:103D4000DF91CF9108950F942A1920E030E048ECDC
:103D500051E40F948919DECFCF93DF9300D01F92E7
:103D6000CDB7DEB70F942A192AE037ED43E25CE3C2
:103D70000F94891969837A838B839C83CE01019682
:103D80000E942FB70F900F900F900F90DF91CF915F
:103D90000895CF93DF9300D01F92CDB7DEB70F9475
:103DA0002A192FE632E143E85AE30F94891969830F
:103DB0007A838B839C83CE0101960E94C7F30F9078
:103DC0000F900F900F90DF91CF910895AF92BF9217
:103DD000CF92DF92EF92FF920F931F93CF93DF93D7
:103DE0006B01E9014A3009F4ADC0453109F062C008
:103DF000DB011296ED91FC91F280C681D781A49AE5
:103E000088E28A950000E9F7BF2CB29420EFB22235
:103E100030E1A32EAF0C48E2E42E88EF4ADC8E2D71
:103E20008A950000E9F7BFE1BF1508F47AC08F2D2D
:103E3000807780683EDC8B2D3CDC8E2D8A950000DF
:103E4000E9F780E836DC80E034DC8E2D8A950000CE
:103E5000E9F78AEF2EDC8E2D8A950000E9F78E01B6
:103E6000005F1F4F8881807F24DC89918295807F4D
:103E700020DCC017D107B1F78E2D8A950000E9F735
:103E8000F394E0E1BE0EFA10C8CFA498D6011296C2
:103E9000CD91DC91CE010E94B6F9811111C2DF9162
:103EA000CF911F910F91FF90EF90DF90CF90BF9037
:103EB000AF900895FB0102811381423309F4BBC125
:103EC00008F4BFC1463409F4ACC1473409F4AFC1AA
:103ED0004B3329F589812B81D80112966C91129769
:103EE00013964C91213009F402C2233009F0CCC161
:103EF00038EF380F582F91E0431708F490E041E075
:103F0000531708F040E031E0561708F430E0592F1D
:103F1000542B352309F0E0C1942309F0DDC181E081
:103F2000BECF80EE8F0D8068807FC3DB8F2D8295A2
:103F3000807FBFDB8E2D8A950000E9F780E8B9DB32
:103F400080E882CF9C9AA4989B9AA39880910401C0
:103F50008460809304018091050180958470809332
:103F60000301A49A88E28A950000E9F788E790E0C7
:103F7000CEE9DFE0FE013197F1F70197D9F788EF3D
:103F800098DB18E2812F8A950000E9F780E291DB47
:103F900080E08FDB812F8A950000E9F780E089DBE4
:103FA00080E887DB812F8A950000E9F780E081DBDC
:103FB00080E17FDB812F8A950000E9F7CE01019730
:103FC000F1F7CE010197F1F7CE010197F1F7CE019C
:103FD0000197F1F7CE010197F1F7CE010197F1F7C3
:103FE000CE010197F1F7CE010197F1F7CE010197CC
:103FF000F1F7CE010197F1F7CE010197F1F7CE016C
:104000000197F1F7CE010197F1F7CE010197F1F792
:104010002197F1F780E24DDB80E44BDB812F8A951D
:104020000000E9F780E245DB80E643DB1A950000FB
:10403000E9F710E0D0E0C8E28D2F8077806839DBA7
:10404000812F37DB8C2F8A950000E9F780E831DB80
:1040500080E02FDB8C2F8A950000E9F78AEF29DBBF
:104060008C2F8A950000E9F790E280910501847019
:1040700080930301A39880910501809584708093BB
:10408000030180910501847080930301A3988091BE
:1040900005018095847080930301809105018470EF
:1040A00080930301A398809105018095847080938B
:1040B000030180910501847080930301A39880918E
:1040C00005018095847080930301809105018470BF
:1040D00080930301A398809105018095847080935B
:1040E000030180910501847080930301A39880915E
:1040F000050180958470809303018091050184708F
:1041000080930301A398809105018095847080932A
:10411000030180910501847080930301A39880912D
:10412000050180958470809303018091050184705E
:1041300080930301A39880910501809584708093FA
:10414000030180910501847080930301A3988091FD
:10415000050180958470809303018091050184702E
:1041600080930301A39880910501809584708093CA
:10417000030180910501847080930301A3988091CD
:1041800005018095847080930301809105018470FE
:1041900080930301A398809105018095847080939A
:1041A000030180910501847080930301A39880919D
:1041B00005018095847080930301809105018470CE
:1041C00080930301A398809105018095847080936A
:1041D000030180910501847080930301A39880916D
:1041E000050180958470809303018C2F8A950000CF
:1041F000E9F7915009F039CF88EF5BDA8C2F8A9577
:104200000000E9F7DF5F105FD03209F015CF80E0E2
:1042100050DA80EC4EDACA950000E9F7A49881E004
:104220003ECED80115968C91888381E038CEF80176
:1042300081818883FACFB901C8010E94A0F981E089
:104240002ECE443171F0473109F069CE1882F80161
:1042500082818983858181508A8383818B8381E0F8
:104260001ECED80115964C91159750E0440F551F5E
:1042700070E060E016968D919C910F94D222C80157
:104280000E94CCF981E00BCE481708F448CE86177F
:1042900008F445CEFA80E12CD12C243070F41DC0F6
:1042A000BE01C8010E94A0F9898198819D0D988363
:1042B0008E0D8983FF0C09F432CEF7FEF6CFF0CFD6
:1042C0004D8150E0440F551F70E060E08E819F816A
:1042D0000F94D22281E0E3CDFA8030E0F901EF566D
:1042E000FD4FD08023573D4FF901E080E6CF58E0E5
:1042F000580F382F00CEDF92EF92FF920F931F934B
:10430000CF93DF93EC01D62E1CAD0BAD7C0184E086
:10431000E80EF11CE98DFA8DC7011995412F480F60
:104320002D2D602FC7010E94CCFD9BAD890F8BAF57
:1043300081E090E0DF91CF911F910F91FF90EF907E
:10434000DF9008958F929F92AF92BF92CF92DF92AB
:10435000EF92FF920F931F93CF93DF93EC018B01AA
:104360007A018A859B858617970731F08881998124
:104370000E94A6FC1B870A8788859985019641F5CE
:104380000C81DA808E81D80EA880B980D50155962F
:10439000ED91FC91C5011995080F10E0F7012191ED
:1043A0007F0121114FC08E819F81810F911D9F83BD
:1043B0008E8390E080E0DF91CF911F910F91FF906D
:1043C000EF90DF90CF90BF90AF909F908F90089527
:1043D000CE80DF80F701008110E0002321F1A8806A
:1043E000B980602FC5010E94FEFCD50151961C9139
:1043F00011954701BFEF8B1A9B0AF40181914F0180
:10440000882351F0D50150969C91190F082F682FE1
:10441000C5010E94FEFCF1CF003281F0F5018389D5
:104420009189890F180FC10ED11C288539852C154B
:104430003D0508F0A5CF81E090E0BDCFD5015096B5
:104440008C91F0CF402F6D2DC5010E94CCFDD80E70
:10445000180FA4CFEF92FF920F931F93CF93DF9388
:10446000CDB7DEB72C970FB6F894DEBF0FBECDBF29
:104470001091E9120091EA122091010521111BC04F
:104480004FE951E1602F812F0E9436FE90E080E0DD
:10449000180F1093E9120093EA1299272C960FB681
:1044A000F894DEBF0FBECDBFDF91CF911F910F916A
:1044B000FF90EF900895E090B612F090B71222EBC3
:1044C00032E13A832983212F30E03C832B83202F54
:1044D00030E03E832D8318861F827A8769871C8689
:1044E0001B869E012F5F3F4F43E55BE1BC01C70187
:1044F0000E945AE1B70182EB92E10E94A6FC8F81F3
:104500009885C6CF2F923F924F925F926F927F9283
:104510008F929F92AF92BF92CF92DF92EF92FF92D3
:104520000F931F93CF93DF93D62FC72FFC0180806B
:104530009180A280B380C501B40120E831E541E05B
:1045400050E00F944E1FC9016DE671E00F94852273
:104550006B017C01C501B40120E13EE040E050E088
:104560000F944E1FCA01B90128E130E040E050E04D
:104570000F944E1F362E272E062F172F8CE3482E12
:10458000512C612C712CC501B401A30192010F942F
:104590004E1FB62EA72ECA01B901A30192010F9496
:1045A0004E1FCB01C114D10479F1AF92BF927F931A
:1045B0006F932F923F92FF92EF92DF92CF9280E71C
:1045C0009FE09F938F93CF93DF930F94BD188DB788
:1045D0009EB70E960FB6F8949EBF0FBE8DBF8D2F5F
:1045E0009C2FDF91CF911F910F91FF90EF90DF9063
:1045F000CF90BF90AF909F908F907F906F905F9083
:104600004F903F902F900895E114F104C9F0AF92BC
:10461000BF927F936F932F923F92FF92EF9280E62B
:104620009FE09F938F93CF93DF930F94BD18EDB7C7
:10463000FEB73C960FB6F894FEBF0FBEEDBFCFCFCE
:10464000012BB9F0AF92BF927F936F932F923F925D
:1046500084E59FE09F938F93CF93DF930F94BD18D2
:104660008DB79EB70A960FB6F8949EBF0FBE8DBF4A
:10467000B6CF892BA9F0AF92BF927F936F938CE452
:104680009FE09F938F93CF93DF930F94BD18EDB767
:10469000FEB738960FB6F894FEBF0FBEEDBF9FCFA2
:1046A000AF92BF9288E49FE09F938F93CF93DF9365
:1046B0000F94BD180F900F900F900F900F900F90C8
:1046C0008ECFAB01BC014093F7125093F812609368
:1046D000F9127093FA128CE594E10D94A804CF922C
:1046E000DF92EF92FF920F931F93CF93DF936B01B3
:1046F0007A01EC01C15BDC4F28813CE0389F8001EE
:10470000399F100D112427FF24C0FB011182108254
:1047100088818F5F888388819801280F311D87FDEC
:104720003A95C90120917712F6012817190629F048
:1047300024F088818C300CF43CC0808191810496F7
:1047400080349C4908F475C0F601808191810496FB
:1047500072C088819801280F311D87FD3A95C901E3
:10476000209177122817190699F294F28881A801EE
:10477000480F511D87FD5A95FA01EE0FFF1FE40FF8
:10478000F51FE55FFD4E808187FFC2CF8881F8016C
:10479000E80FF11D87FDFA95CF01EE0FFF1FE80F1F
:1047A000F91FE55FFD4E808160E08F770E946BF717
:1047B000AFCF808191812881A801420F511D27FD33
:1047C0005A959A01FA01EE0FFF1FE20FF31FE55F02
:1047D000FD4E21813281820F931FF70191838083E7
:1047E00088819801280F311D87FD3A95F901EE0F58
:1047F000FF1FE20FF31FE55FFD4E808187FF20C0A2
:104800008881080F111D87FD1A95F801EE0FFF1F13
:10481000E00FF11FE55FFD4E808161E08F77DF9152
:10482000CF911F910F91FF90EF90DF90CF900C945C
:104830006BF780E49CE9F701918380838FEF888395
:10484000DF91CF911F910F91FF90EF90DF90CF906C
:1048500008958091FD039091FE03009731F04AE0A6
:1048600050E070E060E00D94571760E070E0CB011D
:1048700008958091FD039091FE03009731F04AE086
:1048800050E070E060E00D942A1660E070E0CB012B
:104890000895EFDF97FD0AC0ECDF6F3F71058105DA
:1048A000910509F02CF4E5DF862F089580E0089546
:1048B0008FEF08958091FD039091FE03892B39F0CD
:1048C000E8DF91E0811101C090E0892F089591E027
:1048D000FCCFCFDFCB010895CF93DF93CDB7DEB709
:1048E00020E2488559856F818E810E945CF3DF91BB
:1048F000CF91089563E972E084E690E00E9430BFB2
:104900006AEB72E084E690E00C9430BF8111F2CF44
:1049100068EB71E084E190E00C9430BF0E946CB0D1
:10492000F5CF0E9485DBF2CFCF930E948CCE0E9400
:104930006CB0C82F882319F080E00E943BD28C2FE6
:10494000CF91E4CF80917E1290917F12891B8F705E
:1049500051F480918205813031F08091FB1282FB0D
:10496000882780F9089581E008958F929F92AF92F1
:10497000BF92EF92FF920F931F93CF93DF93EC01BF
:104980008B01E42EF22E8091AC129091AD128C1717
:104990009D07C9F12AECC530D20709F03FC08859FC
:1049A000984B71F40E94D2F86E517B4F8F4F9F4FFE
:1049B0006093EB047093EC048093ED049093EE0409
:1049C000D093AD12C093AC1230E020E00093AA095E
:1049D0001093AB092093AC093093AD09E092A20982
:1049E000F092A309C859D84B21F4109202051092F5
:1049F000EA0482E080935C0281E08093BA0910921D
:104A000003051092A109DF91CF911F910F91FF90A3
:104A1000EF90BF90AF909F908F90089528EBC8398A
:104A2000D20771F685509A4C19F0C8E9D8EBC8CF77
:104A30000E94D2F88090EB049090EC04A090ED04DA
:104A4000B090EE04681979098A099B0997FFEDCFA8
:104A5000C091ED0977DF882341F3C770C73029F78C
:104A6000C6E7DCE2ADCFCF93DF9380915C02882371
:104A700041F0609106057091070541E081E00E94D8
:104A80001EF38091040581111AC081E08093040512
:104A9000C091AC12D091AD1220E040E070E060E037
:104AA00083E395E262DF0E94449D1092040520E0BA
:104AB00040E070E060E0CE01DF91CF9156CFDF9112
:104AC000CF910895E091EA04E63010F581E08E0F71
:104AD0008093EA044091AA095091AB096091AC0916
:104AE0007091AD099091A2098091A30928E0E29FFD
:104AF000F0011124E654FB4F2091AC123091AD121D
:104B000031832083428353836483758396838783B1
:104B1000089520E040E070E060E088E998EB25CF60
:104B2000E091EA04EE2381F0E150E093EA0488E0AA
:104B3000E89FF0011124E654FB4F628173812781C5
:104B400046818081918111CFE4CF2F923F924F9285
:104B50005F926F927F928F929F92AF92BF92CF920D
:104B6000DF92EF92FF920F931F93CF93DF9300D0CA
:104B70001F92CDB7DEB70E94E5F61091A209212E53
:104B800085E0382E310E94EFC92EDD24D394E12C2C
:104B9000F12C05E0011B2EEE422E22E0522E612C5C
:104BA000712C84E0B82EB11A83E0A82EA11A82E0FD
:104BB000982E911A81E0882E811A11113DC08091A2
:104BC000A4098823B9F080915C02882361F0622DEA
:104BD000619581E09091A409911180E024E044E284
:104BE00054E10E945CF31F5F3112E7CF86E08093AF
:104BF000A3090BC08091A0091092A009882319F382
:104C00008FDF8091BA098823F1F20F900F900F90F7
:104C10000F90DF91CF911F910F91FF90EF90DF9058
:104C2000CF90BF90AF909F908F907F906F905F904C
:104C30004F903F902F900895113069F58091A4090D
:104C40008130A1F080915C02882369F283E19AE1CE
:104C50009F938F9387EF93E19F938F938F9281E040
:104C60009091A409913089F180E02FC08091A00932
:104C70001092A009882331F3C982DA82EB82FC8288
:104C8000BE016F5F7F4F80EA0E946B468091BA0938
:104C90008823C1F2BACF123009F0A6C08091A409CE
:104CA0008230E1F080915C02882309F49CCF8EE28F
:104CB0009AE19F938F9388EE93E19F938F939F92B6
:104CC00081E09091A409923079F68F9305DE0F90E0
:104CD0000F900F900F900F900F9085CF8091A009AB
:104CE0001092A0098823F1F2C982DA82EB82FC8259
:104CF000BE016F5F7F4F88E70E946B468091BA09C3
:104D0000882381F282CF8091A4098330A9F0809119
:104D10005C02882309F467CF84E69AE19F938F931E
:104D20008CED93E19F938F93AF9281E09091A409D2
:104D3000933009F099CFC9CF8091A0091092A009B2
:104D4000882329F349825A826B827C82BE016F5F7D
:104D50007F4F8AE00E946B468091BA098823B9F29E
:104D600054CF8091A4098430A9F080915C028823FB
:104D700009F439CF8FE79AE19F938F9382ED93E106
:104D80009F938F93BF9281E09091A409943009F092
:104D90006BCF9BCF8091A0091092A009882329F3A3
:104DA00049825A826B827C82BE016F5F7F4F8AE5A7
:104DB0000E946B468091BA098823B9F226CF809170
:104DC000A0091092A0098823E1F0C982DA82EB825F
:104DD000FC82BE016F5F7F4F8CE30E946B46809127
:104DE000BA09882371F011CF133009F48CCF143035
:104DF00009F4B7CF153009F0F6CE8091A4098530BB
:104E0000F1F280915C02882309F4EDCE89E49AE105
:104E10009F938F9382E094E19F938F930F9381E010
:104E20009091A409953009F01FCF4FCF6F927F92D8
:104E30008F929F92AF92BF92CF92DF92EF92FF92AA
:104E40000F931F93CF93DF930E94E5F6C091A209C1
:104E50001C2F85E0782E7C0E04E00C1B83E0F82EDE
:104E6000FC1A82E0E82EEC1A90EFA92E92E1B92EFE
:104E700020E4C22E23E1D22E81E0982E9C1A6C2EC3
:104E8000619485E0882E8C1AC1112FC08091A409ED
:104E9000882389F080915C02882309F443C081E073
:104EA0009091A409911180E024E041E553E1662D41
:104EB0000E945CF337C08091A0091092A00988235A
:104EC00049F32EDE8091BA09882321F3DF91CF9137
:104ED0001F910F91FF90EF90DF90CF90BF90AF9018
:104EE0009F908F907F906F900895C13009F074C0AB
:104EF0008091A409813009F45DC080915C0288230F
:104F000089F01F92DF92CF929F9281E09091A40945
:104F1000913009F080E08F93DFDC0F900F900F90BD
:104F20000F900F900FDD8111CFC0D6E0C53009F092
:104F3000CCC08091A409853009F4A8C080915C029E
:104F40008111B5C0D6E081E08D0F8C1315C0809122
:104F5000A4098C1709F4E0C080915C02882361F0F9
:104F60006C2F611B81E09091A4099C1380E023E0E9
:104F700047E053E10E945CF382E08D0F8C1313C075
:104F80009091A4099C1709F4D8C080915C028823F1
:104F900051F06C2F611B81E09C1380E023E045EF12
:104FA00052E10E945CF3CF5FC7116ECFDD5FD093FB
:104FB000A3098CCF8091A0091092A009882309F43D
:104FC0009CCFB092FB07A092FA07A3DD8091BA09AB
:104FD000882309F492CF7ACFC23009F0CAC08091F9
:104FE000A409823081F080915C02882309F49ACF71
:104FF00081E09091A409923009F080E023E047E33A
:1050000053E16E2D55CF8091A0091092A0098823FD
:1050100051F380E99FE20E94FAC38091BA09882384
:1050200011F354CF8091A409833081F080915C0208
:10503000882309F477CF81E09091A409933009F097
:1050400080E023E04AE253E16F2D32CF8091A00946
:105050001092A009882351F380E791E30E94FAC3DC
:105060008091BA09882311F331CF8091A009109261
:10507000A009882309F488C08EEA94E30E94FAC349
:105080008091BA09882309F47FC020CF8091A009BC
:105090001092A009882309F451CF84E696E30E9478
:1050A000FAC38091BA09882309F448CF0FCF81E071
:1050B0009091A409953009F080E023E04CE153E1A0
:1050C000682D0E945CF33ECFD5E0DC133CCF80918D
:1050D000A4098D1791F080915C02882309F433CFE5
:1050E0006C2F611B81E09091A4099C1380E023E068
:1050F00040E153E10E945CF326CF8091A009109219
:10510000A009882341F389EB97E30E94FAC38091B9
:10511000BA09882301F3DACE8091A0091092A00980
:10512000882309F419CF8AE299E30E94FAC3809197
:10513000BA09882309F410CFC9CE8091A009109232
:10514000A009882309F421CF20E040E070E060E06E
:1051500083EF9DE1DF91CF911F910F91FF90EF9031
:10516000DF90CF90BF90AF909F908F907F906F9087
:10517000FCCBC33009F456CFC43009F0D3CE8091B4
:10518000A409843009F471CF80915C02882309F46A
:10519000C9CE81E09091A409943009F080E023E029
:1051A00045E253E1602F84CEAF92BF92CF92DF925F
:1051B000EF92FF920F931F93CF93DF93EC015B016C
:1051C0008A01FB01199587FD16C0C82ED12CF12C40
:1051D000E12C2196F801C082D182E282F382CE01D5
:1051E000DF91CF911F910F91FF90EF90DF90CF90C3
:1051F000BF90AF900895982F907E903CA9F48F7146
:1052000090E0B0E0A0E06C017D0126E0CC0CDD1C5C
:10521000EE1CFF1C2A95D1F7CE010196F5011995D8
:105220008F73C82A2296D6CF982F907F903E11F583
:105230008F7090E0B0E0A0E06C017D0186E0CC0CC6
:10524000DD1CEE1CFF1C8A95D1F7CE010196F501FD
:1052500019958F73C82A96E0CC0CDD1CEE1CFF1C40
:105260009A95D1F7CE010296F50119958F73C82A48
:105270002396B0CF982F987F903F79F5877090E074
:10528000B0E0A0E06C017D01F6E0CC0CDD1CEE1C72
:10529000FF1CFA95D1F7CE010196F50119958F7390
:1052A000C82AA6E0CC0CDD1CEE1CFF1CAA95D1F789
:1052B000CE010296F50119958F73C82AB6E0CC0C81
:1052C000DD1CEE1CFF1CBA95D1F7CE010396F5014B
:1052D00019958F73C82A24967DCF982F9C7F983F6D
:1052E000E1F5837090E0B0E0A0E06C017D0156E054
:1052F000CC0CDD1CEE1CFF1C5A95D1F7CE0101969B
:10530000F50119958F73C82A66E0CC0CDD1CEE1CE4
:10531000FF1C6A95D1F7CE010296F50119958F739E
:10532000C82A76E0CC0CDD1CEE1CFF1C7A95D1F768
:10533000CE010396F50119958F73C82AE6E0CC0CCF
:10534000DD1CEE1CFF1CEA95D1F7CE010496F50199
:1053500019958F73C82A25963DCF982F9E7F9C3F25
:1053600009F049C0817090E0B0E0A0E06C017D01DF
:1053700086E0CC0CDD1CEE1CFF1C8A95D1F7CE011B
:105380000196F50119958F73C82A96E0CC0CDD1CA7
:10539000EE1CFF1C9A95D1F7CE010296F5011995E6
:1053A0008F73C82A26E0CC0CDD1CEE1CFF1C2A954E
:1053B000D1F7CE010396F50119958F73C82A36E00F
:1053C000CC0CDD1CEE1CFF1C3A95D1F7CE010496E7
:1053D000F50119958F73C82A46E0CC0CDD1CEE1C34
:1053E000FF1C4A95D1F7CE010596F50119958F73EB
:1053F000C82A2696EFCE982F907C903841F4807C76
:10540000803869F42196CE01F5011995F8CF8E7F89
:105410008D3F28F02196CE01F5011995F8CFC12CCA
:10542000D12C7601D7CE1F93CF93DF9300D01F925C
:10543000CDB7DEB710E0AE014F5F5F4F66E57BE1B1
:10544000B3DE49815A816B817C81452B462B472BEA
:1054500011F01F5FF0CF812F0F900F900F900F90E2
:10546000DF91CF911F9108951F93CF93DF9300D0C9
:105470001F92CDB7DEB710E0AE014F5F5F4F63E51F
:105480007BE192DE49815A816B817C81452B462BE1
:10549000472B11F01F5FF0CF812F0F900F900F90CF
:1054A0000F90DF91CF911F9108959CE0899F802DEF
:1054B000112491E0980F9093B9042CE0280F2093C9
:1054C000EB0930E02E5F3F4F4091E6124217130682
:1054D00019F014F080E008952091E8129217D0F7A7
:1054E000662341F08E5F0E942FFB8091EB098E5F57
:1054F0000E942FFB8091EB099091E612891750F3DF
:105500002091E8129091B904291720F31092E91222
:105510008093EA1281E008952091B804022E000CD5
:10552000330B8217130641F08093B80462E374E1F1
:1055300082EB92E10C94A6FC0895CF93DF93FC01DB
:1055400025AD211104C021E025AF0E94D7F9C091FB
:10555000B412D091B512E091E312F091E41282E01E
:105560001995E091E312F091E41281E0199530E091
:1055700020E044E1BE0182EB92E10E94D3F925EEE6
:1055800032E147E1BE0182EB92E10E94D3F9E09162
:10559000E312F091E41280E0DF91CF911994EF9241
:1055A000FF920F931F93CF93DF93CDB7DEB72C9766
:1055B0000FB6F894DEBF0FBECDBF6F3F71058105FA
:1055C000910509F0C0F48EEA92E10E947B21E091FE
:1055D000B612F091B7123196849190E02C960FB6E6
:1055E000F894DEBF0FBECDBFDF91CF911F910F9119
:1055F000FF90EF9008951091E9120091EA12209126
:10560000010521110FC04FEB51E1602F812F0E9446
:1056100036FE90E080E0180F1093E9120093EA1232
:105620009927DCCFE090B612F090B71222EB32E16E
:105630003A832983212F30E03C832B83202F30E0D5
:105640003E832D8318861F822FEF3FEF3A872987ED
:105650001C861B869E012F5F3F4FAB01BC01C7011B
:105660000E949AE0B70182EB92E10E94A6FC8F8132
:105670009885D1CFDF92EF92FF920F931F93CF9334
:10568000DF9300D01F92CDB7DEB77C01062F142F19
:10569000112309F444C0AE014F5F5F4F63E57BE126
:1056A000C70182DD7C0169817A818B819C816115D2
:1056B00071058105910599F1DD24DA94D10E6D33E0
:1056C00071058105910581F06E37710581059105A0
:1056D00059F06A3271058105910589F565E470E03C
:1056E00080E090E05CDF1D2D602F70E089819A8161
:1056F000AB81BC81CD97A105B105F1F480E390E0C9
:10570000680F791F072E000C880B990B48DF11508A
:1057100031F0612F70E0C7010E942A22181B812FEF
:105720000F900F900F900F90DF91CF911F910F91DD
:10573000FF90EF90DF90089581E390E0E1CF2FDFBD
:105740001D2DA6CF6FEF7FEF0C942A22EF92FF92D0
:105750000F931F93CF93DF93CDB7DEB72C970FB680
:10576000F894DEBF0FBECDBF1091E9120091EA128E
:105770002091010521111BC04FE751E1602F812FBE
:105780000E9436FE90E080E0180F1093E91200931B
:10579000EA1299272C960FB6F894DEBF0FBECDBF44
:1057A000DF91CF911F910F91FF90EF900895E090BE
:1057B000B612F090B71222EB32E13A832983212FFF
:1057C00030E03C832B83202F30E03E832D831886EE
:1057D0001F827A8769871C861B869E012F5F3F4F39
:1057E00046E55BE1BC01C7010E945AE1B70182EBCB
:1057F00092E10E94A6FC8F819885C6CF6FEF7FEF64
:10580000A5CFAF92BF92CF92DF92EF92FF920F930C
:105810001F93CF93DF935C016B0126DEE82EC60158
:1058200002DEF12C03E110E0081B1109C5E20E15A0
:105830001F050CF4CFE18C2F90E09C012E5F3F4FB1
:105840004091E6124217130609F09CF50997209142
:10585000E812281719066CF16091EC091092E91210
:10586000C093EA1245E1C50105DFD1E0C114D104BE
:10587000A9F06AE370E080E090E091DE0E151F056C
:10588000D4F4C45F8091E612C81740F02091E8126A
:105890004C2F4950550B241715067CF4DF91CF91FE
:1058A0001F910F91FF90EF90DF90CF90BF90AF903E
:1058B0000895D0E0DBCFDD2389F3802F880F080F18
:1058C000000F0093E912C093EA1260E270E080E0FA
:1058D00090E065DEC601DF91CF911F910F91FF909F
:1058E000EF90DF90CF90BF90AF9088CF8F929F9234
:1058F000AF92BF92CF92DF92EF92FF928091A00978
:105900001092A009882359F010920205FF90EF90A1
:10591000DF90CF90BF90AF909F908F9001C981E0B2
:1059200080930205C090AA09D090AB09E090AC0921
:10593000F090AD09C114D104E104F10409F45CC094
:105940001092AA091092AB091092AC091092AD09FD
:10595000B6010D2C000C880B990B0F942A1920917D
:105960005D0A30915E0A40915F0A5091600A0F947F
:1059700089192091020A3091030A4091040A50913A
:10598000050A0F94AC1F4B015C0120E030E040EAB7
:1059900051EC0F94D22187FD2FC020E030E040EA87
:1059A00051E4C501B4010F94241918162CF180910B
:1059B000ED098695869580FF14C08091EF04909143
:1059C000F0048C0D9D1D9093F0048093EF04809162
:1059D0008E0590918F05C80ED91ED0928F05C0926A
:1059E0008E058092020A9092030AA092040AB09255
:1059F000050A82E080935C0280915C02882381F03A
:105A000082E09AE00E94C7F3BC018FED91E1FF9024
:105A1000EF90DF90CF90BF90AF909F908F90F1CE9E
:105A2000FF90EF90DF90CF90BF90AF909F908F90BE
:105A300008950F931F93CF93DF93FC01EB018091A7
:105A4000AA099091AB09A091AC09B091AD09B7FF3B
:105A500008C01092AA091092AB091092AC091092DA
:105A6000AD098091AE099091AF09A091B009B091B4
:105A7000B1094091AA095091AB096091AC097091AC
:105A8000AD0984179507A607B70744F48093AA09C0
:105A90009093AB09A093AC09B093AD0980915C02DF
:105AA0008823D9F06091AA097091AB098091AC0963
:105AB0009091AD090091B2091091B3092091B409F8
:105AC0003091B509600F711F821F931F1995BC019A
:105AD0008091B8099091B90994DE8091A009811153
